:020000040000fa
:080000000001040000000000f3
:020000040000fa
:040008003a020000b8
:020000040000fa
:04000c003a020000b4
:020000040000fa
:040010003a020000b0
:020000040000fa
:040014003a020000ac
:020000040000fa
:040018003a020000a8
:020000040000fa
:04001c003a020000a4
:020000040000fa
:040020003a020000a0
:020000040000fa
:040024003a0200009c
:020000040000fa
:040028003a02000098
:020000040000fa
:04002c003a02000094
:020000040000fa
:040030003a02000090
:020000040000fa
:040034003a0200008c
:020000040000fa
:040038003a02000088
:020000040000fa
:04003c003a02000084
:020000040000fa
:040040003a02000080
:020000040000fa
:040044003a0200007c
:020000040000fa
:040048003a02000078
:020000040000fa
:04004c003a02000074
:020000040000fa
:040050003a02000070
:020000040000fa
:04005400c8010000df
:020000040000fa
:040058003a02000068
:020000040000fa
:04005c003a02000064
:020000040000fa
:040060003a02000060
:020000040000fa
:04006400f0010000a7
:020000040000fa
:040068003a02000058
:020000040000fa
:04006c003a02000054
:020000040000fa
:040070003a02000050
:020000040000fa
:040074003a0200004c
:020000040000fa
:040078003a02000048
:020000040000fa
:04007c003a02000044
:020000040000fa
:040080003a02000040
:020000040000fa
:040084003a0200003c
:020000040000fa
:040088003a02000038
:020000040000fa
:04008c003a02000034
:020000040000fa
:040090003a02000030
:020000040000fa
:040094003a0200002c
:020000040000fa
:040098003a02000028
:020000040000fa
:04009c003a02000024
:020000040000fa
:0400a0003a02000020
:020000040000fa
:0400a4003a0200001c
:020000040000fa
:0400a8003a02000018
:020000040000fa
:0400ac003a02000014
:020000040000fa
:0400b0003a02000010
:020000040000fa
:0400b4003a0200000c
:020000040000fa
:0400b8003a02000008
:020000040000fa
:0400bc003a02000004
:020000040000fa
:0400c0003a02000000
:020000040000fa
:0400c4003a020000fc
:020000040000fa
:0400c8003a020000f8
:020000040000fa
:0400cc003a020000f4
:020000040000fa
:0400d0003a020000f0
:020000040000fa
:0400d4003a020000ec
:020000040000fa
:0400d8003a020000e8
:020000040000fa
:040108003a020000b7
:020000040000fa
:04010c003a020000b3
:020000040000fa
:040110003a020000af
:020000040000fa
:040114003a020000ab
:020000040000fa
:040118003a020000a7
:020000040000fa
:04011c003a020000a3
:020000040000fa
:040120003a0200009f
:020000040000fa
:040124003a0200009b
:020000040000fa
:040128003a02000097
:020000040000fa
:04012c003a02000093
:020000040000fa
:040130003a0200008f
:020000040000fa
:040134003a0200008b
:020000040000fa
:040138003a02000087
:020000040000fa
:04013c003a02000083
:020000040000fa
:040140003a0200007f
:020000040000fa
:040144003a0200007b
:020000040000fa
:040148003a02000077
:020000040000fa
:04014c003a02000073
:020000040000fa
:040150003a0200006f
:020000040000fa
:04015400c8010000de
:020000040000fa
:040158003a02000067
:020000040000fa
:04015c003a02000063
:020000040000fa
:040160003a0200005f
:020000040000fa
:04016400f0010000a6
:020000040000fa
:040168003a02000057
:020000040000fa
:04016c003a02000053
:020000040000fa
:040170003a0200004f
:020000040000fa
:040174003a0200004b
:020000040000fa
:040178003a02000047
:020000040000fa
:04017c003a02000043
:020000040000fa
:040180003a0200003f
:020000040000fa
:040184003a0200003b
:020000040000fa
:040188003a02000037
:020000040000fa
:04018c003a02000033
:020000040000fa
:040190003a0200002f
:020000040000fa
:040194003a0200002b
:020000040000fa
:040198003a02000027
:020000040000fa
:04019c003a02000023
:020000040000fa
:0401a0003a0200001f
:020000040000fa
:0401a4003a0200001b
:020000040000fa
:0401a8003a02000017
:020000040000fa
:0401ac003a02000013
:020000040000fa
:0401b0003a0200000f
:020000040000fa
:0401b4003a0200000b
:020000040000fa
:0401b8003a02000007
:020000040000fa
:0401bc003a02000003
:020000040000fa
:0401c0003a020000ff
:020000040000fa
:0401c4003a020000fb
:020000040000fa
:0401c8003a020000f7
:020000040000fa
:0401cc003a020000f3
:020000040000fa
:0401d0003a020000ef
:020000040000fa
:0401d4003a020000eb
:020000040000fa
:0401d8003a020000e7
:020000040000fa
:10020000af8020000eff20000e01880000000000db
:10021000000020000000e000020032000001200089
:100220002002880014000700940007000000e0008e
:1002300003003a00a03a200001002000020037002d
:100240000000200001002000810f7000010032003a
:1002500014000700000020000000e000020032004f
:100260000000020000000000400202000000000048
:100270000040da000000fe004440a9000000200019
:100280000000e0000300320000002000a001880010
:100290004440a800000006008a1f78008b1f7800e9
:1002a0000000060091018800800478000000eb0047
:1002b0001a003700e284440032a0b4009905ba0065
:1002c000e284440032a0b4009906ba00e2844400fb
:1002d00032a0b4000006eb00476fde00fd07b2005d
:1002e000636ce10003003a00ebff07000000eb0045
:1002f0000a003700606ce10004003a00005deb008a
:100300008b05e900fdff3e00040037006168e10055
:10031000010032000086eb000b00070019c7ba008d
:100320001905ba000e04e00003003a000a00e000dc
:10033000e0ff3a0000000600fe07b2009e018800c0
:100340008a047800f5ff3700395dba008b05e900b3
:100350000c003200295dba008b05e900080032006c
:100360000c00e00003003a00e284440032a0b40034
:10037000f5ff370019ddba008b05e900faff3a00f6
:100380008904e800e184440032a0b40000000600c3
:100390003600f800809fbe00829fbe00849fbe0092
:1003a000869fbe000000fa00a1e2a9008560a900b6
:1003b0000014800000408800004080008600070094
:1003c000a1e2a8000080fa004f03be004f02be0069
:1003d0004f01be004f00be003600f900004006008d
:1003e0003600f800809fbe00829fbe00849fbe0042
:1003f000869fbe000000fa0085e0a900c0a0a90009
:10040000501680004200de00614060000080fb006a
:10041000e10f40000f003200800c2000010020009e
:1004200098000700501680004b00de00614060001d
:1004300000c0ea00614060000080fb0061006000d5
:100440004b00dd005116800001b0a10001007000da
:1004500050168800c0a0a8000080fa004f03be001c
:100460004f02be004f01be004f00be003600f90033
:10047000004006000040da000000fe000000050019
:020000040000fa
:100480000000fa00c762a900c682a9002000070088
:10049000100007003b0007008d20a9008d40a90037
:1004a0008d60a8008560a900a022a8004006200059
:1004b00095000700a022a900000000002104800090
:1004c00000802000008060000000e000fbff3a0098
:1004d000f5ff37000000fa00b0ff2f00401588003c
:1004e000a022ef00004020001015880030002000fe
:1004f00030158800400020005015880020002000a2
:1005000020158800a1e2a8000080fa000000060083
:100510000000fa00c0a0a800c4a0a8008de0a800b8
:1005200085e0a9000080fa00000006000000fa0043
:10053000d202a90060922000600888000621ef0026
:100540008221ef008021ef00210c800080ff2f002e
:10055000008060006000b300200c88008461a90066
:100560001061a900810880000003200001007000d4
:10057000800888001021a90011e1a8000080fa007d
:10058000000006000000fa004427ef0040a7a90081
:100590000de2a9000c02a9006110800090ff2f005d
:1005a00000806000601088000ca2a900f00020000c
:1005b000a01088000fe2a90071108000f0f32f0056
:1005c00000806000701088000de2a8000f42a800b3
:1005d0000080fa00000006000800fa0030079800ca
:1005e000f00f2000000f780030c0b30020479800c3
:1005f000c0cfb300304798001e00780080407800dc
:100600003e0090000040780000c060004047980025
:100610003e0090004800de00804078001e00780018
:100620000040780000c06000504798002e409000c5
:100630000080fb00801088002003200032000700ab
:100640004e4090000080fb008010880020032000b6
:100650002d0007005e4090000080fb0080108800a5
:1006600020032000280007003e4090000080fb008f
:100670008010880020032000230007000080fa007b
:10068000000006000400fa00008fbe009e009000eb
:1006900080bb20000088b900000178001e007800af
:1006a0006000b90000007800000141009e00780061
:1006b00080bb20000008b8000101410082007800e2
:1006c000008fbe00008fbe00000000001e009000e2
:1006d0001e00700000f0a7000000ea000000ea0021
:1006e0004f00de00004078000081eb008081eb00cd
:1006f0001e0f41005e9749000004e000f3ff3a003e
:100700000080fa00000006000200fa00000f7800e6
:100710001e0078007e00b900000078004200de0074
:10072000000f7800000000001e00780000f0a70015
:100730000000ea000000ea004f00de000040780000
:100740001e0fe9000004e000f7ff3a000080fa0005
:04075000000006009f
:020000040000fa
:10075400000800000a000000000000000000000083
:020000040000fa
:0200000401f009
:040000000387000072
:020000040000fa
:0200000401f009
:040004003f000000b9
:00000001FF
