:020000040000fa
:080000000001040000000000f3
:020000040000fa
:04000800680200008a
:020000040000fa
:04000c006802000086
:020000040000fa
:040010006802000082
:020000040000fa
:04001400680200007e
:020000040000fa
:04001800680200007a
:020000040000fa
:04001c006802000076
:020000040000fa
:040020006802000072
:020000040000fa
:04002400680200006e
:020000040000fa
:04002800680200006a
:020000040000fa
:04002c006802000066
:020000040000fa
:040030006802000062
:020000040000fa
:04003400680200005e
:020000040000fa
:04003800680200005a
:020000040000fa
:04003c006802000056
:020000040000fa
:040040006802000052
:020000040000fa
:04004400680200004e
:020000040000fa
:04004800680200004a
:020000040000fa
:04004c006802000046
:020000040000fa
:040050006802000042
:020000040000fa
:04005400c8010000df
:020000040000fa
:04005800680200003a
:020000040000fa
:04005c006802000036
:020000040000fa
:040060006802000032
:020000040000fa
:040064001e02000078
:020000040000fa
:04006800680200002a
:020000040000fa
:04006c006802000026
:020000040000fa
:040070006802000022
:020000040000fa
:04007400680200001e
:020000040000fa
:04007800680200001a
:020000040000fa
:04007c006802000016
:020000040000fa
:040080006802000012
:020000040000fa
:04008400680200000e
:020000040000fa
:04008800680200000a
:020000040000fa
:04008c006802000006
:020000040000fa
:040090006802000002
:020000040000fa
:0400940068020000fe
:020000040000fa
:0400980068020000fa
:020000040000fa
:04009c0068020000f6
:020000040000fa
:0400a00068020000f2
:020000040000fa
:0400a40068020000ee
:020000040000fa
:0400a80068020000ea
:020000040000fa
:0400ac0068020000e6
:020000040000fa
:0400b00068020000e2
:020000040000fa
:0400b40068020000de
:020000040000fa
:0400b80068020000da
:020000040000fa
:0400bc0068020000d6
:020000040000fa
:0400c00068020000d2
:020000040000fa
:0400c40068020000ce
:020000040000fa
:0400c80068020000ca
:020000040000fa
:0400cc0068020000c6
:020000040000fa
:0400d00068020000c2
:020000040000fa
:0400d40068020000be
:020000040000fa
:0400d80068020000ba
:020000040000fa
:040108006802000089
:020000040000fa
:04010c006802000085
:020000040000fa
:040110006802000081
:020000040000fa
:04011400680200007d
:020000040000fa
:040118006802000079
:020000040000fa
:04011c006802000075
:020000040000fa
:040120006802000071
:020000040000fa
:04012400680200006d
:020000040000fa
:040128006802000069
:020000040000fa
:04012c006802000065
:020000040000fa
:040130006802000061
:020000040000fa
:04013400680200005d
:020000040000fa
:040138006802000059
:020000040000fa
:04013c006802000055
:020000040000fa
:040140006802000051
:020000040000fa
:04014400680200004d
:020000040000fa
:040148006802000049
:020000040000fa
:04014c006802000045
:020000040000fa
:040150006802000041
:020000040000fa
:04015400c8010000de
:020000040000fa
:040158006802000039
:020000040000fa
:04015c006802000035
:020000040000fa
:040160006802000031
:020000040000fa
:040164001e02000077
:020000040000fa
:040168006802000029
:020000040000fa
:04016c006802000025
:020000040000fa
:040170006802000021
:020000040000fa
:04017400680200001d
:020000040000fa
:040178006802000019
:020000040000fa
:04017c006802000015
:020000040000fa
:040180006802000011
:020000040000fa
:04018400680200000d
:020000040000fa
:040188006802000009
:020000040000fa
:04018c006802000005
:020000040000fa
:040190006802000001
:020000040000fa
:0401940068020000fd
:020000040000fa
:0401980068020000f9
:020000040000fa
:04019c0068020000f5
:020000040000fa
:0401a00068020000f1
:020000040000fa
:0401a40068020000ed
:020000040000fa
:0401a80068020000e9
:020000040000fa
:0401ac0068020000e5
:020000040000fa
:0401b00068020000e1
:020000040000fa
:0401b40068020000dd
:020000040000fa
:0401b80068020000d9
:020000040000fa
:0401bc0068020000d5
:020000040000fa
:0401c00068020000d1
:020000040000fa
:0401c40068020000cd
:020000040000fa
:0401c80068020000c9
:020000040000fa
:0401cc0068020000c5
:020000040000fa
:0401d00068020000c1
:020000040000fa
:0401d40068020000bd
:020000040000fa
:0401d80068020000b9
:020000040000fa
:10020000af8020000eff20000e01880000000000db
:10021000000020000000e000020032000001200089
:100220002002880014000700ab0007000000e00077
:1002300003003a00a0632000010020000200370004
:100240000000200001002000810f7000010032003a
:1002500014000700000020000000e000020032004f
:100260000000020000000000a404020000000000e2
:100270000040da000000fe004440a9000000200019
:100280000000e0000300320000002000a001880010
:100290004440a800000006008a1f78008b1f7800e9
:1002a0000000060091018800800478000000eb0047
:1002b0001a003700e284440032a0b4009905ba0065
:1002c000e284440032a0b4009906ba00e2844400fb
:1002d00032a0b4000006eb00476fde00fd07b2005d
:1002e000636ce10003003a00ebff07000000eb0045
:1002f0000a003700606ce10004003a00005deb008a
:100300008b05e900fdff3e00040037006168e10055
:10031000010032000086eb000b00070019c7ba008d
:100320001905ba000e04e00003003a000a00e000dc
:10033000e0ff3a0000000600fe07b2009e018800c0
:100340008a047800f5ff3700395dba008b05e900b3
:100350000c003200295dba008b05e900080032006c
:100360000c00e00003003a00e284440032a0b40034
:10037000f5ff370019ddba008b05e900faff3a00f6
:100380008904e800e184440032a0b40000000600c3
:100390003600f800809fbe00829fbe00849fbe0092
:1003a000869fbe003400f80000002000a0018800f5
:1003b0000000fa00a1e2a9008560a90000148000f5
:1003c0000040880010148000104088001040800019
:1003d0008000eb00a400070002002000a3362400e8
:1003e000f600070002002f00f35724003b0007002f
:1003f000204088003140880020408000314080004b
:10040000780007000000780040408800114080001c
:1004100000408000a2010700a1e2a8000080fa00cd
:100420003400f9004f03be004f02be004f01be0072
:100430004f00be003600f900004006003600f8000c
:10044000809fbe00829fbe00849fbe00869fbe002c
:100450000000fa0085e0a900c0a0a90050168000a5
:100460004200de00614060000080fb00e10f4000c0
:100470000f003200800c200001002000c90107009d
:10048000501680004b00de006140600000c0ea00b2
:10049000614060000080fb00610060004b00dd00f7
:1004a0005116800001b0a1000100700050168800b4
:1004b000c0a0a8000080fa004f03be004f02be009b
:1004c0004f01be004f00be003600f900004006009c
:1004d0000040da000000fe0000000500889fbe001a
:1004e0008a9fbe008c1f78009c000700a300330089
:1004f00003866c006450e1002e0032006420e100ad
:10050000330032006150e1002f0032006120e10031
:100510003100320085855500eb07b000090020004e
:1005200008042000050037000804440089844c00ba
:100530000a0031000603430087834b00000153008b
:1005400081815b00f8ff33000203be000800a000b9
:100550000804440089844c00f6ff3900c639dd00e8
:100560008301730001003200130020008904d100d0
:100570000884d3000998a300050032000800a700f2
:100580000300a0008904d1000884d3008b05e80093
:100590008904d1000884d3000001eb000281d2005d
:1005a0003300070001f0a1000cf0a70001f0a0004b
:1005b0007b0037006420e1007d0032000801be00ae
:1005c0000200be00f7ff37006120e1007800320032
:1005d0006000b800f3ff37000000200001f827009a
:1005e000f0ff37000001be00470007000470a700bd
:1005f00003f0a1006509b100160032000d003500be
:100600006828e10006003500f0ff2f00f1ff270009
:100610000300e00013003b0001002800000005007b
:1006200000004000818048008502e900fcff3a009c
:1006300008003700f88f420002003c008000eb0009
:10064000000005008100d1000080d3008502e80091
:10065000fcff3a000300e00002003b0060001000d5
:10066000e0801800000006006011b8008700370025
:1006700081002000618055000b003d000b00200030
:1006800061fe2f000100e1001d0034008281710035
:10069000610164008904d1000884d3000000e800ef
:1006a000faff3a007100200061006400030070004e
:1006b000020060000900320061044400e0844c0044
:1006c0000988a500050032008b05e8006808e100f4
:1006d00002003a008904d1000884d300f20f200000
:1006e0000258e10005003d00c75ddd00f907b200da
:1006f0008980750008007800000006000bf82700cc
:100700008b00780000000500c70ade00f107b20088
:10071000f50fb20008003200e1cf420002003200c3
:100720000170a00024000500810f7000010032005c
:100730000408050044000500810f700002003a0023
:10074000140005008502e9000000400081c0480057
:10075000fcff3b000170a000240005000004be0067
:10076000e9ff07000003be000405be000200be0052
:10077000e5ff0700844f7500000006000200be0080
:100780006450e100050036006420e10002003600fc
:100790000968a30001003a000800be000160a00043
:1007a0004f0678004f05be004f04be000000060053
:1007b000f0ff2f00f1ff2700f9ff3700889fbe00f0
:1007c0008a9fbe008c1f7800e4ff0700ebff330018
:1007d00003866c006450e100240032006420e100d4
:1007e000270032006150e100220032006120e10068
:1007f000210032008b854200eb07b1000134b800c4
:10080000003ab8000804420089844a00013ab8005e
:100810000030b8008880400009014a00040033001d
:100820000000400081804800020149008b05e9007a
:10083000c909dd00830170000100320013002000af
:10084000c814de004814dd004709de001200b200c3
:10085000c808de000884700085ff070001f0a100d1
:100860000cf0a70001f0a000cdff37006120e100ef
:10087000cfff32000801be000200be00f7ff3700c4
:100880006150e100fcff3a00c9ff3700889fbe00bd
:100890008a9fbe0000827000040271000482710011
:1008a000260032000004be000200be006011b80045
:1008b0006b092000950220000182cf000a00390058
:1008c0000541b1000082cf00070039000541b100a9
:1008d0000982cf00040039000541b1000882cf0031
:1008e000010039000541b1000542520012003200fa
:1008f0000a003b0082817100610164008100d10027
:100900000080d3008984d3000884d3008b05e800dd
:100910000442e800f7ff3a000700370008044400eb
:1009200089844c0000004800818048008b05e90064
:100930000442e900f9ff3a004dff07004f05be00f1
:080940004f04be000000060098
:020000040000fa
:100948000000fa00c762a900c682a90020000700bb
:10095800100007003b0007008d20a9008d40a9006a
:100968008d60a8008560a900a022a800400620008c
:10097800ab000700a022a9000000000021048000ad
:1009880000802000008060000000e000fbff3a00cb
:10099800f5ff37000000fa0070fe2f0040158800b0
:1009a800a022ef00404020001015880030002000f1
:1009b8003015880080012000501588002000200094
:1009c80020158800a1e2a8000080fa0000000600b7
:1009d8000000fa00c0a0a800c4a0a8008de0a800ec
:1009e80085e0a9000080fa00000006000000fa0077
:1009f800d202a90060922000600888000621ef005a
:100a08008221ef008021ef00210c800080ff2f0061
:100a1800008060006000b300200c88008461a90099
:100a28001061a90081088000000320000100700007
:100a3800800888001021a90011e1a8000080fa00b0
:100a4800000006000000fa004427ef0040a7a900b4
:100a58000de2a9000c02a9006110800090ff2f0090
:100a680000806000601088000ca2a900f00020003f
:100a7800a01088000fe2a90071108000f0f32f0089
:100a880000806000701088000de2a8000f42a800e6
:100a98000080fa00000006000c00fa0040079800e9
:100aa80051079800f00f2000000f780030c0b30005
:100ab80020479800c0cfb300304798001e00780048
:100ac800804078004e0090000040780000c0600030
:100ad800404798004e0090004800de0080407800b3
:100ae8001e0078000040780000c060005047980061
:100af8001e007800804078005e009000004078007a
:100b080000c06000604798005e0090004800de006a
:100b1800804078001e0078000040780000c0600027
:100b2800704798002e4090000080fb0080108800dd
:100b3800200320003a0007004e4090000080fb0090
:100b48008010880020032000350007005e409000d8
:100b58000080fb0080108800200320003000070080
:100b68006e4090000080fb00801088002003200069
:100b78002b0007007e4090000080fb00801088005a
:100b880020032000260007003e4090000080fb0064
:100b9800801088000080fa00000006000400fa00b7
:100ba800008fbe009e00900080bb20000088b90026
:100bb800000178001e0078006000b900000078008d
:100bc800000141009e00780080bb20000008b800aa
:100bd8000101410082007800008fbe00008fbe0036
:100be800000000001e0090001e00700000f0a7002a
:100bf8000000ea000000ea004f00de000040780034
:100c08000081eb008081eb001e0f41005e974900d8
:100c18000004e000f3ff3a000080fa00000006003c
:100c28000200fa00000f78001e0078007e00b9006c
:100c3800000078004200de00000f7800000000008d
:100c48001e00780000f0a7000000ea000000ea009b
:100c58004f00de00004078001e0fe9000004e000ad
:0c0c6800f7ff3a000080fa0000000600d0
:020000040000fa
:100c7400000800000a00000000000000000000005e
:020000040000fa
:0200000401f009
:040000000387000072
:020000040000fa
:0200000401f009
:040004003f000000b9
:00000001FF
