:020000040000fa
:080000000002040000000000f2
:020000040000fa
:0400080012030000df
:020000040000fa
:04000c0012030000db
:020000040000fa
:0400100012030000d7
:020000040000fa
:0400140012030000d3
:020000040000fa
:0400180012030000cf
:020000040000fa
:04001c0012030000cb
:020000040000fa
:0400200012030000c7
:020000040000fa
:0400240012030000c3
:020000040000fa
:0400280012030000bf
:020000040000fa
:04002c0012030000bb
:020000040000fa
:0400300012030000b7
:020000040000fa
:0400340012030000b3
:020000040000fa
:0400380012030000af
:020000040000fa
:04003c0012030000ab
:020000040000fa
:0400400012030000a7
:020000040000fa
:0400440012030000a3
:020000040000fa
:04004800120300009f
:020000040000fa
:04004c00120300009b
:020000040000fa
:040050001203000097
:020000040000fa
:040054001203000093
:020000040000fa
:04005800120300008f
:020000040000fa
:04005c00120300008b
:020000040000fa
:040060001203000087
:020000040000fa
:040064001203000083
:020000040000fa
:04006800120300007f
:020000040000fa
:04006c00120300007b
:020000040000fa
:040070001203000077
:020000040000fa
:040074001203000073
:020000040000fa
:04007800120300006f
:020000040000fa
:04007c00120300006b
:020000040000fa
:040080001203000067
:020000040000fa
:040084001203000063
:020000040000fa
:04008800120300005f
:020000040000fa
:04008c00120300005b
:020000040000fa
:040090001203000057
:020000040000fa
:040094001203000053
:020000040000fa
:04009800120300004f
:020000040000fa
:04009c00120300004b
:020000040000fa
:0400a0001203000047
:020000040000fa
:0400a4001203000043
:020000040000fa
:0400a800120300003f
:020000040000fa
:0400ac00120300003b
:020000040000fa
:0400b0001203000037
:020000040000fa
:0400b4001203000033
:020000040000fa
:0400b800120300002f
:020000040000fa
:0400bc00120300002b
:020000040000fa
:0400c0001203000027
:020000040000fa
:0400c4001203000023
:020000040000fa
:0400c800120300001f
:020000040000fa
:0400cc00120300001b
:020000040000fa
:0400d0001203000017
:020000040000fa
:0400d4001203000013
:020000040000fa
:0400d800120300000f
:020000040000fa
:0400dc00120300000b
:020000040000fa
:0400e0001203000007
:020000040000fa
:0400e4001203000003
:020000040000fa
:0400e80012030000ff
:020000040000fa
:0400ec0012030000fb
:020000040000fa
:0400f00012030000f7
:020000040000fa
:0400f40012030000f3
:020000040000fa
:0400f80012030000ef
:020000040000fa
:0400fc0012030000eb
:020000040000fa
:0401000012030000e6
:020000040000fa
:0401040012030000e2
:020000040000fa
:0401080012030000de
:020000040000fa
:04010c0012030000da
:020000040000fa
:0401100012030000d6
:020000040000fa
:0401140012030000d2
:020000040000fa
:0401180012030000ce
:020000040000fa
:04011c00c802000015
:020000040000fa
:0401200012030000c6
:020000040000fa
:0401240012030000c2
:020000040000fa
:0401280012030000be
:020000040000fa
:04012c0012030000ba
:020000040000fa
:0401300012030000b6
:020000040000fa
:0401340012030000b2
:020000040000fa
:0401380012030000ae
:020000040000fa
:04013c0012030000aa
:020000040000fa
:0401400012030000a6
:020000040000fa
:0402080012030000dd
:020000040000fa
:04020c0012030000d9
:020000040000fa
:0402100012030000d5
:020000040000fa
:0402140012030000d1
:020000040000fa
:0402180012030000cd
:020000040000fa
:04021c0012030000c9
:020000040000fa
:0402200012030000c5
:020000040000fa
:0402240012030000c1
:020000040000fa
:0402280012030000bd
:020000040000fa
:04022c0012030000b9
:020000040000fa
:0402300012030000b5
:020000040000fa
:0402340012030000b1
:020000040000fa
:0402380012030000ad
:020000040000fa
:04023c0012030000a9
:020000040000fa
:0402400012030000a5
:020000040000fa
:0402440012030000a1
:020000040000fa
:04024800120300009d
:020000040000fa
:04024c001203000099
:020000040000fa
:040250001203000095
:020000040000fa
:040254001203000091
:020000040000fa
:04025800120300008d
:020000040000fa
:04025c001203000089
:020000040000fa
:040260001203000085
:020000040000fa
:040264001203000081
:020000040000fa
:04026800120300007d
:020000040000fa
:04026c001203000079
:020000040000fa
:040270001203000075
:020000040000fa
:040274001203000071
:020000040000fa
:04027800120300006d
:020000040000fa
:04027c001203000069
:020000040000fa
:040280001203000065
:020000040000fa
:040284001203000061
:020000040000fa
:04028800120300005d
:020000040000fa
:04028c001203000059
:020000040000fa
:040290001203000055
:020000040000fa
:040294001203000051
:020000040000fa
:04029800120300004d
:020000040000fa
:04029c001203000049
:020000040000fa
:0402a0001203000045
:020000040000fa
:0402a4001203000041
:020000040000fa
:0402a800120300003d
:020000040000fa
:0402ac001203000039
:020000040000fa
:0402b0001203000035
:020000040000fa
:0402b4001203000031
:020000040000fa
:0402b800120300002d
:020000040000fa
:0402bc001203000029
:020000040000fa
:0402c0001203000025
:020000040000fa
:0402c4001203000021
:020000040000fa
:0402c800120300001d
:020000040000fa
:0402cc001203000019
:020000040000fa
:0402d0001203000015
:020000040000fa
:0402d4001203000011
:020000040000fa
:0402d800120300000d
:020000040000fa
:0402dc001203000009
:020000040000fa
:0402e0001203000005
:020000040000fa
:0402e4001203000001
:020000040000fa
:0402e80012030000fd
:020000040000fa
:0402ec0012030000f9
:020000040000fa
:0402f00012030000f5
:020000040000fa
:0402f40012030000f1
:020000040000fa
:0402f80012030000ed
:020000040000fa
:0402fc0012030000e9
:020000040000fa
:0403000012030000e4
:020000040000fa
:0403040012030000e0
:020000040000fa
:0403080012030000dc
:020000040000fa
:04030c0012030000d8
:020000040000fa
:0403100012030000d4
:020000040000fa
:0403140012030000d0
:020000040000fa
:0403180012030000cc
:020000040000fa
:04031c00c802000013
:020000040000fa
:0403200012030000c4
:020000040000fa
:0403240012030000c0
:020000040000fa
:0403280012030000bc
:020000040000fa
:04032c0012030000b8
:020000040000fa
:0403300012030000b4
:020000040000fa
:0403340012030000b0
:020000040000fa
:0403380012030000ac
:020000040000fa
:04033c0012030000a8
:020000040000fa
:0403400012030000a4
:020000040000fa
:100400002f8020000e7724000e01880000000000dd
:10041000000020000000e000020032000001200087
:100420002002880014000700800007000000e000a0
:1004300003003a00203c20000100200002003700a9
:100440000000200001002000810f70000100320038
:1004500014000700000020000000e000020032004d
:10046000000002000000000018030200000000006d
:100470000040da000000fe004440a9000000200017
:100480000000e0000300320000002000a00188000e
:100490004440a800000006008a1f78008b1f7800e7
:1004a0000000060091018800800478000000eb0045
:1004b0001a003700e284440032a0b4009905ba0063
:1004c000e284440032a0b4009906ba00e2844400f9
:1004d00032a0b4000006eb00476fde00fd07b2005b
:1004e000636ce10003003a00ebff07000000eb0043
:1004f0000a003700606ce10004003a00005deb0088
:100500008b05e900fdff3e00040037006168e10053
:10051000010032000086eb000b00070019c7ba008b
:100520001905ba000e04e00003003a000a00e000da
:10053000e0ff3a0000000600fe07b2009e018800be
:100540008a047800f5ff3700395dba008b05e900b1
:100550000c003200295dba008b05e900080032006a
:100560000c00e00003003a00e284440032a0b40032
:10057000f5ff370019ddba008b05e900faff3a00f4
:100580008904e800e184440032a0b40000000600c1
:100590003600f800809fbe00829fbe00849fbe0090
:1005a000869fbe000000fa00004080000000e000ce
:1005b00009003a00007c24006e000700007d240042
:1005c0006c000700007e24006a000700007f240002
:1005d0006800070008003700007824006500070065
:1005e0000079240063000700007a240061000700fe
:1005f000007b24005f000700004080000000a20094
:10060000004088008ba0a9000080fa004f03be00c4
:100610004f02be004f01be004f00be003600f90081
:10062000004006000040da000000fe000000050067
:020000040000fa
:100630000000fa0000ff2f006019880001198000f7
:1006400000302000010070000019880001198000ae
:10065000f0f12f00008060000060a0000019880009
:100660002043a8002143a9002063a9002223a90058
:100670002343a80011198000f0cf2f0000806000f4
:100680001019880025e3a900f0c3b30024e3b700e4
:100690004119800000fe2f00008060004019880092
:1006a00028e3a9002603a9003119800090ff2f003c
:1006b00000806000301988002e23ef00f000200039
:1006c000801988000a21ef00703821007008880026
:1006d0008500a9009500a90013e1a800e11d800094
:1006e000f0fc2f00008060000050a000e01d88009a
:1006f000e11d8000c0ff2f00008060000010a000fe
:10070000e01d880000302000201e8800f00120003d
:10071000301e8800d0002000f01d8800007c2000e2
:10072000001e880000782000101e88008ba0a90001
:100730009ba0a800bde3a8002183a9001119800097
:1007400030fc2f0000806000c000b300101988004a
:100750009119800080ff2f00008060003000b300fe
:100760009019880085a0a90095a0a90021e3a80000
:10077000ffff37000200fa00000f78000080fa0047
:04078000000006006f
:020000040000fa
:10078400c047000040000000000000008047000057
:10079400400000000000000000080000020000000b
:0807a40000000000000000004d
:00000001FF
