:020000040000fa
:080000000001040000000000f3
:020000040000fa
:04000800c80100002b
:020000040000fa
:04000c00c801000027
:020000040000fa
:04001000c801000023
:020000040000fa
:04001400c80100001f
:020000040000fa
:04001800c80100001b
:020000040000fa
:04001c00c801000017
:020000040000fa
:04002000c801000013
:020000040000fa
:04002400c80100000f
:020000040000fa
:04002800c80100000b
:020000040000fa
:04002c00c801000007
:020000040000fa
:04003000c801000003
:020000040000fa
:04003400c8010000ff
:020000040000fa
:04003800c8010000fb
:020000040000fa
:04003c00c8010000f7
:020000040000fa
:04004000c8010000f3
:020000040000fa
:04004400c8010000ef
:020000040000fa
:04004800c8010000eb
:020000040000fa
:04004c00c8010000e7
:020000040000fa
:04005000c8010000e3
:020000040000fa
:04005400c8010000df
:020000040000fa
:04005800c8010000db
:020000040000fa
:04005c00c8010000d7
:020000040000fa
:04006000c8010000d3
:020000040000fa
:04006400c8010000cf
:020000040000fa
:04006800c8010000cb
:020000040000fa
:04006c00c8010000c7
:020000040000fa
:04007000c8010000c3
:020000040000fa
:04007400c8010000bf
:020000040000fa
:04007800c8010000bb
:020000040000fa
:04007c00c8010000b7
:020000040000fa
:04008000c8010000b3
:020000040000fa
:04008400c8010000af
:020000040000fa
:04008800c8010000ab
:020000040000fa
:04008c00c8010000a7
:020000040000fa
:04009000c8010000a3
:020000040000fa
:04009400c80100009f
:020000040000fa
:04009800c80100009b
:020000040000fa
:04009c00c801000097
:020000040000fa
:0400a000c801000093
:020000040000fa
:0400a400c80100008f
:020000040000fa
:0400a800c80100008b
:020000040000fa
:0400ac00c801000087
:020000040000fa
:0400b000c801000083
:020000040000fa
:0400b400c80100007f
:020000040000fa
:0400b800c80100007b
:020000040000fa
:0400bc00c801000077
:020000040000fa
:0400c000c801000073
:020000040000fa
:0400c400c80100006f
:020000040000fa
:0400c800c80100006b
:020000040000fa
:0400cc00c801000067
:020000040000fa
:0400d000c801000063
:020000040000fa
:0400d400c80100005f
:020000040000fa
:0400d800c80100005b
:020000040000fa
:04010800c80100002a
:020000040000fa
:04010c00c801000026
:020000040000fa
:04011000c801000022
:020000040000fa
:04011400c80100001e
:020000040000fa
:04011800c80100001a
:020000040000fa
:04011c00c801000016
:020000040000fa
:04012000c801000012
:020000040000fa
:04012400c80100000e
:020000040000fa
:04012800c80100000a
:020000040000fa
:04012c00c801000006
:020000040000fa
:04013000c801000002
:020000040000fa
:04013400c8010000fe
:020000040000fa
:04013800c8010000fa
:020000040000fa
:04013c00c8010000f6
:020000040000fa
:04014000c8010000f2
:020000040000fa
:04014400c8010000ee
:020000040000fa
:04014800c8010000ea
:020000040000fa
:04014c00c8010000e6
:020000040000fa
:04015000c8010000e2
:020000040000fa
:04015400c8010000de
:020000040000fa
:04015800c8010000da
:020000040000fa
:04015c00c8010000d6
:020000040000fa
:04016000c8010000d2
:020000040000fa
:04016400c8010000ce
:020000040000fa
:04016800c8010000ca
:020000040000fa
:04016c00c8010000c6
:020000040000fa
:04017000c8010000c2
:020000040000fa
:04017400c8010000be
:020000040000fa
:04017800c8010000ba
:020000040000fa
:04017c00c8010000b6
:020000040000fa
:04018000c8010000b2
:020000040000fa
:04018400c8010000ae
:020000040000fa
:04018800c8010000aa
:020000040000fa
:04018c00c8010000a6
:020000040000fa
:04019000c8010000a2
:020000040000fa
:04019400c80100009e
:020000040000fa
:04019800c80100009a
:020000040000fa
:04019c00c801000096
:020000040000fa
:0401a000c801000092
:020000040000fa
:0401a400c80100008e
:020000040000fa
:0401a800c80100008a
:020000040000fa
:0401ac00c801000086
:020000040000fa
:0401b000c801000082
:020000040000fa
:0401b400c80100007e
:020000040000fa
:0401b800c80100007a
:020000040000fa
:0401bc00c801000076
:020000040000fa
:0401c000c801000072
:020000040000fa
:0401c400c80100006e
:020000040000fa
:0401c800c80100006a
:020000040000fa
:0401cc00c801000066
:020000040000fa
:0401d000c801000062
:020000040000fa
:0401d400c80100005e
:020000040000fa
:0401d800c80100005a
:020000040000fa
:10020000efa220000eff20000e0188000000000079
:10021000000020000000e000020032000001200089
:100220002002880014000700f10607000000e0002b
:1002300003003a0000822100010020000200370084
:100240000000200001002000810f7000010032003a
:1002500014000700000020000000e000020032004f
:100260000000020000000000101a02000000000060
:100270000040da000000fe004440a900e01f20001a
:100280000000e0000300320000002000a001880010
:100290004440a800000006008a1f78008b1f7800e9
:1002a0000000060091018800800478000000eb0047
:1002b0001a003700e284440032a0b4009905ba0065
:1002c000e284440032a0b4009906ba00e2844400fb
:1002d00032a0b4000006eb00476fde00fd07b2005d
:1002e000636ce10003003a00ebff07000000eb0045
:1002f0000a003700606ce10004003a00005deb008a
:100300008b05e900fdff3e00040037006168e10055
:10031000010032000086eb000b00070019c7ba008d
:100320001905ba000e04e00003003a000a00e000dc
:10033000e0ff3a0000000600fe07b2009e018800c0
:100340008a047800f5ff3700395dba008b05e900b3
:100350000c003200295dba008b05e900080032006c
:100360000c00e00003003a00e284440032a0b40034
:10037000f5ff370019ddba008b05e900faff3a00f6
:100380008904e800e184440032a0b40000000600c3
:100390000040da000000fe000a00fa00e20f500000
:1003a00034003e0060518000e10f50000300320035
:1003b000e20f500011003a000c003700c32020006b
:1003c0000300e00001003a000040da000c02e20005
:1003d000020035001422ef000de2a8000f42ab002e
:1003e0000d003a000f42a8000b00370063212000e7
:1003f0000300e00001003a000040da001602e200cb
:10040000020035001e22ef0017e2a8001942ab00df
:1004100001003a001942a800820178000b00370061
:100420003102fb00e10f500004003a000f22ab0044
:10043000feff3a0084108800030037001922ab0049
:10044000feff3a00d41088008301e9000300e000b9
:10045000f3ff3a00e10f500003003a000f02ab0037
:10046000feff32000b0037001902ab00feff320026
:100470000800370033002000b3bf9f00c0bf9f00bb
:10048000d1bf9f00e2bf9f006a8057005906070056
:100490006fb99700020078000080fa0000000600a3
:1004a000cf80de00d2070700020020000380230077
:1004b0007d080700800178000101780003007800c2
:1004c0008200780000000600889fbe000004be0085
:1004d000050037000000fb008900780012000700cb
:1004e000e10f400004003200384078000004e000d2
:1004f000f8ff3a000000eb004f04be0000000600c9
:10050000881f7800c1a02000efff070000047800da
:10051000c1a02000a0002000030007000800780010
:100520004f04780000000600889fbe000104780098
:10053000b80090008084eb000118a3003a0032005c
:10054000180190000198a30002003a000200e000a8
:1005500035003a000190a000310498008004780032
:10056000f90fb2000200e00002003a0028009000fb
:10057000000c7800ea8f540005003a000178a300cf
:1005800003003a0088007800d0002000e6ff070052
:1005900018009000d8009000810f50000b0032002e
:1005a0000000e8001004980018007800094878005e
:1005b000000ce80011c0b30060a2200001487800e0
:1005c000ea8f540018003a000500370088007800d0
:1005d000094078001e0007008004780012003700f0
:1005e000380090000088a3000f003200180190002e
:1005f000a80090004800900067ff07009800900056
:10060000810f500004003200380090000003b30056
:10061000300498008084eb000000eb001004980088
:1006200028009000000c7800090078004f04be00fc
:10063000000006000000fa0068815700cfb897005c
:10064000c0a02000090107000080fa000000060099
:100650000200fa00889fbe00a0ff9f0001047800fe
:10066000380090000068a30033003a00e200600008
:1006700005003a000003b30030049800110498000c
:100680000080eb002e003700d80490000900e00045
:1006900006003a0012002000e68057004800900053
:1006a0003dff07001904980023003700a8009000c0
:1006b0000100e00008003a0091a220002104980007
:1006c000010c7800210020005104980011049800ca
:1006d0000030a0003004980018019000a80090009d
:1006e000480090002cff0700280090008080eb005d
:1006f00011049800aff8970001487800000ce8005a
:100700002ff89700ea4f50000b003a003800900095
:100710000088a3000800320018019000a800900093
:10072000480090001cff07000000eb001004980038
:10073000a8009000010c7800aff897000100fb00c2
:100740004f04be000080fa00000006000800fa0016
:10075000889fbe008a9fbe000084fb00d1c6b30004
:10076000814f5000340036004b0620001100090074
:100770000b84d80081057800720040004300dd0042
:10078000e98f2000008044006022b80006002000ad
:1007900007fe23005001be004000be004c070700ca
:1007a0000002be000203be0084bf9f0095bf9f00f1
:1007b000a6bf9f00b7bf9f00aa002000110009003c
:1007c0008a85d80080057800e9854500c35ddd0095
:1007d0008b8544003b02be002b03be000fb8970080
:1007e0009fb897002fb99700bfb997003807070047
:1007f0000002be000203be0084bf9f0095bf9f00a1
:10080000a6bf9f00b7bf9f00110009000a84d8004f
:10081000010478004344dd00888444003902be00ae
:100820002903be000fb897009fb897002fb9970013
:10083000bfb997001d003700ea4f50001300360083
:10084000aa002000110009000a84d80001057800e0
:10085000690440004344dd00e98f2000088444001f
:100860006022b8000600200007fe23003800be000a
:100870002801be00160707004355dd008a844400a6
:100880003902be002903be00080037004344dd00e2
:10089000e08f2000080440006022b800060020001d
:1008a00007fe23003800be002801be00080707002d
:1008b0004f05be004f04be000080fa000000060095
:1008c0000800fa00889fbe008a9fbe00d1c6b30010
:1008d0000004e00023003d000040ea000004fb00ab
:1008e000814f50000a003400420620001100090028
:1008f0000204d800a9002000110009008900d800d6
:10090000e9004000c308dd00ea8f20002100370025
:10091000ea4f500010003400a2002000110009002e
:100920000204d80001017800690040004300dd00a6
:10093000e18f2000008040004311dd0082804000f4
:100940003102be002103be005001be004000be00c7
:10095000df060700380037004344dd00e08f200049
:10096000320037000004fb00814f500023003400a8
:1009700042062000110009000204d800a90020004e
:10098000110009008900d800e9004000c308dd001b
:10099000ea842000810045003102be002103be0030
:1009a0008b0920008a8545003b00be002b01be005c
:1009b000c70607000002be000203be0084bf9f00fe
:1009c00095bf9f00a6bf9f00b7bf9f001100090001
:1009d0000904d800010478004344dd0008054500ff
:1009e0003a02be002a03be000fb897009fb89700d6
:1009f0002fb99700bfb99700d5ff3700ea4f5000d5
:100a000008003400a2002000110009000204d800f0
:100a100001017800690040004300dd00e18420000e
:100a2000c4ff37004344dd00e08420000804400098
:100a30003800be002801be004f05be004f04be00b6
:100a40000080fa0000000600d001900002815100f1
:100a50004240a900030034001001780001497800e9
:100a60000208e80001007800000006006f02b000f4
:100a7000889fbe008a9fbe008c9fbe008e1f78009c
:100a800000067800b1af9f0092b79f006000b800e9
:100a90006011b800d0af9f00e1af9f00f2af9f00a0
:100aa00083b79f008006eb00c5043700bfa89700fe
:100ab0008100e800b1af9f0051c2b300814f5000e8
:100ac00003003a00bfa897000007eb0011003700b1
:100ad000bc0090000000fb000168a300070032008a
:100ae0000d017800800078000c007800d6ff070028
:100af0000000e00005003a00b10437008c007800e7
:100b000089fe0700e10f4000ad0432008d06e800c9
:100b1000ab0437000101780031407800d3c2b30044
:100b2000834f50000c00320007003c00edc1510023
:100b3000834f50000a003200ebc14100834f500048
:100b40000d003a000800370003c3b300834f500084
:100b500009003a00060037000e30a000edff370014
:100b60000e00a000ebff37000e10a000e9ff3700d9
:100b70000e20a000e7ff37000e18a300010032008e
:100b80000e00a1000e38a300010032000e20a100cb
:100b90008000fb000103b100e98f50000c003e0013
:100ba000020078008005eb006a59b900b005fb002f
:100bb0000b03b10082854500000178009000fb0026
:100bc0000103b100e98f5000f7ff3600080037003d
:100bd0008005eb00a1c2b300814f500004003a0031
:100be0009fb19700c305780093b79f000201e8000a
:100bf000e0c2b300924f100016003a000ee0a000d1
:100c000064405000d24f1000030032000200780010
:100c10008001eb00080037009fb297004503780081
:100c200095b79f00e6b79f000201e8000c0037006f
:100c30006a19b9008281400000017800b000fb0011
:100c40000103b100e98f5000f9ff3600e3b79f00c0
:100c5000030037000ec0a0008003eb00e7b79f0041
:100c6000820178003340780003017800c1c6b300e8
:100c7000814f50002b003200b3af9f0014003c00a6
:100c8000e8c05000814f50002400320009003c00b1
:100c9000ecc05000814f50002a003200ebc04000f1
:100ca000814f50008c0032000004e0004904320003
:100cb000a200370061c6b300814f50001b00320014
:100cc000e3c04000814f50009c003a001300370001
:100cd00031c7b300814f50001e00320007003c00b6
:100ce000e4c05000814f5000130032008140e80002
:100cf000814f500091003a001200370051c7b300f5
:100d0000814f500092003200e3c04000814f5000fc
:100d10008a003a00e0cf9f000c003700e0cf9f0030
:100d20008d0037000e40a000cdff3700e0cf9f00c0
:100d30000ea0a00088003700e0cf9f000e60a0004a
:100d400085003700e0cf9f000e50a0000e70a0007d
:100d500081003700e0cf9f009fb0970041007800ee
:100d600091b79f00000478000000e00001003a0005
:100d7000089d2000880078000000eb00010037008b
:100d80000000e800614178000204e000fcff3a0046
:100d9000800478006fb197000200e0000300320089
:100da000890f510001003100820478000005eb003a
:100db000898f5500010036000985550068076700d6
:100dc0002a003a00110037003c0090000068a300a0
:100dd000070032000d017800010220000c007800ad
:100de00019ff07000000e00006003a000600370087
:100df0008c00780000022000cbfd0700e10f4000ce
:100e0000010032008d06e8000a05e9000a00e00052
:100e1000edff3a000085eb00140037003c00900025
:100e20000068a3000900320008007800b000fb0051
:100e3000000478000d0178000c00780002ff070024
:100e40000000e00008003a00080037008800780041
:100e50003100fb00010478008c007800b2fd07002f
:100e6000e10f4000010032008d06e8000900780023
:100e70008004e9000000e000e8ff3a000e00e00016
:100e8000cf033200110037003c0090000068a3003f
:100e9000070032000d017800010220000c007800ec
:100ea000e9fe07000000e00006003a0006003700f7
:100eb0008c007800000220009bfd0700e10f40003d
:100ec000010032008d06e8000a05e9000a00e00092
:100ed000edff3a00ba0337009fb197004302780054
:100ee00093b79f00cfa2de00482bdd004820de0034
:100ef00000007300c828de00e0cf9f000e48a3006a
:100f0000080032000004e00006003200e14f40001b
:100f100004003200f0cf9f0084d79f0029002000fa
:100f200002003700f4cf9f0019002000e7fc2f00db
:100f30008f8343000704e80096ff3700e0cf9f004f
:100f4000e8fc2f000f0444001900200091ff370037
:100f5000e0cf9f000e0cb3000170200081006700fd
:100f6000700067000100e000190232000ec8a30003
:100f70000200320061002000e1b79f000000e000a5
:100f8000060032001fb09700680050003002be001b
:100f90002003be0090b79f00060037001fb19700e6
:100fa0004200be0092b79f00c10407000002be00cd
:100fb0000203be00a4b79f00b5b79f00c6b79f004d
:100fc000d7b79f006022b8006033b8002fb09700f9
:100fd000bfb097004fb19700dfb19700060407003c
:100fe0000000e0000a003d002fb09700bfb097005e
:100ff0004fb19700dfb1970003f0a200a0b79f00a8
:10100000b1b79f00c2b79f00d3b79f003e00b300a7
:101010000000eb0090af9f006022b8006033b80082
:101020002fb09700bfb097004fb19700dfb1970086
:10103000550407000000e0003400320024fd2f00ba
:101040000f0242002fb09700bfb097004fb197003a
:10105000dfb19700eb0407001fa897000000e9002c
:101060006302b900a2002000110009000202d800aa
:1010700090af9f000000e00002003d000000e9008a
:1010800090af9f001fac97000840ea000cfe0700dd
:101090002fb29700bfb297004fb39700dfb397000e
:1010a0000b0507000002be000203be00d4af9f0084
:1010b000e5af9f00f6af9f0087b79f006022b800a2
:1010c0000600200007ff2300cb0307000000e0001c
:1010d00002003d000804e9000b0037006022b80060
:1010e00006002000470224005fa89700efa89700a1
:1010f0007fa997008fb19700c40307000000e000ac
:10110000020035000804e80098af9f00efb2970096
:10111000ec8f52000f003c00054078008bfd07006b
:101120000002be000203be002fb09700bfb09700c0
:101130004fb19700dfb19700310307000002be00f6
:101140000203be00a4b79f00b5b79f00c6b79f00bb
:10115000d7b79f001fac9700e90f540015003c0063
:101160006022b8006033b8002fb09700bfb097007e
:101170004fb19700dfb19700030407000000e000c3
:10118000310032002fb09700bfb097004fb19700e9
:10119000dfb1970065040700e00f5000e08f5800b2
:1011a000e00f5900e08f590027003a00e10f54008a
:1011b000250034000400200005002e00b6e02200c7
:1011c000170124005fa89700efa897007fa9970058
:1011d0008fb19700880307000000e00002003d0087
:1011e00069045400010037006804540098af9f0060
:1011f0002fd09700b2fd07000002be000203be0020
:10120000d4af9f00e5af9f00f6af9f0087b79f0068
:101210002fb09700bfb097004fb19700dfb1970094
:101220007f030700410407000004be006000b8000f
:101230006011b800a0b79f00b1b79f00c2b79f0070
:10124000d3b79f00160037002fb09700bfb09700ac
:101250004fb19700dfb19700340407000004be00cf
:10126000660407000002be000203be002fb0970014
:10127000bfb097004fb19700dfb197003e05070060
:101280000002be000203be00a4b79f00b5b79f00d6
:10129000c6b79f00d7b79f000000eb0090af9f003c
:1012a000819d200010c0b30005003700e48040009d
:1012b000b10f5400a18f5c00030039000040e8002a
:1012c000ea4f5000f9ff3a00e0cf9f009fa8970037
:1012d00081805500efb29700858050000005fb002b
:1012e0000a8550000500e000010032000a05e9000f
:1012f00063006700010032000a05e9000e28a30020
:1013000039003200610167000e18a3000f0032009f
:101310003c0090000068a30006003200b1022000eb
:101320000200e000010032008180e8000d01780039
:101330000d003700b00220000200e0000100320082
:101340000080e8008c0078000e0037000200e0000a
:10135000220032003c0090000068a3000700320029
:101360000d017800010220000c007800b6fd070096
:101370000000e00006003a00180037008c007800fa
:101380000002200068fc0700e10f4000130032005b
:101390008d06e800110037003c0090000068a300b3
:1013a000070032000d017800010320000c007800d6
:1013b000a5fd07000000e00006003a000600370027
:1013c0008c0078000003200057fc0700e10f40006c
:1013d000010032008d06e8000a05e9000a00e0007d
:1013e000edff3c00570037000e38a30014003a0010
:1013f000110037003c0090000068a3000700320095
:101400000d017800010220000c0078008efd07001d
:101410000000e00006003a00060037008c0078006b
:101420000002200040fc0700e10f400001003200f4
:101430008d06e8000a05e9000a00e000edff3c0027
:10144000610167000e18a3000e0032003c009000fe
:101450000068a30005003200b10220000200e00095
:10146000220032008180e80020003700b002200016
:101470000200e000010032000080e8008c007800eb
:101480002c0037000200e0002e0032003c009000eb
:101490000068a300030032000d0178000102200063
:1014a000130037008c007800000220002100370074
:1014b0003c019000809d20008100fb000268a30099
:1014c00010003200c208dd00810040001101be00a2
:1014d0000800be00aa040700a200200003002000ac
:1014e000b704070001032000808040000d01780050
:1014f0000c00780054fd07000000e00010003a00e6
:1015000010003700c208dd00810040001101be005c
:101510000800be009a040700a2002000030020007b
:10152000a704070002032000000141008c0078009e
:1015300002007800fcfb0700e10f400001003200d0
:101540008d06e8006fc897008040e900e1cf9f005a
:101550000004e000d6ff3a00130037003c00900082
:101560000068a300070032000d017800010320008d
:101570000c00780034fd07000000e00006003a008f
:10158000060037008c00780000032000e6fb07000f
:10159000e10f4000010032008d06e8001fa897000f
:1015a0000000e90090af9f001fa897000000e00036
:1015b000eaff3c006fb39700e80f530003003400cc
:1015c00080c0b300e0cf9f0002003700cfeb970050
:1015d000e7cf9f006fc897008005fb00efb0970032
:1015e0008b8550000004e000100032003c009000a9
:1015f0000068a300070032000d017800e10220001e
:101600000c00780010fd07000000e00006003a0022
:10161000060037008c007800e0022000c2fb0700c3
:10162000e10f4000010032008d06e8006fc897000e
:10163000a3fc07000002be000203be002fb097000b
:10164000bfb097004fb19700dfb19700a00307002c
:10165000360307002d0037003c019000819d2000db
:101660000000fb000268a300100032004200dd0011
:10167000808040001101be000800be004004070049
:10168000a2002000030020004d04070001032000f9
:10169000808040000d0178000c007800eafc070013
:1016a0000000e00010003a00100037004200dd00aa
:1016b000808040001101be000800be003004070019
:1016c000a2002000030020003d04070002032000c8
:1016d000000141008c0078000200780092fb0700b6
:1016e000e10f4000010032008d06e8006fc997004d
:1016f0000200fb004200dd00819d200000804000d0
:101700001001be000800be002d0407000004be004a
:10171000efc897000140e900e0cf9f000104e0001e
:10172000cdff3a00110037003c0090000068a30094
:10173000070032000d017800010320000c00780042
:10174000c1fc07000000e00006003a000600370078
:101750008c0078000003200073fb0700e10f4000bd
:10176000010032008d06e8008b05e9000b00e00067
:10177000edff3a000e38a300910132000a00e000ac
:101780008f0134003c0090000068a3000700320085
:101790000d017800010220000c007800aafc07006f
:1017a0000000e00006003a00060037008c007800d8
:1017b000000220005cfb0700e10f40000100320046
:1017c0008d06e8000a05e900eeff3a007c013700cb
:1017d0008e007800010cb20011003a000000e00019
:1017e000040032009fb197004304be0093b79f00ee
:1017f000040037001fb297004404780094b79f009c
:10180000cfc4de00e00f5400e08f5c000e003d000e
:101810003e00b30060041400e0841c000a0037009e
:101820000000e000040032009fb297004504be00b3
:1018300095b79f00040037001fb397004604780057
:1018400096b79f008004eb00efb397000700e0001d
:1018500006003a000880740000f0a7000000ea00cb
:101860000000e9004f00de00e0b79f000e007800a6
:10187000000cb200c0af9f0000042000cfa897006a
:10188000808f50002300320003003c000100e00084
:10189000080032002d003700000820004fa99700f3
:1018a000800f51000d003200000c2000800f51000d
:1018b00026003a00819d200010c0b300e480400063
:1018c000b10f5400a18f5c001f0039000040e800f8
:1018d000ea4f5000f9ff3a001b00370010c0b30078
:1018e0000201200003002000820f5400838f5c005f
:1018f00015003900441add00cc11de0083017200ae
:101900004411dd000040e800e84f5000f6ff3a00c7
:101910000d00370010c0b30082002000030020003b
:10192000820f5400838f5c0007003900c31add006a
:10193000cd11de00838172004311dd000040e8001c
:10194000eb4f5000f6ff3a00e0cf9f006fcb9700bf
:101950000600fb00efb39700870f500002003d0028
:10196000e7cf9f0004003700efb09700808f500052
:1019700001003d00e0b79f000b00e00003003200d3
:1019800063006700010032008b05e9000ee8a30048
:10199000060032006fb19700828f550002003400bc
:1019a00082855500010037008005eb00efc99700e4
:1019b0000300fb000002eb00a4b79f00808f5500de
:1019c0000200340000805500a0b79f000e28a3003d
:1019d0003c003200610167000e18a3000f003200c6
:1019e0003c0090000068a30006003200b102200015
:1019f0000200e000010032008180e8000d01780063
:101a00000d003700b00220000200e00001003200ab
:101a10000080e8008c0078000e0037000200e00033
:101a2000100032003c0090000068a3000700320064
:101a30000d017800010220000c00780002fc070074
:101a40000000e00006003a00060037008c00780035
:101a500000022000b4fa0700e10f4000010032004c
:101a60008d06e800afb297000500e000520032009a
:101a7000050578003c0090000068a30007003200d4
:101a80000d017800010320000c007800eefb070038
:101a90000000e00006003a00060037008c007800e5
:101aa00000032000a0fa0700e10f4000010032000f
:101ab0008d06e8000a05e900eeff3a00aab79f008c
:101ac0003d0037002fb397000600e00016003200fb
:101ad0000e38a30014003a00060578003c00900080
:101ae0000068a300070032000d0178000102200009
:101af0000c007800d4fb07000000e00006003a006c
:101b0000060037008c0078000002200086fa0700eb
:101b1000e10f4000010032008d06e8000a05e900ef
:101b2000eeff3a00aab79f00610167000e18a300fc
:101b30000f0032003c0090000068a3000600320055
:101b4000b10220000200e000010032008180e800c4
:101b50000d0178000d003700b00220000200e00007
:101b6000010032000080e8008c0078000e00370091
:101b70000200e000100032003c0090000068a3006a
:101b8000070032000d017800010220000c007800ef
:101b9000adfb07000000e00006003a000600370039
:101ba0008c007800000220005ffa0700e10f40007f
:101bb000010032008d06e800efb397000702e9004c
:101bc0006320b90000017800a2af9f004222dd002f
:101bd000809d20000002420004057800cfad9700f0
:101be0005c003700efb197008301e900e3b79f0085
:101bf00000042000808f55003700320003003c00b5
:101c00000b00e000070032003d0037000008200014
:101c1000808f550020003200000c2000808f55007e
:101c200037003a000e48a300100032001a02be002e
:101c30000401be000800be00f4b79f0085bf9f00ee
:101c4000cf020700e0cf9f000000fb00cf80de0046
:101c50007fb297008fba97000401be00db02070035
:101c60000004540081845c00070037001a017800ea
:101c7000110009000284d800a20020001100090010
:101c80000280d800e1cf9f006fca97000443b000e4
:101c9000e4cf9f001a003700f09b20000e58a300ed
:101ca00001003200e09a2000819d20008100550053
:101cb0000801be008100e900030033008301d10068
:101cc0000281d300fbff37006f01610060417900a2
:101cd000e2cf9f000a0037000800be00afaa9700bd
:101ce0008502e900030033008100d1000080d300a9
:101cf000fbff3700674060000043b000e0cf9f006b
:101d0000bc0090006fcb97000600fb000168a300a9
:101d1000070032000d017800800078000c00780088
:101d200049fb07000000e00005003a00050037000d
:101d30008c007800fcf90700e10f40000100320040
:101d40008d06e800afab9700e3835300a7af9f0079
:101d5000640555006fb097000000e000a1ff3a0055
:101d60000e38a30016003200afb097000100e0006b
:101d700013003400010578003c0090000068a300c7
:101d8000070032000d017800010220000c007800ed
:101d90002dfb07000000e00006003a0006003700b7
:101da0008c00780000022000dff90700e10f4000fe
:101db000010032008d06e8000a05e900eeff3a0056
:101dc0003fa9970012407800e0cf9f000004e00098
:101dd00036fb3a000d0078004f0778004f06be0032
:101de0004f05be004f04be006f02b10000000600a8
:101df0000000050000c0da0000000600000000003e
:101e00002800fa00889fbe008a9fbe008c9fbe00fb
:101e100007067800878669000c003b000304780001
:101e20008704780008f0a10009f0a100840f500099
:101e3000858f5800860f5900890f5c00030033001e
:101e40000cf0a20001003a000cf0a100ff00070016
:101e50006400e1005f003200780147006408e1009f
:101e6000610032006c014700748557003200be00eb
:101e70001201be003a04be001a05be001e03900007
:101e8000be0a90008503530006003d000004fd00db
:101e90008104fd000205fd008305fd008703ea00c3
:101ea000050378000df8a30004003200600414005c
:101eb000e0841c0060051d00e0851d006022b80064
:101ec0007d0320000d38e1008006eb000b00390097
:101ed0004433dd00f300b2008301730039003700a2
:101ee000848272000d027800e10664008b85d100c7
:101ef0000a85d3008984d3000884d3008703e900ce
:101f0000f7ff3b0008004000898048000a014900b3
:101f10008b81490004003b0060001000e080180045
:101f200060011900e08119000358a3000900320084
:101f30008d82720084827200610260008301d10090
:101f40000281d3008180d3000080d3000603e80023
:101f50001b0037000348a30017003a000600e0000a
:101f6000170034000603e9000d00a300000048003c
:101f70008180480002014900838149000348a30091
:101f80000f003a000600e000090034000603e900f3
:101f9000000040008180480002014900838149001f
:101fa00001003a000003eb000348a300f5ff3200f4
:101fb0006022b800020037008482720061826600ed
:101fc0007600070003f0a1000cf0a70003f0a000ca
:101fd000b2003700640147006408e10002003a00e3
:101fe0000df8a300aa003a003200be001201be00a4
:101ff000aa003700000000008f1fd100f901070080
:102000008f87e9000000e00000000600809feb00e1
:10201000f40107008f87e9000000e00000000600df
:102020002800fa00889fbe008a9fbe008c9fbe00d9
:1020300003866b00850007006400e1004400320065
:102040006408e1004a0032006100e100460032000d
:102050006108e10049003200ec0647006000b8006a
:102060003d02be003d03be00f48657006011b8007b
:102070003d04be003d05be007d0320000b0037007f
:102080000000a0008d06e9001300320004024200a7
:1020900085824a0006034b0087834b000000400006
:1020a00081804800020149008381490008025200f2
:1020b00089825a000a035b008b835b00f0ff3b00c0
:1020c0000802420089824a000a034b008b834b00be
:1020d0008d06e900edff3a0084827200868272006c
:1020e000f707b2008782720001003200150020005d
:1020f0001e0490003e0b900006035400e63fb00023
:102100000368a300070032000000a7000500a0003c
:102110008301d1000281d3008180d3000080d300ed
:102120000603e8008301d1000281d3008180d3003f
:102130000080d3000002eb000482d20017000700e9
:1021400003f0a1000cf0a70003f0a000530037003b
:10215000640247006408e1004d0032003400be0014
:102160003401be00f6ff37006108e100480032008c
:102170006011b8006000b800f1ff370003ff2700ce
:1021800002002000fbff3700801feb0095010700d5
:102190008f87e9000000e000000006001800200022
:1021a00057002000080453000d003d0006002000e9
:1021b00097fc2f000740e1001e003400848272006b
:1021c000610260008301d1000281d3008180d300cd
:1021d0000080d3000804e800f8ff3a004700200020
:1021e0006104600005047400040464000d00320002
:1021f00061004000e080480060014900e081490042
:1022000003b8a500070032000603e8006538e100c6
:1022100004003a008301d1000281d3008180d30001
:102220000080d300f87f20000830e1000300350073
:10223000080378006000b8006011b8004433dd0086
:10224000f300b20083017300000006006804470039
:102250000294be000094be00fc0447008694be00b9
:102260008494be0009007800a701070008007800e8
:10227000a501070099007800814f70000b003b001a
:102280000800be00800107004f00b10003003700c6
:10229000f3ff2700f2ff2f006110b9004f06be00c8
:1022a0004f05be004f04be000080fa00000006008b
:1022b00081037800700007000001be006000b800d4
:1022c0000478a30013003a006220e10015003e00ec
:1022d0000d0039008301d1000281d3008180d30039
:1022e0008301d1000281d3008180d3008301d1001a
:1022f0000281d3008180d3000538b000c42add00fc
:10230000f300b2008381720007f0a70003f0a00081
:1023100000000600f3ff2700f2ff2f006110b90054
:10232000fbff370003ff2700f7ff37001400fa0018
:10233000889fbe008a9fbe008c9fbe000004be0026
:102340000205be00680047000a90be000890be006b
:102350006d0107000070a7000bf0a1000bf8a300af
:1023600020003a009e0990000e099000fe009000a7
:102370006e0090009e029000344320008482520040
:10238000c6ff32000a003c00b4fc2f000428e10024
:10239000140034008301d1000281d3008180d30076
:1023a0000080d3008502e800faff3a00bbff370047
:1023b000b40020000428e10007003c0000004000b9
:1023c0008180480002014900838149008502e900bb
:1023d000faff3a00b1ff3700030028000200200096
:1023e000010037006011b8006000b800abff370093
:1023f0004f89de00820178006a0137006011b80061
:10240000780137001400fa00889fbe008a9fbe0042
:102410008c9fbe00040678000004be000205be00ca
:10242000680047000a90be000890be003601070011
:102430006200e1000800be000a01be0004002000a6
:102440000b003a001e029000e43fb1006e009000c5
:10245000fe0090000e0990009e099000f300b2006b
:1024600005fe2300858171000bf0a70003f0a0009a
:10247000040e780089ff3700c70ade00f107b200ba
:10248000f50fb20008003200e1cf42000200320036
:102490000170a00024000500810f700001003200cf
:1024a0000408050044000500810f700002003a0096
:1024b000140005008502e9000000400081c04800ca
:1024c000fcff3b000170a00024000500000000009c
:1024d0002800fa00889fbe008a9fbe008c9fbe0025
:1024e00003866b0059ff07000028a30064003a0030
:1024f0000128a30067003a000008a30062003a0028
:102500000108a30065003a001e009000be0890007c
:1025100081064000ed3fb100f4805700ee019000cd
:10252000111ab8008e099000311bb8009e09900066
:10253000311cb800511db800f48557004600070053
:10254000fe0190003a0007008b85e8003e0007007e
:102550008e09900040000700ee0190003400070053
:102560008b85e800380007008e09900040000700c6
:102570009e0990001b18b800890440000a85480095
:10258000fe019000340007008b85e800380007004a
:10259000ee019000300007008e0990001b18b80073
:1025a000890440000a8548000a98a30008003a0000
:1025b0000402420085824a0006034b0087834b00d9
:1025c00008044c0089844c000a054d008d06e90082
:1025d00084827200850273004c3add00850272002d
:1025e0000100320015002000443ade001400b20061
:1025f0004538de00cb45dd000b007000c540de0035
:10260000cb4ddd008b8070004549de00cb55dd00f1
:102610000b017100c551de000d037800dffe0700dd
:1026200003f0a1000cf0a70003f0a0001bff37008f
:102630001b18b8008502400006834800e0834b0069
:1026400060044c00070037001b18b8000603400068
:1026500087834800faff37001b18b8008703400043
:1026600008844800e0844c0060054d00000006002e
:102670001b18b8000804400089844800faff37009e
:102680000108a30002ff3a005800be005801be0036
:10269000e3ff37000008a300fdfe3a0009047800bc
:1026a000f9ff370000000000889fbe008a9fbe002f
:1026b0008c1f78004b0107005201330003866c0029
:1026c0006450e100240032006420e1002700320061
:1026d0006150e100220032006120e100210032005f
:1026e0008b854200eb07b1000134b800003ab80016
:1026f0000804420089844a00013ab8000030b8005a
:102700008880400009014a000400330000004000b6
:1027100081804800020149008b05e900c909dd00fc
:10272000830170000100320013002000c814de0095
:102730004814dd004709de001200b200c808de00c0
:10274000088470000101070001f0a1000cf0a7004f
:1027500001f0a000340137006120e10036013200b1
:102760000801be000200be00f7ff37006150e10023
:10277000fcff3a003001370007f0a200a0fd37004f
:102780006022b800060220000000d0008180d20044
:102790000482d2008582d2000000a0000202520012
:1027a00083825a00030031000202420083824a0001
:1027b0000000a1000603e900f3ff3a000000060054
:1027c000efff07000400be0000000600020ab90087
:1027d000001bb9000200b8008100420081004300e4
:1027e00000000600889fbe008a9fbe008c9fbe002e
:1027f0000404be000605be00809fbe00829fbe008e
:102800002f000700040678000800be000a01be0081
:102810002b000700840678004f03be004f02be0065
:102820008d4f76007fb0970013003300f0ff2f002c
:102830008b8f6b0006003b000d0666000c00a700a6
:102840000a00370007f0a600100020000a00370039
:10285000880f5200898f5a008a0f5b008b8f5b00b4
:10286000030039001000200001003e00000020009d
:1028700007f0a7000000ea004f06be004f05be00ab
:102880004f04be0000000600e48240001078a30060
:1028900007003200640240001178a3003400be003b
:1028a0001401be00040032000330a700000006003f
:1028b0003500be001501be000330a0000000060078
:1028c00005ff270005826100070032000428e100af
:1028d00001003200240005000600070001003a0054
:1028e000440005000408050002000700f9ff3a0053
:1028f000140005006f826100810270008502710082
:102900008502720000000600800078005002be00c0
:102910005003be004439de00f700b200f37f200010
:1029200003016100090032000218e10016003a00bc
:102930008501720083017300838173000008200009
:1029400015003a0040002000130037008501720096
:10295000830173008381730005003a0004a8be0060
:1029600006a8be00100020000b0037000201e9009d
:102970000402420085824a0006034b0087834b0015
:102980000748a300f9ff32000740a00004a8be00da
:1029900006a8be0020002000800098009200980049
:1029a00000000600881f7800030478000300e000a0
:1029b00007003d0060001000e08018006001190071
:1029c000e081190002003b0001f02d0003003700f8
:1029d0002f00070008f0a70001f0a0004f047800c6
:1029e00000000600889fbe00008270000402710093
:1029f000048271002400320036432000c50020000c
:102a00008383cf000a0039000541b1008283cf00e3
:102a1000070039000541b1008183cf00040039006f
:102a20000541b1008083cf00010039000541b100ac
:102a300085c353006022b800120032000a003b0038
:102a400084827200610260008301d1000281d300a0
:102a50008180d3000080d3000603e8008743e800ac
:102a6000f7ff3a000700370000004000818048006f
:102a700002014900838149000603e9008743e90018
:102a8000f9ff3a00c5fd07004f04be000000060034
:102a9000889fbe008a9fbe00008270000402710001
:102aa00004827100260032000004be000200be0055
:102ab0006011b8006b092000950220000182cf0050
:102ac0000a0039000541b1000082cf00070039003b
:102ad0000541b1000982cf00040039000541b10071
:102ae0000882cf00010039000541b10005425200c3
:102af000120032000a003b00828171006101640013
:102b00008100d1000080d3008984d3000884d300e1
:102b10008b05e8000442e800f7ff3a0007003700a1
:102b20000804440089844c0000004800818048006b
:102b30008b05e9000442e900f9ff3a0003000700b1
:102b40004f05be004f04be000000060081002000bb
:102b5000618055000b003d000b00200061fe2f003e
:102b60000100e1001d0034008281710061016400f8
:102b70008904d1000884d3000000e800faff3a007d
:102b8000710020006100640003007000020060001a
:102b90000900320061044400e0844c000988a5006b
:102ba000050032008b05e8006808e10002003a00e9
:102bb0008904d1000884d300f20f20000258e100fc
:102bc00005003d00c75ddd00f907b2008980750092
:102bd00008007800000006000bf827008b00780042
:102be000000005000004be0023fe07000003be0035
:102bf0000405be000200be001ffe0700844f7500e2
:102c0000000006000200be006450e100050036002e
:102c10006420e100020036000968a30001003a00c8
:102c20000800be000160a0004f0678004f05be00fe
:102c30004f04be0000000600f0ff2f00f1ff270048
:042c4000f9ff370061
:020000040000fa
:102c4400666f0000726d0000617400006561000031
:102c5400646f000072650000733a00002068000091
:102c640074740000707300003a2f00002f65000098
:102c7400732e00006370000070720000656600002f
:102c840065720000656e0000636500002e6300003d
:102c94006f6d00002f7700002f630000707000003c
:102ca4002f6900006f2f0000632f00007072000076
:102cb400696e0000746600005f6600006f720000b9
:102cc4006d610000740000000a0a00000909000098
:102cd400092000002f2f00002f4800006f6c000017
:102ce4006120000046720000616e0000636900000c
:102cf400736300006f2c0000206d0000616e000003
:102d0400656a00006f200000646500002070000008
:102d1400756e000074650000726f0000732000007f
:102d2400736900006e200000444d00004120000043
:102d3400636f00006e200000445300005020000028
:102d4400656e000020440000737000006963000099
:102d5400333000006634000030310000332f0000af
:102d64002f2f00000d0a000000250000660000005f
:102d74006c6100002064000069720000656300005b
:102d8400636900006f6e000020640000652000008d
:102d94006d6500006d6f0000726900006120000025
:102da4006465000020270000612700002065000002
:102db400733a000020250000702000000a00000083
:102dc4007920000073750000206300006f6e00001e
:102dd400746500006e690000646f000020650000e7
:102de400732000003a20000025630000200a000040
:102df400006c00006120000064690000726500003e
:102e040063630000696f00006e20000064650000c9
:102e1400206d0000656d00006f72000069610000a4
:102e24002064000065200000276300005b30000080
:102e34005d27000020650000733a00002025000093
:102e4400702000000a000000792000007375000063
:102e5400206300006f6e0000746500006e6900005e
:102e6400646f00002065000073200000635b0000b5
:102e7400305d00003d3a0000202500006420000081
:102e84000a0000006c610000206400006972000008
:102e940065630000636900006f6e00002064000039
:102ea400652000006d6500006d6f00007269000010
:102eb400612000006465000020270000635b0000bf
:102ec400315d000027200000657300003a200000f7
:102ed40025700000200a0000007900002073000023
:102ee40075200000636f00006e740000656e0000c2
:102ef400696400006f200000657300002063000017
:102f04005b3100005d3d00003a20000025640000b4
:102f1400200a0000006c00006120000064690000c9
:102f24007265000063630000696f00006e2000009a
:102f340064650000206d0000656d00006f72000084
:102f4400696100002064000065200000276400001f
:102f54005b3000005d27000020650000733a00002c
:102f640020250000702000000a00000079200000e5
:102f740073750000206300006f6e0000746500002c
:102f84006e690000646f000020650000732000007b
:102f9400645b0000305d00003d3a00002025000025
:102fa400662000000a0000006c610000206400003c
:102fb4006972000065630000636900006f6e0000c1
:102fc40020640000652000006d6500006d6f000046
:102fd4007269000061200000646500002027000081
:102fe400645b0000315d0000272000006573000071
:102ff4003a20000025700000200a0000007900003b
:103004002073000075200000636f00006e740000e0
:10301400656e0000696400006f20000065730000a5
:10302400206400005b3100005d3d00003a20000098
:0c30340025660000200a000000000000db
:020000040000fa
:103040002808000026000000000000000008000022
:103050002800000002000000010002000003000040
:103060000400050000060000070008000001000041
:103070000200030000040000050006000007000035
:103080000800ff00ff9919006626000000000000fc
:10309000000a00002600000002000000270a0000cd
:1030a00000270a000900000000020000290a0000b1
:1030b00000290a000e0201000000000000000000cc
:1030c000000000000602020000000000000a0000ec
:1030d000260a00000600000000000000ae09000003
:1030e000520000000200000030313200333435005d
:1030f000363738003941420043444500460030002d
:1031000031323300343536003738390061626300bc
:103110006465660000286e00756c6c002900000074
:1031200001000000000a0000000064000000000030
:10313000e8030000001027000000a0008601000046
:1031400040420f000080960098000000e1f5050065
:1031500000ca9a003b0000004e0800006001000019
:10316000020000000000000000000000f03f00002e
:1031700000000000000024004000000000000000eb
:103180000059400000000000000040008f40000097
:10319000000000000088c3004000000000000000a4
:1031a0006af8400000000000008084002e4100000a
:1031b00000000000d0126300410000000000840005
:1031c000d7974100000000000065cd00cd41000010
:1031d000000020005fa0020042408c00b5781d0076
:1031e000af154400ea8ca00039593e002946a500dd
:1031f0005cc3f10029633d00489a64007ec50e005f
:103200001b514a0044f3c200e4e4e900634c3d0072
:10321000c7ddd600ba2e77004e5ffb00f051ef00fd
:10322000fc8a5000c7592900090f6b009f527d008e
:10323000c3942500ad49b200545a6200d7d7180094
:10324000e77469009c750000883ce400377e00004c
:10325000000000000000f0003f9a99009999990041
:1032600099b93f007b14ae0047e17a00843ffc002f
:10327000a9f1d2004d6250003f2d43001cebe2004b
:10328000361a3f00f168e30088b5f800e43e8d008f
:10329000edb5a000f7c6b0003e48af00bc9af20002
:1032a000d77a3e003a8c3000e28e7900453e950098
:1032b000d626e8000b2e11003ebbbd00d7d9df009b
:1032c0007cdb3d00234292000ca19c00c73ba00088
:1032d000c2ebfe004b48b400399c5700772726000c
:1032e0006ca137001fb8d4004a7aee008d35260055
:1032f000a6acaa0004b67900339d35008f1de90005
:103300001566310023614d0017acf800522f6f0095
:103310000e998400d94b40002d3005008ee42e001c
:10332000ff2b2b00acf74e0015927e00681659005b
:10333000f3f8c2001f6ea500010000002c0a000077
:103340000200000002000000010000000000000078
:020000040000fa
:103350000400fa00008fbe009e00900080bb200099
:103360000088b900000178001e0078006000b900f4
:1033700000007800000141009e00780080bb200022
:103380000008b8000101410082007800008fbe00f3
:10339000008fbe00000000001e0090001e007000a4
:1033a00000f0a7000000ea000000ea004f00de0085
:1033b000004078000081eb008081eb001e0f41008f
:1033c0005e9749000004e000f3ff3a000080fa0035
:1033d000000006000200fa00000f78001e007800ce
:1033e0007e00b900000078004200de00000f780087
:1033f000000000001e00780000f0a7000000ea00b6
:103400000000ea004f00de00004078001e0fe900d7
:103410000004e000f7ff3a000080fa000000060018
:103420000000fa0020622900801f780081f4070064
:103430008f87e9006066290031f4070000822000d0
:103440001000780016f40700809fbe00706b290002
:10345000801f780077f40700e687570080c6b30026
:1034600046e8b7004042800081c6b30001487800ba
:1034700060842000801f7800a06b2900801f7800e6
:103480006cf40700e4875700608420004042880005
:1034900060842000801f7800a06b2900801f7800c6
:1034a00064f40700e4875700404280001040780031
:1034b0000000fb00801f7800206e2900801f78002c
:1034c0005cf40700e4875700008120005042880028
:1034d00050428000801f7800b06f2900801f780064
:1034e00054f40700e4875700504280001000780031
:1034f000801f780060722900801f78004df407005b
:10350000e4875700504280000080e8005042880065
:1035100050428000801f780040742900801f78008e
:1035200044f40700e4875700504280001000780000
:10353000801f7800f0762900801f78003df4070096
:10354000e48757000082200060428800008220004b
:103550006042880060428000801f7800d078290097
:10356000801f780033f40700e48757006042800032
:1035700010007800caf30700809fbe00807b2900fe
:10358000801f78002bf40700e68757006042800018
:103590000080e8006042880060428000801f780060
:1035a000607d2900801f780022f40700e48757001f
:1035b0006042800010007800b9f30700809fbe00d1
:1035c00010802900801f78001af40700e687570052
:0435d000ffff3700c2
:020000040000fa
:0200000401f009
:04000000078700006e
:020000040000fa
:0200000401f009
:040004003f000000b9
:020000040000fa
:0200000401f009
:04000800b0870000bd
:020000040000fa
:0200000401f009
:04001400ffff0000ea
:00000001FF
