:020000040000fa
:080000000001040000000000f3
:020000040000fa
:04000800c80100002b
:020000040000fa
:04000c00c801000027
:020000040000fa
:04001000c801000023
:020000040000fa
:04001400c80100001f
:020000040000fa
:04001800c80100001b
:020000040000fa
:04001c00c801000017
:020000040000fa
:04002000c801000013
:020000040000fa
:04002400c80100000f
:020000040000fa
:04002800c80100000b
:020000040000fa
:04002c00c801000007
:020000040000fa
:04003000c801000003
:020000040000fa
:04003400c8010000ff
:020000040000fa
:04003800c8010000fb
:020000040000fa
:04003c00c8010000f7
:020000040000fa
:04004000c8010000f3
:020000040000fa
:04004400c8010000ef
:020000040000fa
:04004800c8010000eb
:020000040000fa
:04004c00c8010000e7
:020000040000fa
:04005000c8010000e3
:020000040000fa
:04005400c8010000df
:020000040000fa
:04005800c8010000db
:020000040000fa
:04005c00c8010000d7
:020000040000fa
:04006000c8010000d3
:020000040000fa
:04006400c8010000cf
:020000040000fa
:04006800c8010000cb
:020000040000fa
:04006c00c8010000c7
:020000040000fa
:04007000c8010000c3
:020000040000fa
:04007400c8010000bf
:020000040000fa
:04007800c8010000bb
:020000040000fa
:04007c00c8010000b7
:020000040000fa
:04008000c8010000b3
:020000040000fa
:04008400c8010000af
:020000040000fa
:04008800c8010000ab
:020000040000fa
:04008c00c8010000a7
:020000040000fa
:04009000c8010000a3
:020000040000fa
:04009400c80100009f
:020000040000fa
:04009800c80100009b
:020000040000fa
:04009c00c801000097
:020000040000fa
:0400a000c801000093
:020000040000fa
:0400a400c80100008f
:020000040000fa
:0400a800c80100008b
:020000040000fa
:0400ac00c801000087
:020000040000fa
:0400b000c801000083
:020000040000fa
:0400b400c80100007f
:020000040000fa
:0400b800c80100007b
:020000040000fa
:0400bc00c801000077
:020000040000fa
:0400c000c801000073
:020000040000fa
:0400c400c80100006f
:020000040000fa
:0400c800c80100006b
:020000040000fa
:0400cc00c801000067
:020000040000fa
:0400d000c801000063
:020000040000fa
:0400d400c80100005f
:020000040000fa
:0400d800c80100005b
:020000040000fa
:04010800c80100002a
:020000040000fa
:04010c00c801000026
:020000040000fa
:04011000c801000022
:020000040000fa
:04011400c80100001e
:020000040000fa
:04011800c80100001a
:020000040000fa
:04011c00c801000016
:020000040000fa
:04012000c801000012
:020000040000fa
:04012400c80100000e
:020000040000fa
:04012800c80100000a
:020000040000fa
:04012c00c801000006
:020000040000fa
:04013000c801000002
:020000040000fa
:04013400c8010000fe
:020000040000fa
:04013800c8010000fa
:020000040000fa
:04013c00c8010000f6
:020000040000fa
:04014000c8010000f2
:020000040000fa
:04014400c8010000ee
:020000040000fa
:04014800c8010000ea
:020000040000fa
:04014c00c8010000e6
:020000040000fa
:04015000c8010000e2
:020000040000fa
:04015400c8010000de
:020000040000fa
:04015800c8010000da
:020000040000fa
:04015c00c8010000d6
:020000040000fa
:04016000c8010000d2
:020000040000fa
:04016400c8010000ce
:020000040000fa
:04016800c8010000ca
:020000040000fa
:04016c00c8010000c6
:020000040000fa
:04017000c8010000c2
:020000040000fa
:04017400c8010000be
:020000040000fa
:04017800c8010000ba
:020000040000fa
:04017c00c8010000b6
:020000040000fa
:04018000c8010000b2
:020000040000fa
:04018400c8010000ae
:020000040000fa
:04018800c8010000aa
:020000040000fa
:04018c00c8010000a6
:020000040000fa
:04019000c8010000a2
:020000040000fa
:04019400c80100009e
:020000040000fa
:04019800c80100009a
:020000040000fa
:04019c00c801000096
:020000040000fa
:0401a000c801000092
:020000040000fa
:0401a400c80100008e
:020000040000fa
:0401a800c80100008a
:020000040000fa
:0401ac00c801000086
:020000040000fa
:0401b000c801000082
:020000040000fa
:0401b400c80100007e
:020000040000fa
:0401b800c80100007a
:020000040000fa
:0401bc00c801000076
:020000040000fa
:0401c000c801000072
:020000040000fa
:0401c400c80100006e
:020000040000fa
:0401c800c80100006a
:020000040000fa
:0401cc00c801000066
:020000040000fa
:0401d000c801000062
:020000040000fa
:0401d400c80100005e
:020000040000fa
:0401d800c80100005a
:020000040000fa
:100200002f8020000eff20000e018800000000005b
:10021000000020000000e000020032000001200089
:1002200020028800140007005b0007000000e000c7
:1002300003003a00a03b200001002000020037002c
:100240000000200001002000810f7000010032003a
:1002500014000700000020000000e000020032004f
:100260000000020000000000ce01020000000000bb
:100270000040da000000fe004440a9000000200019
:100280000000e0000300320000002000a001880010
:100290004440a800000006008a1f78008b1f7800e9
:1002a0000000060091018800800478000000eb0047
:1002b0001a003700e284440032a0b4009905ba0065
:1002c000e284440032a0b4009906ba00e2844400fb
:1002d00032a0b4000006eb00476fde00fd07b2005d
:1002e000636ce10003003a00ebff07000000eb0045
:1002f0000a003700606ce10004003a00005deb008a
:100300008b05e900fdff3e00040037006168e10055
:10031000010032000086eb000b00070019c7ba008d
:100320001905ba000e04e00003003a000a00e000dc
:10033000e0ff3a0000000600fe07b2009e018800c0
:100340008a047800f5ff3700395dba008b05e900b3
:100350000c003200295dba008b05e900080032006c
:100360000c00e00003003a00e284440032a0b40034
:10037000f5ff370019ddba008b05e900faff3a00f6
:100380008904e800e184440032a0b40000000600c3
:0c0390000040da000000fe000000050044
:020000040000fa
:10039c000400fa000000eb00100798007000070042
:1003ac00a000070000e22400000c880000e22400fa
:1003bc00300c88008c21ef009221ef000000eb0044
:1003cc00000f7800000000002104800000202000b5
:1003dc00008060000000e000fbff3200a700070077
:1003ec0000c8bf000000fb008010880001802000c6
:1003fc009140780070c7b30080cf50001c003a00c9
:10040c008c21ef009221ef00000c80000000e00036
:10041c0007003a0010002000000f78000077210040
:10042c00000c8800000c8000803eb000300c88006e
:10043c00310c8000c0262500808f500009003e0042
:10044c001e0078000000e00006003a00000c80005e
:10045c00c012b000000c8800000c8000803eb00080
:10046c00300c88000000eb00000f78003a003700d9
:10047c00018020009140780010c6b30080cf50005e
:10048c000d003a00000c8000100798008021ef004e
:10049c0000712200300c8800400620000100200072
:1004ac007d0007001e009000000c88001e009000cc
:1004bc00300c880028003700018020009140780023
:1004cc0040c6b30080cf50000d003a00300c8000c5
:1004dc00100798008621ef0000712200000c8800a4
:1004ec0040062000010020006b0007001e00900059
:1004fc00000c88001e009000300c8800160037009d
:10050c00018020009140780030c7b30080cf5000ac
:10051c0011003a008021ef008621ef0040062000f8
:10052c00010020005c000700610c800000772100b6
:10053c00808f500008003e00910c80000077210055
:10054c00808f500004003e0000f42100900c8800c5
:10055c0000f42100600c8800000000009aff3700b6
:10056c000000fa00d202a900d222a900d242a900ae
:10057c00d262a90070452500600888000621ef00b2
:10058c008221ef008021ef00210c800080ff2f00e2
:10059c00008060006000b300200c88008461a9001a
:1005ac008821ef008621ef00510c800080ff2f0086
:1005bc00008060006000b300500c88008a61a900c4
:1005cc008e21ef008c21ef00810c800080ff2f002a
:1005dc00008060006000b300800c88009061a9006e
:1005ec009421ef009221ef00b10c800080ff2f00ce
:1005fc00008060006000b300b00c88009661a90018
:10060c001061a90081088000f0fc2f0000806000c0
:10061c00800888001021a90011e1a8000080fa00d0
:10062c00000006000000fa004427ef0040a7a900d4
:10063c000de2a9000c02a9006110800090ff2f00b0
:10064c0000806000601088000ca2a900200c200023
:10065c00a01088000fe2a90071108000f0f32f00a9
:10066c0000806000701088000de2a8000f42a80006
:10067c008520a9000080fa00000006000000fa00a6
:10068c008520a900901080000040780000e8b70099
:10069c000080fa00000006000400fa00008fbe0083
:1006ac009e00900080bb20000088b90000017800fb
:1006bc001e0078006000b9000000780000014100c5
:1006cc009e00780080bb20000008b80001014100aa
:1006dc0082007800008fbe00008fbe00000000007a
:1006ec001e0090001e00700000f0a7000000ea0041
:1006fc000000ea004f00de00004078000081eb00b3
:10070c008081eb001e0f41005e9749000004e00061
:10071c00f3ff3a000080fa00000006000200fa0025
:10072c00000f78001e0078007e00b90000007800f1
:10073c004200de00000f7800000000001e00780070
:10074c0000f0a7000000ea000000ea004f00de0005
:10075c00004078001e0fe9000004e000f7ff3a00ab
:08076c000080fa000000060005
:020000040000fa
:10077400000800000200000000000000000000006b
:020000040000fa
:0200000401f009
:040000000387000072
:020000040000fa
:0200000401f009
:040004003f000000b9
:00000001FF
