:020000040000fa
:080000000001040000000000f3
:020000040000fa
:04000800c80100002b
:020000040000fa
:04000c00c801000027
:020000040000fa
:04001000c801000023
:020000040000fa
:04001400c80100001f
:020000040000fa
:04001800c80100001b
:020000040000fa
:04001c00c801000017
:020000040000fa
:04002000c801000013
:020000040000fa
:04002400c80100000f
:020000040000fa
:04002800c80100000b
:020000040000fa
:04002c00c801000007
:020000040000fa
:04003000c801000003
:020000040000fa
:04003400c8010000ff
:020000040000fa
:04003800c8010000fb
:020000040000fa
:04003c00c8010000f7
:020000040000fa
:04004000c8010000f3
:020000040000fa
:04004400c8010000ef
:020000040000fa
:04004800c8010000eb
:020000040000fa
:04004c00c8010000e7
:020000040000fa
:04005000c8010000e3
:020000040000fa
:04005400c8010000df
:020000040000fa
:04005800c8010000db
:020000040000fa
:04005c00c8010000d7
:020000040000fa
:04006000c8010000d3
:020000040000fa
:04006400c8010000cf
:020000040000fa
:04006800c8010000cb
:020000040000fa
:04006c00c8010000c7
:020000040000fa
:04007000c8010000c3
:020000040000fa
:04007400c8010000bf
:020000040000fa
:04007800c8010000bb
:020000040000fa
:04007c00c8010000b7
:020000040000fa
:04008000c8010000b3
:020000040000fa
:04008400c8010000af
:020000040000fa
:04008800c8010000ab
:020000040000fa
:04008c00c8010000a7
:020000040000fa
:04009000c8010000a3
:020000040000fa
:04009400c80100009f
:020000040000fa
:04009800c80100009b
:020000040000fa
:04009c00c801000097
:020000040000fa
:0400a000c801000093
:020000040000fa
:0400a400c80100008f
:020000040000fa
:0400a800c80100008b
:020000040000fa
:0400ac00c801000087
:020000040000fa
:0400b000c801000083
:020000040000fa
:0400b400c80100007f
:020000040000fa
:0400b800c80100007b
:020000040000fa
:0400bc00c801000077
:020000040000fa
:0400c000c801000073
:020000040000fa
:0400c400c80100006f
:020000040000fa
:0400c800c80100006b
:020000040000fa
:0400cc00c801000067
:020000040000fa
:0400d000c801000063
:020000040000fa
:0400d400c80100005f
:020000040000fa
:0400d800c80100005b
:020000040000fa
:04010800c80100002a
:020000040000fa
:04010c00c801000026
:020000040000fa
:04011000c801000022
:020000040000fa
:04011400c80100001e
:020000040000fa
:04011800c80100001a
:020000040000fa
:04011c00c801000016
:020000040000fa
:04012000c801000012
:020000040000fa
:04012400c80100000e
:020000040000fa
:04012800c80100000a
:020000040000fa
:04012c00c801000006
:020000040000fa
:04013000c801000002
:020000040000fa
:04013400c8010000fe
:020000040000fa
:04013800c8010000fa
:020000040000fa
:04013c00c8010000f6
:020000040000fa
:04014000c8010000f2
:020000040000fa
:04014400c8010000ee
:020000040000fa
:04014800c8010000ea
:020000040000fa
:04014c00c8010000e6
:020000040000fa
:04015000c8010000e2
:020000040000fa
:04015400c8010000de
:020000040000fa
:04015800c8010000da
:020000040000fa
:04015c00c8010000d6
:020000040000fa
:04016000c8010000d2
:020000040000fa
:04016400c8010000ce
:020000040000fa
:04016800c8010000ca
:020000040000fa
:04016c00c8010000c6
:020000040000fa
:04017000c8010000c2
:020000040000fa
:04017400c8010000be
:020000040000fa
:04017800c8010000ba
:020000040000fa
:04017c00c8010000b6
:020000040000fa
:04018000c8010000b2
:020000040000fa
:04018400c8010000ae
:020000040000fa
:04018800c8010000aa
:020000040000fa
:04018c00c8010000a6
:020000040000fa
:04019000c8010000a2
:020000040000fa
:04019400c80100009e
:020000040000fa
:04019800c80100009a
:020000040000fa
:04019c00c801000096
:020000040000fa
:0401a000c801000092
:020000040000fa
:0401a400c80100008e
:020000040000fa
:0401a800c80100008a
:020000040000fa
:0401ac00c801000086
:020000040000fa
:0401b000c801000082
:020000040000fa
:0401b400c80100007e
:020000040000fa
:0401b800c80100007a
:020000040000fa
:0401bc00c801000076
:020000040000fa
:0401c000c801000072
:020000040000fa
:0401c400c80100006e
:020000040000fa
:0401c800c80100006a
:020000040000fa
:0401cc00c801000066
:020000040000fa
:0401d000c801000062
:020000040000fa
:0401d400c80100005e
:020000040000fa
:0401d800c80100005a
:020000040000fa
:100200000f8020000eff20000e018800000000007b
:10021000000020000000e000020032000001200089
:1002200020028800140007005b0007000000e000c7
:1002300003003a0000002000010020000200370007
:100240000000200001002000810f7000010032003a
:1002500014000700000020000000e000020032004f
:100260000000020000000000b603020000000000d1
:100270000040da000000fe004440a9000000200019
:100280000000e0000300320000002000a001880010
:100290004440a800000006008a1f78008b1f7800e9
:1002a0000000060091018800800478000000eb0047
:1002b0001a003700e284440032a0b4009905ba0065
:1002c000e284440032a0b4009906ba00e2844400fb
:1002d00032a0b4000006eb00476fde00fd07b2005d
:1002e000636ce10003003a00ebff07000000eb0045
:1002f0000a003700606ce10004003a00005deb008a
:100300008b05e900fdff3e00040037006168e10055
:10031000010032000086eb000b00070019c7ba008d
:100320001905ba000e04e00003003a000a00e000dc
:10033000e0ff3a0000000600fe07b2009e018800c0
:100340008a047800f5ff3700395dba008b05e900b3
:100350000c003200295dba008b05e900080032006c
:100360000c00e00003003a00e284440032a0b40034
:10037000f5ff370019ddba008b05e900faff3a00f6
:100380008904e800e184440032a0b40000000600c3
:100390000040da000000fe0000000500889fbe005b
:1003a0008a9fbe008c1f7800690007007000330030
:1003b00003866c006450e1002e0032006420e100ee
:1003c000330032006150e1002f0032006120e10073
:1003d0003100320085855500eb07b0000900200090
:1003e00008042000050037000804440089844c00fc
:1003f0000a0031000603430087834b0000015300cd
:1004000081815b00f8ff33000203be000800a000fa
:100410000804440089844c00f6ff3900c639dd0029
:100420008301730001003200130020008904d10011
:100430000884d3000998a300050032000800a70033
:100440000300a0008904d1000884d3008b05e800d4
:100450008904d1000884d3000001eb000281d2009e
:100460001500070001f0a1000cf0a70001f0a000aa
:10047000480037006420e1004a0032000801be0055
:100480000200be00f7ff37006120e10045003200a6
:100490006000b800f3ff37000000200001f82700db
:1004a000f0ff370014002000410037004f89de00c4
:1004b00082017800590037008100200061805500da
:1004c0000b003d000b00200061fe2f000100e10049
:1004d0001d00340082817100610164008904d10033
:1004e0000884d3000000e800faff3a007100200001
:1004f0006100640003007000020060000900320027
:1005000061044400e0844c000988a5000500320025
:100510008b05e8006808e10002003a008904d10078
:100520000884d300f20f20000258e10005003d00ce
:10053000c75ddd00f907b20089807500080078000a
:10054000000006000bf827008b0078000000050073
:100550000004be00700007000003be000405be00da
:100560000200be006c000700844f7500000006000a
:100570000200be006450e100050036006420e10086
:10058000020036000968a30001003a000800be001e
:100590000160a0004f0678004f05be004f04be006a
:1005a00000000600f0ff2f00f1ff2700f9ff3700e1
:1005b000889fbe008a9fbe00841f7800e4ff07006a
:1005c0004f00780011003300f0ff2f00838f6c0084
:1005d00006003b00040565000a00a700080037007c
:1005e00009f0a6001000200008003700820f540018
:1005f000838f5c00030039001000200001003e00e2
:100600000000200009f0a7000000ea004f05be002e
:100610004f04be000000e00000000600881f7800c4
:10062000030478000300e00007003d0060001000b4
:10063000e080180060011900e081190002003b0011
:1006400001f02d00030037000400070008f0a700a8
:1006500001f0a0004f04780000000600889fbe0053
:100660008a9fbe0000827000040271000482710043
:10067000260032000004be000200be006011b80077
:100680006b092000950220000182cf000a0039008a
:100690000541b1000082cf00070039000541b100db
:1006a0000982cf00040039000541b1000882cf0063
:1006b000010039000541b10005425200120032002c
:1006c0000a003b0082817100610164008100d10059
:1006d0000080d3008984d3000884d3008b05e80010
:1006e0000442e800f7ff3a0007003700080444001e
:1006f00089844c0000004800818048008b05e90097
:100700000442e900f9ff3a006bff07004f05be0005
:100710004f04be0000000600c70ade00f107b20069
:10072000f50fb20008003200e1cf420002003200b3
:100730000170a00024000500810f7000010032004c
:100740000408050044000500810f700002003a0013
:10075000140005008502e9000000400081c0480047
:0c076000fcff3b000170a000240005001d
:020000040000fa
:10076c000600fa00881f78000000eb00000f7800ec
:10077c0070ff2f0040158800c722a900c742a900ae
:10078c00c762a900c782a900d302a900d322a9007d
:10079c00d242a900cb22a800803e200001002000fc
:1007ac0066000700cb22a900803e2000010020003b
:1007bc0062000700cb22a800803e20000100200030
:1007cc005e000700cb22a900803e20000100200023
:1007dc005a000700a022ef003000200030158800de
:1007ec00aa22ef002000200020158800a222ef0092
:1007fc00a1e2a800a022a8004006200001002000d1
:10080c004e000700a022a900000000000015800087
:10081c00610060000000e000fcff3200001480006a
:10082c00000f78006000b8001007980021079800ae
:10083c001e007800cf80de0019ff0700100798001b
:10084c002107980002002f00f35724001e0090008f
:10085c00ae009000cefe070018c0b30002002000ce
:10086c0003e823000cff07000000e0000100350046
:10087c000044eb000804e00005003200cb22a80085
:10088c00cb42a900cb62a900cb82a900d9ff3700cb
:10089c0002002f00f35724001e009000ae009000c1
:1008ac00bbfe070018c0b3000200200003f02300b9
:1008bc00f9fe07000000e000010035000044eb00e9
:1008cc000804e00005003200cb22a800cb42a800af
:1008dc00cb62a900cb82a900c6ff370002002f0013
:1008ec00f35724001e009000ae009000a8fe0700f5
:1008fc0018c0b3000200200003f42300e6fe07003a
:10090c000000e000010035000044eb000804e000aa
:10091c0005003200cb22a800cb42a800cb62a80075
:10092c00cb82a900b3ff3700cb22a800cb42a80092
:10093c00cb62a800cb82a800aeff37000400fa00ff
:10094c00008fbe009e00900080bb20000088b90084
:10095c00000178001e0078006000b90000007800eb
:10096c00000141009e00780080bb20000008b80008
:10097c000101410082007800008fbe00008fbe0094
:10098c00000000001e0090001e00700000f0a70088
:10099c000000ea000000ea004f00de000040780092
:1009ac000081eb008081eb001e0f41005e97490037
:1009bc000004e000f3ff3a000080fa00000006009b
:1009cc000200fa00000f78001e0078007e00b900cb
:1009dc00000078004200de00000f780000000000ec
:1009ec001e00780000f0a7000000ea000000ea00fa
:1009fc004f00de00004078001e0fe9000004e0000c
:0c0a0c00f7ff3a000080fa00000006002e
:020000040000fa
:0200000401f009
:040000000387000072
:020000040000fa
:0200000401f009
:040004003f000000b9
:00000001FF
