:020000040000fa
:080000000001040000000000f3
:020000040000fa
:04000800c80100002b
:020000040000fa
:04000c00c801000027
:020000040000fa
:04001000c801000023
:020000040000fa
:04001400c80100001f
:020000040000fa
:04001800c80100001b
:020000040000fa
:04001c00c801000017
:020000040000fa
:04002000c801000013
:020000040000fa
:04002400c80100000f
:020000040000fa
:04002800c80100000b
:020000040000fa
:04002c00c801000007
:020000040000fa
:04003000c801000003
:020000040000fa
:04003400c8010000ff
:020000040000fa
:04003800c8010000fb
:020000040000fa
:04003c00c8010000f7
:020000040000fa
:04004000c8010000f3
:020000040000fa
:04004400c8010000ef
:020000040000fa
:04004800c8010000eb
:020000040000fa
:04004c00c8010000e7
:020000040000fa
:04005000c8010000e3
:020000040000fa
:04005400c8010000df
:020000040000fa
:04005800c8010000db
:020000040000fa
:04005c00c8010000d7
:020000040000fa
:04006000c8010000d3
:020000040000fa
:04006400c8010000cf
:020000040000fa
:04006800c8010000cb
:020000040000fa
:04006c00c8010000c7
:020000040000fa
:04007000c8010000c3
:020000040000fa
:04007400c8010000bf
:020000040000fa
:04007800c8010000bb
:020000040000fa
:04007c00c8010000b7
:020000040000fa
:04008000c8010000b3
:020000040000fa
:04008400c8010000af
:020000040000fa
:04008800c8010000ab
:020000040000fa
:04008c00c8010000a7
:020000040000fa
:04009000c8010000a3
:020000040000fa
:04009400c80100009f
:020000040000fa
:04009800c80100009b
:020000040000fa
:04009c00c801000097
:020000040000fa
:0400a000c801000093
:020000040000fa
:0400a400c80100008f
:020000040000fa
:0400a800c80100008b
:020000040000fa
:0400ac00c801000087
:020000040000fa
:0400b000c801000083
:020000040000fa
:0400b400c80100007f
:020000040000fa
:0400b800c80100007b
:020000040000fa
:0400bc00c801000077
:020000040000fa
:0400c000c801000073
:020000040000fa
:0400c400c80100006f
:020000040000fa
:0400c800c80100006b
:020000040000fa
:0400cc00c801000067
:020000040000fa
:0400d000c801000063
:020000040000fa
:0400d400c80100005f
:020000040000fa
:0400d800c80100005b
:020000040000fa
:04010800c80100002a
:020000040000fa
:04010c00c801000026
:020000040000fa
:04011000c801000022
:020000040000fa
:04011400c80100001e
:020000040000fa
:04011800c80100001a
:020000040000fa
:04011c00c801000016
:020000040000fa
:04012000c801000012
:020000040000fa
:04012400c80100000e
:020000040000fa
:04012800c80100000a
:020000040000fa
:04012c00c801000006
:020000040000fa
:04013000c801000002
:020000040000fa
:04013400c8010000fe
:020000040000fa
:04013800c8010000fa
:020000040000fa
:04013c00c8010000f6
:020000040000fa
:04014000c8010000f2
:020000040000fa
:04014400c8010000ee
:020000040000fa
:04014800c8010000ea
:020000040000fa
:04014c00c8010000e6
:020000040000fa
:04015000c8010000e2
:020000040000fa
:04015400c8010000de
:020000040000fa
:04015800c8010000da
:020000040000fa
:04015c00c8010000d6
:020000040000fa
:04016000c8010000d2
:020000040000fa
:04016400c8010000ce
:020000040000fa
:04016800c8010000ca
:020000040000fa
:04016c00c8010000c6
:020000040000fa
:04017000c8010000c2
:020000040000fa
:04017400c8010000be
:020000040000fa
:04017800c8010000ba
:020000040000fa
:04017c00c8010000b6
:020000040000fa
:04018000c8010000b2
:020000040000fa
:04018400c8010000ae
:020000040000fa
:04018800c8010000aa
:020000040000fa
:04018c00c8010000a6
:020000040000fa
:04019000c8010000a2
:020000040000fa
:04019400c80100009e
:020000040000fa
:04019800c80100009a
:020000040000fa
:04019c00c801000096
:020000040000fa
:0401a000c801000092
:020000040000fa
:0401a400c80100008e
:020000040000fa
:0401a800c80100008a
:020000040000fa
:0401ac00c801000086
:020000040000fa
:0401b000c801000082
:020000040000fa
:0401b400c80100007e
:020000040000fa
:0401b800c80100007a
:020000040000fa
:0401bc00c801000076
:020000040000fa
:0401c000c801000072
:020000040000fa
:0401c400c80100006e
:020000040000fa
:0401c800c80100006a
:020000040000fa
:0401cc00c801000066
:020000040000fa
:0401d000c801000062
:020000040000fa
:0401d400c80100005e
:020000040000fa
:0401d800c80100005a
:020000040000fa
:100200008fa120000eff20000e01880000000000da
:10021000000020000000e000020032000001200089
:1002200020028800140007009d0607000000e0007f
:1002300003003a00e05721000100200002003700cf
:100240000000200001002000810f7000010032003a
:1002500014000700000020000000e000020032004f
:100260000000020000000000fc1602000000000078
:100270000040da000000fe004440a90040002000d9
:100280000000e0000300320000002000a001880010
:100290004440a800000006008a1f78008b1f7800e9
:1002a0000000060091018800800478000000eb0047
:1002b0001a003700e284440032a0b4009905ba0065
:1002c000e284440032a0b4009906ba00e2844400fb
:1002d00032a0b4000006eb00476fde00fd07b2005d
:1002e000636ce10003003a00ebff07000000eb0045
:1002f0000a003700606ce10004003a00005deb008a
:100300008b05e900fdff3e00040037006168e10055
:10031000010032000086eb000b00070019c7ba008d
:100320001905ba000e04e00003003a000a00e000dc
:10033000e0ff3a0000000600fe07b2009e018800c0
:100340008a047800f5ff3700395dba008b05e900b3
:100350000c003200295dba008b05e900080032006c
:100360000c00e00003003a00e284440032a0b40034
:10037000f5ff370019ddba008b05e900faff3a00f6
:100380008904e800e184440032a0b40000000600c3
:100390000040da000000fe000a00fa00e20f500000
:1003a00034003e00b0508000e10f500003003200e6
:1003b000e20f500011003a000c003700c32020006b
:1003c0000300e00001003a000040da000c02e20005
:1003d000020035001422ef000de2a8000f42ab002e
:1003e0000d003a000f42a8000b00370063212000e7
:1003f0000300e00001003a000040da001602e200cb
:10040000020035001e22ef0017e2a8001942ab00df
:1004100001003a001942a800820178000b00370061
:100420003102fb00e10f500004003a000f22ab0044
:10043000feff3a0084108800030037001922ab0049
:10044000feff3a00d41088008301e9000300e000b9
:10045000f3ff3a00e10f500003003a000f02ab0037
:10046000feff32000b0037001902ab00feff320026
:100470000800370033002000b3bf9f00c0bf9f00bb
:10048000d1bf9f00e2bf9f006a80570005060700aa
:100490006fb99700020078000080fa0000000600a3
:1004a000cf80de007e0707000200200003802300cb
:1004b0002908070080017800010178000300780016
:1004c00082007800000006004400f800040f2000bd
:1004d00024028800010278000000e9000080080082
:1004e000020000003200ca003300c9003100cc0015
:1004f000040078004400f900000006004400f80001
:10050000040f2000240288000000e9001201c3004b
:10051000008008000200000031027800b20278007a
:100520001201c0000000cd004400f90000000600e8
:100530000000fa0068815700cfb89700609f200044
:10054000ca0007000080fa00000006000800fa0058
:10055000889fbe008a9fbe000084fb00d1c6b30006
:10056000814f5000340036004b0620001100090076
:100570000b84d80081057800720040004300dd0044
:10058000a98f2000008044006022b80006002000ef
:1005900007fe23005001be004000be0078070700a0
:1005a0000002be000203be0084bf9f0095bf9f00f3
:1005b000a6bf9f00b7bf9f00aa002000110009003e
:1005c0008a85d80080057800e9854500c35ddd0097
:1005d0008b8544003b02be002b03be000fb8970082
:1005e0009fb897002fb99700bfb99700640707001d
:1005f0000002be000203be0084bf9f0095bf9f00a3
:10060000a6bf9f00b7bf9f00110009000a84d80051
:10061000010478004344dd00888444003902be00b0
:100620002903be000fb897009fb897002fb9970015
:10063000bfb997001d003700ea4f50001300360085
:10064000aa002000110009000a84d80001057800e2
:10065000690440004344dd00a98f20000884440061
:100660006022b8000600200007fe23003800be000c
:100670002801be00420707004355dd008a8444007c
:100680003902be002903be00080037004344dd00e4
:10069000a08f2000080440006022b800060020005f
:1006a00007fe23003800be002801be003407070003
:1006b0004f05be004f04be000080fa000000060097
:1006c0000800fa00889fbe008a9fbe00d1c6b30012
:1006d0000004e00023003d000040ea000004fb00ad
:1006e000814f50000a00340042062000110009002a
:1006f0000204d800a9002000110009008900d800d8
:10070000e9004000c308dd00aa8f20002100370067
:10071000ea4f500010003400a20020001100090030
:100720000204d80001017800690040004300dd00a8
:10073000a18f2000008040004311dd008280400036
:100740003102be002103be005001be004000be00c9
:100750000b070700380037004344dd00a08f20005e
:10076000320037000004fb00814f500023003400aa
:1007700042062000110009000204d800a900200050
:10078000110009008900d800e9004000c308dd001d
:10079000aa842000810045003102be002103be0072
:1007a0008b0920008a8545003b00be002b01be005e
:1007b000f30607000002be000203be0084bf9f00d4
:1007c00095bf9f00a6bf9f00b7bf9f001100090003
:1007d0000904d800010478004344dd000805450001
:1007e0003a02be002a03be000fb897009fb89700d8
:1007f0002fb99700bfb99700d5ff3700ea4f5000d7
:1008000008003400a2002000110009000204d800f2
:1008100001017800690040004300dd00a184200050
:10082000c4ff37004344dd00a084200008044000da
:100830003800be002801be004f05be004f04be00b8
:100840000080fa0000000600d001900002815100f3
:100850004240a900030034001001780001497800eb
:100860000208e80001007800000006006f02b000f6
:10087000889fbe008a9fbe008c9fbe008e1f78009e
:1008800000067800b1af9f0082b79f006000b800fb
:100890006011b800c0af9f00d1af9f00e2af9f00d2
:1008a000f3af9f008006eb006f043700bfa89700ee
:1008b0008100e800b1af9f0051c2b300814f5000ea
:1008c00003003a00bfa997000000eb0011003700b9
:1008d000bc0090000000fb000168a300070032008c
:1008e0000d017800800078000c007800d6ff07002a
:1008f0000000e00005003a005b0437008c0078003f
:1009000065040700e10f4000570432008d06e8003f
:100910005504370003017800b3407800d4c2b30017
:1009200084cf50000c00320007003c006d425200a2
:1009300084cf50000a0032006b42420084cf500046
:100940000d003a000800370004c3b30084cf500004
:1009500009003a00060037000030a000edff370024
:100960000000a000ebff37000010a000e9ff3700f7
:100970000020a000e7ff37000018a30001003200ac
:100980000000a1000038a300010032000020a100f7
:100990008101fb000303b100e98f51000c003e0010
:1009a000820178008005eb006a5ab900b305fb00ac
:1009b0000b03b10084854500030178009300fb0020
:1009c0000103b100e98f5000f7ff3600080037003f
:1009d0008005eb00a3c2b30083cf500004003a00af
:1009e0008fb19700c305780083b79f000201e8002c
:1009f000e1c2b30092cf100017003a0000e0a0005f
:100a0000e4c05000d2cf1000040032008200780011
:100a10000002eb00e4b79f00080037008fb2970098
:100a20004503780085b79f00e6b79f000201e80004
:100a30000c0037006a22b9000482410001017800ed
:100a4000b101fb000303b100e98f5100f9ff36004b
:100a5000e4b79f000300370000c0a0008003eb0054
:100a6000e7b79f00b2407800b2af9f00c3c6b300a3
:100a700083cf50001400320009003c0032c6b3009e
:100a800082cf5000790032006341410082cf500094
:100a90000f0032000104e000f80332008c00370040
:100aa00052c7b30082cf50008e0032006341410034
:100ab00082cf5000090032006541510082cf5000c2
:100ac00083003a00080037000040a000e5ff37002f
:100ad000e1cf9f0000a0a00084003700e1cf9f007d
:100ae0000070a00081003700e1cf9f000fb2970097
:100af000c400780084b79f00010478000100e00082
:100b000001003a00a89a2000080178008000eb005c
:100b1000010037008100e800e2c178000304e00032
:100b2000fcff3a0081047800efb297000500e00076
:100b300003003200898f52000100310085047800e3
:100b40000005eb00898f550001003600098555002e
:100b5000e80560002a003a00110037003c009000d0
:100b60000068a300070032000d0178000102200098
:100b70000c00780034ff07000000e00006003a0097
:100b8000060037008c00780000022000c203070036
:100b9000e10f4000010032008d06e8000a05e9007f
:100ba0000a00e000edff3a000085eb00140037007a
:100bb0003c0090000068a3000900320008007800a3
:100bc000b000fb00000478000d0178000c007800f4
:100bd0001dff07000000e00008003a000800370091
:100be000880078003100fb00010478008c00780058
:100bf000a9030700e10f4000010032008d06e80064
:100c0000090078008004e9000000e000e8ff3a00f5
:100c10000b00e00094033200110037003c0090000c
:100c20000068a300070032000d01780001022000d7
:100c30000c00780004ff07000000e00006003a0006
:100c4000060037008c0078000002200092030700a5
:100c5000e10f4000010032008d06e8000a05e900be
:100c60000a00e000edff3a007f0337000fb3970062
:100c70004602780086b79f00cfa2de00c82bdd00b9
:100c80004821de0002817300c829de00e2cf9f0008
:100c90000048a300080032000204e0000600320011
:100ca000e14f410004003200f2cf9f0084d79f0043
:100cb0002900200002003700f4cf9f001900200017
:100cc000e1fc2f008f8040000104e80096ff370010
:100cd000e1cf9f00e8fc2f000f0444001900200022
:100ce00091ff3700e1cf9f00000cb300d0b79f0009
:100cf000007020005fb1970000006100f00161000a
:100d0000a3af9f000000e0002502320002c8a3004c
:100d10000200320064002000e4b79f00afaa9700f1
:100d20000500e0000a0032000fb29700680252008e
:100d30003400be002401be0084b79f0090b79f001e
:100d4000a1b79f00b2b79f00c3b79f000a0037004a
:100d50008fb297004500be0085b79f0000050700d1
:100d60000002be000203be0094b79f00a5b79f001b
:100d7000b6b79f00c7b79f006022b8006033b800c5
:100d80001fb09700afb097003fb19700cfb1970069
:100d9000450407000000e0000c003d001fb0970074
:100da000afb097003fb19700cfb1970003f0a2001a
:100db00090b79f00a1b79f00b2b79f00c3b79f0035
:100dc000dfb097003100b300d1b79f000000eb0007
:100dd00090af9f006022b8006033b8001fb097004a
:100de000afb097003fb19700cfb1970092040700d2
:100df0000000e0003400320024fd2f000f0242000a
:100e00001fb09700afb097003fb19700cfb19700e8
:100e1000280507001fa897000000e9006302b90039
:100e2000a2002000110009000202d80090af9f002c
:100e30000000e00002003d000000e90090af9f00cc
:100e40001fac97000840ea001dfe07001fb2970084
:100e5000afb297003fb39700cfb3970048050700a4
:100e60000002be000203be00c4af9f00d5af9f00ca
:100e7000e6af9f00f7af9f006022b8000600200099
:100e800007ff2300080407000000e00002003d0007
:100e90000804e9000b0037006022b80006002000bb
:100ea000470224004fa89700dfa897006fa997007a
:100eb000ffa99700010407000000e00002003500d0
:100ec0000804e80098af9f00efb29700ec8f520043
:100ed0000f003c00054078009cfd07000002be00aa
:100ee0000203be001fb09700afb097003fb197005c
:100ef000cfb197006e0307000002be000203be00e0
:100f000094b79f00a5b79f00b6b79f00c7b79f00d3
:100f10001fac9700e90f540015003c006022b80098
:100f20006033b8001fb09700afb097003fb1970093
:100f3000cfb19700400407000000e000310032000c
:100f40001fb09700afb097003fb19700cfb19700a7
:100f5000a2040700e00f5000e08f5800e00f590096
:100f6000e08f590027003a00e10f540025003400bb
:100f70000400200005002e00b6e022001701240026
:100f80004fa89700dfa897006fa99700ffa99700c7
:100f9000c50307000000e00002003d0069045400a2
:100fa000010037006804540098af9f002fd09700cd
:100fb000c3fd07000002be000203be00c4af9f00d5
:100fc000d5af9f00e6af9f00f7af9f001fb097001f
:100fd000afb097003fb19700cfb19700bc030700b7
:100fe0007e0407000004be006000b8006011b80075
:100ff00090b79f00a1b79f00b2b79f00c3b79f00f3
:10100000160037001fb09700afb097003fb19700b0
:10101000cfb19700710407000004be00a3040700cd
:101020000002be000203be001fb09700afb09700e1
:101030003fb19700cfb197007b0507000002be00cb
:101040000203be0094b79f00a5b79f00b6b79f00ec
:10105000c7b79f000000eb0090af9f00219c2000cd
:1010600010c0b30005003700e4804000b10f540009
:10107000a18f5c00030039000040e800ea4f5000f7
:10108000f9ff3a00e0cf9f009fa8970081805500ac
:10109000efb29700858050000005fb000a855000e4
:1010a0000500e000010032000a05e9005fb3970087
:1010b00063006300010032000a05e900dfb3970016
:1010c0000728a30039003200618163000718a300dc
:1010d0000f0032003c0090000068a30006003200c0
:1010e000b10220000200e000010032008180e8002f
:1010f0000d0178000d003700b00220000200e00072
:10110000010032000080e8008c0078000e003700fb
:101110000200e000220032003c0090000068a300c2
:10112000070032000d017800010220000c00780059
:10113000c5fd07000000e00006003a001800370077
:101140008c0078000002200053020700e10f4000ed
:10115000130032008d06e800110037003c009000bb
:101160000068a300070032000d0178000103200091
:101170000c007800b4fd07000000e00006003a0013
:10118000060037008c0078000003200042020700b0
:10119000e10f4000010032008d06e8000a05e90079
:1011a0000a00e000edff3c00590037005fb09700f7
:1011b0000038a30014003a00110037003c009000f2
:1011c0000068a300070032000d0178000102200032
:1011d0000c0078009cfd07000000e00006003a00cb
:1011e000060037008c007800000220002a02070069
:1011f000e10f4000010032008d06e8000a05e90019
:101200000a00e000edff3c00dfb097006181600064
:101210000118a3000e0032003c0090000068a300fb
:1012200005003200b10220000200e000220032007e
:101230008180e80020003700b00220000200e000ba
:10124000010032000080e8008c0078002c0037009c
:101250000200e0002e0032003c0090000068a30075
:10126000030032000d017800010220001300370056
:101270008c00780000022000210037003c01900023
:10128000219c20000000fb000268a3001000320037
:101290004200dd00008040001001be000800be00da
:1012a000e3040700a200200003002000f004070070
:1012b00001032000808040000d0178000c007800c0
:1012c00061fd07000000e00010003a001000370048
:1012d0004200dd00008040001001be000800be009a
:1012e000d3040700a200200003002000e004070050
:1012f00002032000000141008c0078000200780009
:10130000e5010700e10f4000010032008d06e80012
:10131000efc897000140e900e0cf9f000104e00022
:10132000d6ff3a00130037003c0090000068a3008d
:10133000070032000d017800010320000c00780046
:1013400041fd07000000e00006003a0006003700fb
:101350008c00780000032000cf010700e10f40005f
:10136000010032008d06e8001fa897000000e90088
:1013700090af9f001fa897000000e000eaff3c002c
:101380006fb19700e80f51000300340080c0b30034
:10139000e0cf9f0002003700cfe99700e3cf9f0026
:1013a0006fc897008005fb006fb297008b05520055
:1013b0000004e000100032003c0090000068a30030
:1013c000070032000d017800e10220000c007800d7
:1013d0001dfd07000000e00006003a00060037008f
:1013e0008c007800e0022000ab010700e10f400014
:1013f000010032008d06e8006fc89700b0fc0700be
:101400000002be000203be001fb09700afb09700fd
:101410003fb19700cfb19700d90307006f030700d2
:101420002d0037003c019000219c20000000fb00b3
:101430000268a300100032004200dd0080804000fe
:101440001101be000800be0079040700a2002000c0
:101450000300200086040700010320008080400074
:101460000d0178000c007800f7fc07000000e00098
:1014700010003a00100037004200dd00808040007c
:101480001101be000800be0069040700a200200090
:101490000300200076040700020320000001410041
:1014a0008c007800020078007b010700e10f40000b
:1014b000010032008d06e800efca97000500fb002e
:1014c0004200dd00219c2000008040001001be0091
:1014d0000800be00660407000004be00efc89700c5
:1014e0000140e900e0cf9f000104e000cdff3a0099
:1014f000110037003c0090000068a3000700320094
:101500000d017800010320000c007800cefc0700dc
:101510000000e00006003a00060037008c0078006a
:10152000000320005c010700e10f400001003200d1
:101530008d06e8008b05e9000b00e000edff3a00a6
:101540005fb397000638a300470132000a00e000ad
:10155000450134003c0090000068a3000700320001
:101560000d017800010220000c007800b6fc070095
:101570000000e00006003a00060037008c0078000a
:101580000002200044010700e10f4000010032008a
:101590008d06e8000a05e900eeff3a003201370047
:1015a000afab97000700e000040032000fb09700d7
:1015b0004004be0080b79f00040037008fb0970042
:1015c0004104780081b79f008004eb006fb1970061
:1015d0000200e00006003a000880740000f0a70056
:1015e0000000ea000000e9004f00de00e0b79f00c5
:1015f000dfb19700030cb20093b79f0000082000f2
:10160000808f51000d003200000c2000808f5100af
:1016100018003a00219c200010c0b300e480400074
:10162000b10f5400a18f5c00110039000040e800a8
:10163000ea4f5000f9ff3a000d00370010c0b30028
:101640000201200003002000820f5400838f5c0001
:1016500007003900441add00cc11de00830172005e
:101660004411dd000040e800e84f5000f6ff3a006a
:10167000e0cf9f00efca97000500fb006fb3970013
:10168000860f500002003d00e6cf9f0004003700a7
:10169000efb39700808f530001003d00e0b79f003b
:1016a0000b00e00004003200dfb0970063806000b0
:1016b000010032008b05e9005fb1970002e8a3004a
:1016c00006003200efb19700838f5500020034000e
:1016d00083855500010037008005eb006fca970035
:1016e0000400fb000007eb00808f55000100340070
:1016f00000875500dfb297000528a30038003200ac
:10170000618162000518a3000f0032003c009000c8
:101710000068a30006003200b10220000200e000d1
:10172000010032008180e8000d0178000d003700d3
:10173000b00220000200e000010032000080e8005a
:101740008c0078000e0037000200e000100032002c
:101750003c0090000068a300070032000d017800f3
:10176000010220000c00780037fc07000000e000b8
:1017700006003a00060037008c00780000022000c6
:10178000c5000700e10f4000010032008d06e800af
:101790000e00e0004e0032003c0090000068a30004
:1017a000070032000d017800010320000c007800d2
:1017b00025fc07000000e00006003a0006003700a4
:1017c0008c00780000032000b3000700e10f400008
:1017d000010032008d06e8000e07e900ecff37003b
:1017e0000e00e000150032005fb397000638a3003a
:1017f00012003a003c0090000068a300070032008d
:101800000d017800010220000c0078000efc07009a
:101810000000e00006003a00060037008c00780067
:10182000000220009c000700e10f40000100320090
:101830008d06e8000e07e900eeff3a00dfb39700df
:10184000618163000718a3000f0032003c00900084
:101850000068a30006003200b10220000200e00090
:10186000010032008180e8000d0178000d00370092
:10187000b00220000200e000010032000080e80019
:101880008c0078000e0037000200e00010003200eb
:101890003c0090000068a300070032000d017800b2
:1018a000010220000c007800e7fb07000000e000c8
:1018b00006003a00060037008c0078000002200085
:1018c00075000700e10f4000010032008d06e800be
:1018d0006fb097000002e9004222dd00209c20004a
:1018e00000024200efb5970004057800450037007c
:1018f0008b05e900000820009fb09700808f500002
:1019000021003200000c2000808f50002b003a0094
:101910002fa997000200e000100032001a02be005a
:101920000401be000800be00f4b79f0085bf9f0001
:101930003f030700e0cf9f000000fb00cf80de00e8
:101940007fb297008fba97000401be004b030700d7
:101950000004540081845c00070037001a017800fd
:10196000110009000284d800a20020001100090023
:101970000280d800e1cf9f00efc997000343b00079
:10198000e3cf9f000d003700209c20000000550091
:101990000802be00000378000603e90003003300dc
:1019a0008502d1000482d300fbff37006f00620084
:1019b000119b200061407800e0cf9f00bc009000a8
:1019c000efcb97000700fb000168a300070032007f
:1019d0000d017800800078000c0078009afb070069
:1019e0000000e00005003a00050037008c00780098
:1019f00029000700e10f4000010032008d06e800d9
:101a0000640555000b00e000b9ff3a005fb0970095
:101a10000038a300140032000e00e0001200340071
:101a20003c0090000068a300070032000d01780020
:101a3000010220000c00780083fb07000000e0009a
:101a400006003a00060037008c00780000022000f3
:101a500011000700e10f4000010032008d06e80090
:101a60000e07e900eeff3a00bfa89700114078008a
:101a7000e0cf9f000004e0008cfb3a000d007800ee
:101a80004f0778004f06be004f05be004f04be0052
:101a90006f02b10000000600889fbe0001047800bc
:101aa000b80090008084eb000118a3003a003200d7
:101ab000180190000198a30002003a000200e00023
:101ac00035003a000190a0003104980080047800ad
:101ad000f90fb2000200e00002003a002800900076
:101ae000000c7800ea8f540005003a000178a3004a
:101af00003003a0088007800d0002000e6ff0700cd
:101b000018009000d8009000810f50000b003200a8
:101b10000000e800100498001800780009487800d8
:101b2000000ce80011c0b30000a1200001487800bb
:101b3000ea8f540018003a0005003700880078004a
:101b40000940780017000700800478001200370071
:101b5000380090000088a3000f00320018019000a8
:101b6000a8009000480090000bfa07009800900031
:101b7000810f500004003200380090000003b300d1
:101b8000300498008084eb000000eb001004980003
:101b900028009000000c7800090078004f04be0077
:101ba000000006000200fa00889fbe00a0ff9f0010
:101bb00001047800380090000068a30033003a0068
:101bc000e200600005003a000003b3003004980012
:101bd000110498000080eb002e003700d80490001c
:101be0000900e00006003a0012002000e6805700dd
:101bf00048009000e8f90700190498002300370016
:101c0000a80090000100e00008003a0031a1200087
:101c100021049800010c7800210020005104980054
:101c2000110498000030a0003004980018019000c2
:101c3000a800900048009000d7f907002800900005
:101c40008080eb0011049800aff8970001487800fd
:101c5000000ce8002ff89700ea4f50000b003a0004
:101c6000380090000088a30008003200180190009e
:101c7000a800900048009000c7f907000000eb00a2
:101c800010049800a8009000010c7800aff89700ad
:101c90000100fb004f04be000080fa0000000600b7
:101ca0000000050000c0da0000000600000000008f
:101cb0002800fa00889fbe008a9fbe008c9fbe004d
:101cc00007067800878669000c003b000304780053
:101cd0008704780008f0a10009f0a100840f5000eb
:101ce000858f5800860f5900890f5c000300330070
:101cf0000cf0a20001003a000cf0a100ff00070068
:101d00006400e1005f003200780147006408e100f0
:101d1000610032006c014700748557003200be003c
:101d20001201be003a04be001a05be001e03900058
:101d3000be0a90008503530006003d000004fd002c
:101d40008104fd000205fd008305fd008703ea0014
:101d5000050378000df8a3000400320060041400ad
:101d6000e0841c0060051d00e0851d006022b800b5
:101d70007d0320000d38e1008006eb000b003900e8
:101d80004433dd00f300b2008301730039003700f3
:101d9000848272000d027800e10664008b85d10018
:101da0000a85d3008984d3000884d3008703e9001f
:101db000f7ff3b0008004000898048000a01490005
:101dc0008b81490004003b0060001000e080180097
:101dd00060011900e08119000358a30009003200d6
:101de0008d82720084827200610260008301d100e2
:101df0000281d3008180d3000080d3000603e80075
:101e00001b0037000348a30017003a000600e0005b
:101e1000170034000603e9000d00a300000048008d
:101e20008180480002014900838149000348a300e2
:101e30000f003a000600e000090034000603e90044
:101e40000000400081804800020149008381490070
:101e500001003a000003eb000348a300f5ff320045
:101e60006022b8000200370084827200618266003e
:101e70007600070003f0a1000cf0a70003f0a0001b
:101e8000b2003700640147006408e10002003a0034
:101e90000df8a300aa003a003200be001201be00f5
:101ea000aa003700000000008f1fd100f9010700d1
:101eb0008f87e9000000e00000000600809feb0033
:101ec000f40107008f87e9000000e0000000060031
:101ed0002800fa00889fbe008a9fbe008c9fbe002b
:101ee00003866b00850007006400e10044003200b7
:101ef0006408e1004a0032006100e100460032005f
:101f00006108e10049003200ec0647006000b800bb
:101f10003d02be003d03be00f48657006011b800cc
:101f20003d04be003d05be007d0320000b003700d0
:101f30000000a0008d06e9001300320004024200f8
:101f400085824a0006034b0087834b000000400057
:101f50008180480002014900838149000802520043
:101f600089825a000a035b008b835b00f0ff3b0011
:101f70000802420089824a000a034b008b834b000f
:101f80008d06e900edff3a008482720086827200bd
:101f9000f707b200878272000100320015002000ae
:101fa0001e0490003e0b900006035400e63fb00074
:101fb0000368a300070032000000a7000500a0008e
:101fc0008301d1000281d3008180d3000080d3003f
:101fd0000603e8008301d1000281d3008180d30091
:101fe0000080d3000002eb000482d200170007003b
:101ff00003f0a1000cf0a70003f0a000530037008d
:10200000640247006408e1004d0032003400be0065
:102010003401be00f6ff37006108e10048003200dd
:102020006011b8006000b800f1ff370003ff27001f
:1020300002002000fbff3700801feb009501070026
:102040008f87e9000000e000000006001800200073
:1020500057002000080453000d003d00060020003a
:1020600097fc2f000740e1001e00340084827200bc
:10207000610260008301d1000281d3008180d3001e
:102080000080d3000804e800f8ff3a004700200071
:102090006104600005047400040464000d00320053
:1020a00061004000e080480060014900e081490093
:1020b00003b8a500070032000603e8006538e10018
:1020c00004003a008301d1000281d3008180d30053
:1020d0000080d300f87f20000830e10003003500c5
:1020e000080378006000b8006011b8004433dd00d8
:1020f000f300b2008301730000000600680447008b
:102100000294be000094be00fc0447008694be000a
:102110008494be0009007800a70107000800780039
:10212000a501070099007800814f70000b003b006b
:102130000800be00800107004f00b1000300370017
:10214000f3ff2700f2ff2f006110b9004f06be0019
:102150004f05be004f04be000080fa0000000600dc
:1021600081037800700007000001be006000b80025
:102170000478a30013003a006220e10015003e003d
:102180000d0039008301d1000281d3008180d3008a
:102190008301d1000281d3008180d3008301d1006b
:1021a0000281d3008180d3000538b000c42add004d
:1021b000f300b2008381720007f0a70003f0a000d3
:1021c00000000600f3ff2700f2ff2f006110b900a6
:1021d000fbff370003ff2700f7ff37001400fa006a
:1021e000889fbe008a9fbe008c9fbe000004be0078
:1021f0000205be00680047000a90be000890be00bd
:102200006d0107000070a7000bf0a1000bf8a30000
:1022100020003a009e0990000e099000fe009000f8
:102220006e0090009e029000344320008482520091
:10223000c6ff32000a003c00b4fc2f000428e10075
:10224000140034008301d1000281d3008180d300c7
:102250000080d3008502e800faff3a00bbff370098
:10226000b40020000428e10007003c00000040000a
:102270008180480002014900838149008502e9000c
:10228000faff3a00b1ff37000300280002002000e7
:10229000010037006011b8006000b800abff3700e4
:1022a0004f89de00820178006a0137006011b800b2
:1022b000780137001400fa00889fbe008a9fbe0094
:1022c0008c9fbe00040678000004be000205be001c
:1022d000680047000a90be000890be003601070063
:1022e0006200e1000800be000a01be0004002000f8
:1022f0000b003a001e029000e43fb1006e00900017
:10230000fe0090000e0990009e099000f300b200bc
:1023100005fe2300858171000bf0a70003f0a000eb
:10232000040e780089ff3700c70ade00f107b2000b
:10233000f50fb20008003200e1cf42000200320087
:102340000170a00024000500810f70000100320020
:102350000408050044000500810f700002003a00e7
:10236000140005008502e9000000400081c048001b
:10237000fcff3b000170a0002400050000000000ed
:102380002800fa00889fbe008a9fbe008c9fbe0076
:1023900003866b0059ff07000028a30064003a0081
:1023a0000128a30067003a000008a30062003a0079
:1023b0000108a30065003a001e009000be089000ce
:1023c00081064000ed3fb100f4805700ee0190001f
:1023d000111ab8008e099000311bb8009e099000b8
:1023e000311cb800511db800f485570046000700a5
:1023f000fe0190003a0007008b85e8003e000700d0
:102400008e09900040000700ee01900034000700a4
:102410008b85e800380007008e0990004000070017
:102420009e0990001b18b800890440000a854800e6
:10243000fe019000340007008b85e800380007009b
:10244000ee019000300007008e0990001b18b800c4
:10245000890440000a8548000a98a30008003a0051
:102460000402420085824a0006034b0087834b002a
:1024700008044c0089844c000a054d008d06e900d3
:1024800084827200850273004c3add00850272007e
:102490000100320015002000443ade001400b200b2
:1024a0004538de00cb45dd000b007000c540de0086
:1024b000cb4ddd008b8070004549de00cb55dd0043
:1024c0000b017100c551de000d037800dffe07002f
:1024d00003f0a1000cf0a70003f0a0001bff3700e1
:1024e0001b18b8008502400006834800e0834b00bb
:1024f00060044c00070037001b18b80006034000ba
:1025000087834800faff37001b18b8008703400094
:1025100008844800e0844c0060054d00000006007f
:102520001b18b8000804400089844800faff3700ef
:102530000108a30002ff3a005800be005801be0087
:10254000e3ff37000008a300fdfe3a00090478000d
:10255000f9ff370000000000889fbe008a9fbe0080
:102560008c1f78004b0107005201330003866c007a
:102570006450e100240032006420e10027003200b2
:102580006150e100220032006120e10021003200b0
:102590008b854200eb07b1000134b800003ab80067
:1025a0000804420089844a00013ab8000030b800ab
:1025b0008880400009014a00040033000000400008
:1025c00081804800020149008b05e900c909dd004e
:1025d000830170000100320013002000c814de00e7
:1025e0004814dd004709de001200b200c808de0012
:1025f000088470000101070001f0a1000cf0a700a1
:1026000001f0a000340137006120e1003601320002
:102610000801be000200be00f7ff37006150e10074
:10262000fcff3a003001370007f0a200a0fd3700a0
:102630006022b800060220000000d0008180d20095
:102640000482d2008582d2000000a0000202520063
:1026500083825a00030031000202420083824a0052
:102660000000a1000603e900f3ff3a0000000600a5
:10267000efff07000400be0000000600020ab900d8
:10268000001bb9000200b800810042008100430035
:1026900000000600889fbe008a9fbe008c9fbe007f
:1026a0000404be000605be00809fbe00829fbe00df
:1026b0002f000700040678000800be000a01be00d3
:1026c0002b000700840678004f03be004f02be00b7
:1026d0008d4f76007fb0970013003300f0ff2f007e
:1026e0008b8f6b0006003b000d0666000c00a700f8
:1026f0000a00370007f0a600100020000a0037008b
:10270000880f5200898f5a008a0f5b008b8f5b0005
:10271000030039001000200001003e0000002000ee
:1027200007f0a7000000ea004f06be004f05be00fc
:102730004f04be0000000600e48240001078a300b1
:1027400007003200640240001178a3003400be008c
:102750001401be00040032000330a7000000060090
:102760003500be001501be000330a00000000600c9
:1027700005ff270005826100070032000428e10000
:1027800001003200240005000600070001003a00a5
:10279000440005000408050002000700f9ff3a00a4
:1027a000140005006f8261008102700085027100d3
:1027b0008502720000000600800078005002be0012
:1027c0005003be004439de00f700b200f37f200062
:1027d00003016100090032000218e10016003a000e
:1027e000850172008301730083817300000820005b
:1027f00015003a00400020001300370085017200e8
:10280000830173008381730005003a0004a8be00b1
:1028100006a8be00100020000b0037000201e900ee
:102820000402420085824a0006034b0087834b0066
:102830000748a300f9ff32000740a00004a8be002b
:1028400006a8be002000200080009800920098009a
:1028500000000600881f7800030478000300e000f1
:1028600007003d0060001000e080180060011900c2
:10287000e081190002003b0001f02d000300370049
:102880002f00070008f0a70001f0a0004f04780017
:1028900000000600889fbe000082700004027100e4
:1028a000048271002400320036432000c50020005d
:1028b0008383cf000a0039000541b1008283cf0035
:1028c000070039000541b1008183cf0004003900c1
:1028d0000541b1008083cf00010039000541b100fe
:1028e00085c353006022b800120032000a003b008a
:1028f00084827200610260008301d1000281d300f2
:102900008180d3000080d3000603e8008743e800fd
:10291000f7ff3a00070037000000400081804800c0
:1029200002014900838149000603e9008743e90069
:10293000f9ff3a00c5fd07004f04be000000060085
:10294000889fbe008a9fbe00008270000402710052
:1029500004827100260032000004be000200be00a6
:102960006011b8006b092000950220000182cf00a1
:102970000a0039000541b1000082cf00070039008c
:102980000541b1000982cf00040039000541b100c2
:102990000882cf00010039000541b1000542520014
:1029a000120032000a003b00828171006101640064
:1029b0008100d1000080d3008984d3000884d30033
:1029c0008b05e8000442e800f7ff3a0007003700f3
:1029d0000804440089844c000000480081804800bd
:1029e0008b05e9000442e900f9ff3a000300070003
:1029f0004f05be004f04be0000000600810020000d
:102a0000618055000b003d000b00200061fe2f008f
:102a10000100e1001d003400828171006101640049
:102a20008904d1000884d3000000e800faff3a00ce
:102a3000710020006100640003007000020060006b
:102a40000900320061044400e0844c000988a500bc
:102a5000050032008b05e8006808e10002003a003a
:102a60008904d1000884d300f20f20000258e1004d
:102a700005003d00c75ddd00f907b20089807500e3
:102a800008007800000006000bf827008b00780093
:102a9000000005000004be0023fe07000003be0086
:102aa0000405be000200be001ffe0700844f750033
:102ab000000006000200be006450e1000500360080
:102ac0006420e100020036000968a30001003a001a
:102ad0000800be000160a0004f0678004f05be0050
:102ae0004f04be0000000600f0ff2f00f1ff27009a
:042af000f9ff3700b3
:020000040000fa
:082af400256600000a00000045
:020000040000fa
:102afc002c0800001e000000000000000008000070
:102b0c002c000000020000003d0a57003e9a99007c
:102b1c0099be9a0099993f00cdcc4c003ecdcc008b
:102b2c000c40660066a63f00fc7e0000c00204005c
:102b3c000308020004000000000000004000000038
:102b4c0000000000ea09000026000000020000005e
:102b5c00110a000000110a00090000000002000028
:102b6c00130a000000130a000e020100000000000e
:102b7c00000000000000000006020200000000003f
:102b8c00ea090000100a0000060000000000000026
:102b9c00aa0900004000000002000000286e750029
:102bac006c6c29000030310032333400353637007c
:102bbc003839610062636400656600000100000042
:102bcc00000a00000000640000000000e8030000a0
:102bdc00001027000000a0008601000040420f00fa
:102bec000080960098000000e1f5050000ca9a00ec
:102bfc003b0000004a0800006001000002000000d9
:102c0c000000000000000000f03f00000000000089
:102c1c0000002400400000000000000000594000ab
:102c2c0000000000000040008f4000000000000089
:102c3c000088c30040000000000000006af840005b
:102c4c0000000000008084002e4100000000000005
:102c5c00d01263004100000000008400d7974100af
:102c6c00000000000065cd00cd41000000002000f8
:102c7c005fa0020042408c00b5781d00af154400e7
:102c8c00ea8ca00039593e002946a5005cc3f1002e
:102c9c0029633d00489a64007ec50e001b514a0012
:102cac0044f3c200e4e4e900634c3d00c7ddd60008
:102cbc00ba2e77004e5ffb00f051ef00fc8a5000fb
:102ccc00c7592900090f6b009f527d00c394250042
:102cdc00ad49b200545a6200d7d71800e7746900a6
:102cec009c750000883ce400377e0000000000006a
:102cfc000000f0003f9a99009999990099b93f000a
:102d0c007b14ae0047e17a00843ffc00a9f1d200ad
:102d1c004d6250003f2d43001cebe200361a3f0081
:102d2c00f168e30088b5f800e43e8d00edb5a00035
:102d3c00f7c6b0003e48af00bc9af200d77a3e000e
:102d4c003a8c3000e28e7900453e9500d626e8009c
:102d5c000b2e11003ebbbd00d7d9df007cdb3d0044
:102d6c00234292000ca19c00c73ba000c2ebfe00ca
:102d7c004b48b400399c5700772726006ca13700cc
:102d8c001fb8d4004a7aee008d352600a6acaa00f6
:102d9c0004b67900339d35008f1de90015663100ae
:102dac0023614d0017acf800522f6f000e99840070
:102dbc00d94b40002d3005008ee42e00ff2b2b004c
:102dcc00acf74e0015927e0068165900f3f8c2005d
:102ddc001f6ea50001000000160a00000200000092
:0c2dec00020000000100000000000000d8
:020000040000fa
:102df8000200fa000000eb00000f78001b0037000b
:102e0800828120002182200050002000b9f50700af
:102e1800d0418800a3832000a2832000c183200022
:102e280010002000a6f5070010418000204188000e
:102e38004041800050418800304180004041880076
:102e48002628ef00e041800010418800e041800022
:102e580091f50700809fbe00a0572900801f7800c9
:102e6800b1f50700e68757001e0fe800400620006e
:102e78009e007800808f5000e1ff34000000eb00d6
:082e88000080fa0000000600c2
:020000040000fa
:0200000401f009
:04000000078700006e
:020000040000fa
:0200000401f009
:040004003f000000b9
:020000040000fa
:0200000401f009
:04000800b0870000bd
:020000040000fa
:0200000401f009
:04001400ffff0000ea
:00000001FF
