:020000040000fa
:080000000001040000000000f3
:020000040000fa
:04000800c80100002b
:020000040000fa
:04000c00c801000027
:020000040000fa
:04001000c801000023
:020000040000fa
:04001400c80100001f
:020000040000fa
:04001800c80100001b
:020000040000fa
:04001c00c801000017
:020000040000fa
:04002000c801000013
:020000040000fa
:04002400c80100000f
:020000040000fa
:04002800c80100000b
:020000040000fa
:04002c00c801000007
:020000040000fa
:04003000c801000003
:020000040000fa
:04003400c8010000ff
:020000040000fa
:04003800c8010000fb
:020000040000fa
:04003c00c8010000f7
:020000040000fa
:04004000c8010000f3
:020000040000fa
:04004400c8010000ef
:020000040000fa
:04004800c8010000eb
:020000040000fa
:04004c00c8010000e7
:020000040000fa
:04005000c8010000e3
:020000040000fa
:04005400c8010000df
:020000040000fa
:04005800c8010000db
:020000040000fa
:04005c00c8010000d7
:020000040000fa
:04006000c8010000d3
:020000040000fa
:04006400c8010000cf
:020000040000fa
:04006800c8010000cb
:020000040000fa
:04006c00c8010000c7
:020000040000fa
:04007000c8010000c3
:020000040000fa
:04007400c8010000bf
:020000040000fa
:04007800c8010000bb
:020000040000fa
:04007c00c8010000b7
:020000040000fa
:04008000c8010000b3
:020000040000fa
:04008400c8010000af
:020000040000fa
:04008800c8010000ab
:020000040000fa
:04008c00c8010000a7
:020000040000fa
:04009000c8010000a3
:020000040000fa
:04009400c80100009f
:020000040000fa
:04009800c80100009b
:020000040000fa
:04009c00c801000097
:020000040000fa
:0400a000c801000093
:020000040000fa
:0400a400c80100008f
:020000040000fa
:0400a800c80100008b
:020000040000fa
:0400ac00c801000087
:020000040000fa
:0400b000c801000083
:020000040000fa
:0400b400c80100007f
:020000040000fa
:0400b800c80100007b
:020000040000fa
:0400bc00c801000077
:020000040000fa
:0400c000c801000073
:020000040000fa
:0400c400c80100006f
:020000040000fa
:0400c800c80100006b
:020000040000fa
:0400cc00c801000067
:020000040000fa
:0400d000c801000063
:020000040000fa
:0400d400c80100005f
:020000040000fa
:0400d800c80100005b
:020000040000fa
:04010800c80100002a
:020000040000fa
:04010c00c801000026
:020000040000fa
:04011000c801000022
:020000040000fa
:04011400c80100001e
:020000040000fa
:04011800c80100001a
:020000040000fa
:04011c00c801000016
:020000040000fa
:04012000c801000012
:020000040000fa
:04012400c80100000e
:020000040000fa
:04012800c80100000a
:020000040000fa
:04012c00c801000006
:020000040000fa
:04013000c801000002
:020000040000fa
:04013400c8010000fe
:020000040000fa
:04013800c8010000fa
:020000040000fa
:04013c00c8010000f6
:020000040000fa
:04014000c8010000f2
:020000040000fa
:04014400c8010000ee
:020000040000fa
:04014800c8010000ea
:020000040000fa
:04014c00c8010000e6
:020000040000fa
:04015000c8010000e2
:020000040000fa
:04015400c8010000de
:020000040000fa
:04015800c8010000da
:020000040000fa
:04015c00c8010000d6
:020000040000fa
:04016000c8010000d2
:020000040000fa
:04016400c8010000ce
:020000040000fa
:04016800c8010000ca
:020000040000fa
:04016c00c8010000c6
:020000040000fa
:04017000c8010000c2
:020000040000fa
:04017400c8010000be
:020000040000fa
:04017800c8010000ba
:020000040000fa
:04017c00c8010000b6
:020000040000fa
:04018000c8010000b2
:020000040000fa
:04018400c8010000ae
:020000040000fa
:04018800c8010000aa
:020000040000fa
:04018c00c8010000a6
:020000040000fa
:04019000c8010000a2
:020000040000fa
:04019400c80100009e
:020000040000fa
:04019800c80100009a
:020000040000fa
:04019c00c801000096
:020000040000fa
:0401a000c801000092
:020000040000fa
:0401a400c80100008e
:020000040000fa
:0401a800c80100008a
:020000040000fa
:0401ac00c801000086
:020000040000fa
:0401b000c801000082
:020000040000fa
:0401b400c80100007e
:020000040000fa
:0401b800c80100007a
:020000040000fa
:0401bc00c801000076
:020000040000fa
:0401c000c801000072
:020000040000fa
:0401c400c80100006e
:020000040000fa
:0401c800c80100006a
:020000040000fa
:0401cc00c801000066
:020000040000fa
:0401d000c801000062
:020000040000fa
:0401d400c80100005e
:020000040000fa
:0401d800c80100005a
:020000040000fa
:100200008f8020000eff20000e01880000000000fb
:10021000000020000000e000020032000001200089
:1002200020028800140007005b0007000000e000c7
:1002300003003a00c06520000100200002003700e2
:100240000000200001002000810f7000010032003a
:1002500014000700000020000000e000020032004f
:1002600000000200000000001a060200000000006a
:100270000040da000000fe004440a90040022000d7
:100280000000e0000300320000002000a001880010
:100290004440a800000006008a1f78008b1f7800e9
:1002a0000000060091018800800478000000eb0047
:1002b0001a003700e284440032a0b4009905ba0065
:1002c000e284440032a0b4009906ba00e2844400fb
:1002d00032a0b4000006eb00476fde00fd07b2005d
:1002e000636ce10003003a00ebff07000000eb0045
:1002f0000a003700606ce10004003a00005deb008a
:100300008b05e900fdff3e00040037006168e10055
:10031000010032000086eb000b00070019c7ba008d
:100320001905ba000e04e00003003a000a00e000dc
:10033000e0ff3a0000000600fe07b2009e018800c0
:100340008a047800f5ff3700395dba008b05e900b3
:100350000c003200295dba008b05e900080032006c
:100360000c00e00003003a00e284440032a0b40034
:10037000f5ff370019ddba008b05e900faff3a00f6
:100380008904e800e184440032a0b40000000600c3
:0c0390000040da000000fe000000050044
:020000040000fa
:10039c00090100008096000011800000ff3a000067
:1003ac00815500000a360000010800002a040000f4
:1003bc000000000000f000002b04000000500000c2
:1003cc0001400000218000000a130000800a000098
:0803dc0029800000ff00000071
:020000040000fa
:1003e4000200fa00004f78001e80fb0020118800f4
:1003f4000080fa00000006000200fa00004f7800b6
:10040400cb62a9001e407800f5ff0700cb62a8006c
:100414000080fa00000006000600fa002007980099
:100424002e009000104f78002e0090000000e8008d
:1004340020079800460037002e00900010407800f6
:10044400ae0090008100e80021079800eaff070051
:100454002e00900090407800114798002e009000e4
:100464000000e800200798001e4090008080fb00f8
:100474000008200000806000100798001e409000d3
:100484000074a10010479800060037002e00900069
:1004940010407800ae0090008100e8002107980029
:1004a400cfff07001e4090000080fb000000ea0020
:1004b4004f00de00004078009e4090008140e9003b
:1004c400114798000004e000f0ff3a001e0090007d
:1004d4000000e0001e0032002e0090001040780062
:1004e4000080fb00100798002e0090000000e80038
:1004f400200798009e009000f00f2000808f50008d
:1005040007003a00401f200010079800050037003c
:1005140010002000010020009101070001003700b5
:10052400000000001e00900000f0a7000000ea0098
:100534000000ea004f00de00004078009e009000ba
:100544008100e900110798000004e000f0ff3a0080
:100554001e80fb000000ea004f00de00004078002f
:100564001e4fe9000004e000b3ff3a000080fa00e7
:10057400000006000000fa00cb82a800400620001c
:100584000100200076010700cb82a900400620006c
:100594000100200072010700cb82a800800c20001b
:1005a400010020006e010700e01c28009aff0700ec
:1005b4000468ef0000c5b30005e8b70000cfb3003e
:1005c40001e8b70000cfb30000e8b70020c0b300d3
:1005d4002a0007000080fa00000006000400fa0068
:1005e400004f78001147980022479800334798003d
:1005f40002c8bf001e4f400003c8bf009e409000c9
:1006040000c0400010479800a0c2b3007aff070062
:100614000040eb0072ff07001e40780070ff0700e7
:100624000040eb006eff07002e4090001e4040008b
:100634000040e9006aff0700b0c2b3006eff070084
:100644000040eb0066ff07001e40900064ff0700b7
:100654000040eb0062ff07009e4090003e40900087
:1006640000c040000040e9005dff0700c0c2b300c5
:1006740061ff07000080fa00000006000400fa0091
:10068400204798000040eb00004f78002e40900077
:100694006340600006e8b70006c8bf000080fb00a6
:1006a400e10f500011003200e10f500003003c0044
:1006b4000000e000060032001d003700e20f500089
:1006c40011003200e30f500014003200180037000c
:1006d40000ccb300004f780004c8bf0002e8b700a4
:1006e40005c8bf0003e8b7001100370000cab30013
:1006f400004f780005c8bf0002e8b70004c8bf0077
:1007040003e8b7000a0037000040eb00004f780010
:100714000268ef000368ef000500370000c6b3006d
:10072400004f78000268ef000368ef00000000004b
:1007340060c3b30030ff07001e40780028ff0700a5
:100744000080fa00000006000400fa00004f780060
:10075400114798001207980000c8bf009e40780017
:1007640080cf50001000310001c8bf009e409000af
:1007740080cf50000c00310013c0b30012c0b3008e
:100784009e4090001e40780094ff07001e009000d9
:100794004800de000040780011ff07001e009000b2
:1007a400004078000eff07000080fa0000000600f9
:1007b4000800fa0020479800314798004247980003
:1007c4003307980000c8bf00ae40900080cf5000af
:1007d4002f00310001c8bf00be40900080cf500000
:1007e4002b0031004e4090000004e000280032004d
:1007f4003e0090004800de00004f78003e0090006c
:10080400104798002e4090008080fb004e409000de
:100814000080fb00008040008000e90000c8bf00a9
:100824000080fb00808f500005003500018020000f
:10083400914078002e40900000c05000404798003e
:1008440013c0b3004e419000be4090002e40900073
:1008540062ff0700040037001e407800e0fe070036
:100864001e409000defe07004e4090000080fb001a
:100874000000ea004f00de0000407800ce40900007
:100884008140e900414798000004e000f2ff3a008b
:100894000080fa00000006000800fa0020479800d3
:1008a40031479800424798003307980000c8bf00ba
:1008b400ae40900080cf50002f00310001c8bf002f
:1008c400be40900080cf50002b0031004e4090007d
:1008d4000004e000280032003e0090004800de00e2
:1008e400004f78003e009000104798003e40900072
:1008f4008080fb004e4090000080fb0000804000a0
:100904008000e90001c8bf000080fb00808f500018
:100914000500350011802000914078003e40900091
:1009240000c0500040479800ce41900012c0b30070
:10093400be4090002e40900028ff070004003700be
:100944001e407800a6fe07001e409000a4fe07008b
:100954004e4090000080fb000000ea004f00de00e3
:1009640000407800ce4090008140e9004147980063
:100974000004e000f2ff3a000080fa0000000600e4
:100984000a00fa00404798005147980062479800cf
:10099400734798004407980000c8bf00ce409000f9
:1009a40080cf50004700310001c8bf00de409000f6
:1009b40080cf5000430031006e4090000004e000fe
:1009c400400032007e4090000004e0003d00320010
:1009d4004e0090004800de00204798004e00900032
:1009e400304798004e4090008080fb006e4090009d
:1009f4000080fb00008040008000e90000c8bf00c8
:100a04000080fb00808f500005003500018020002d
:100a1400914078004e40900000c05000604798001c
:100a24005e4090008080fb007e4090000080fb00d0
:100a3400008040008000e90001c8bf000080fb0086
:100a4400808f50000500350011802000914078000f
:100a54005e40900000c0500070479800fe41900036
:100a64006e419000de4090004e409000dbfe070097
:100a74006e4090008080fb007e4090000080fb0070
:100a84000088b90000007800000f780004003700e7
:100a94002e40900052fe07003e40900050fe07009a
:100aa4001e00780000f0a7000000ea000000ea0041
:100ab4004f00de00004078001e0fe9000004e00053
:100ac400f3ff3a000080fa00000006000200fa007a
:100ad400000f7800118020009140780000c8bf000a
:100ae4001e02780081417800004178008040eb00cc
:100af4000040eb00a2ff07000080fa00000006009f
:100b04000200fa00004f78001e4078000004e00064
:100b14000200320010c2b3000100370000c2b3006b
:100b240035fe07000080fa00000006000400fa0009
:100b3400100798001e0090004800de00004f780067
:100b44001e009000104798001e40780024fe070005
:100b54001e40900022fe07000080fa0000000600fc
:100b64000400fa00008fbe009e00900080bb2000ad
:100b74000088b900000178001e0078006000b90008
:100b840000007800000141009e00780080bb200036
:100b94000008b8000101410082007800008fbe0007
:100ba400008fbe00000000001e0090001e007000b8
:100bb40000f0a7000000ea000000ea004f00de0099
:100bc400004078000081eb008081eb001e0f4100a3
:100bd4005e9749000004e000f3ff3a000080fa0049
:100be400000006000200fa00000f78001e007800e2
:100bf4007e00b900000078004200de00000f78009b
:100c0400000000001e00780000f0a7000000ea00c9
:100c14000000ea004f00de00004078001e0fe900eb
:100c24000004e000f7ff3a000080fa00000006002c
:100c34000000fa000080eb0040158800c762a9009c
:100c4400c782a900cb62a800cb82a80006000700d7
:100c540048fe07000080eb009cff07000080eb00cb
:100c64009aff0700fdff37000000fa0022a2a80047
:100c74002342a9002302a90022c2a90022e2a9005a
:100c84001111800030fe2f00008060000040a000a1
:100c94001011880011118000c0ff2f000080600037
:100ca4001011880021e2a8008500a9000080fa0044
:040cb4000000060036
:020000040000fa
:100cb800000800000800000000000000000000001c
:020000040000fa
:0200000401f009
:040000000387000072
:020000040000fa
:0200000401f009
:040004003f000000b9
:00000001FF
