:020000040000fa
:080000000001040000000000f3
:020000040000fa
:04000800c80100002b
:020000040000fa
:04000c00c801000027
:020000040000fa
:04001000c801000023
:020000040000fa
:04001400c80100001f
:020000040000fa
:04001800c80100001b
:020000040000fa
:04001c00c801000017
:020000040000fa
:04002000c801000013
:020000040000fa
:04002400c80100000f
:020000040000fa
:04002800c80100000b
:020000040000fa
:04002c00c801000007
:020000040000fa
:04003000c801000003
:020000040000fa
:04003400c8010000ff
:020000040000fa
:04003800c8010000fb
:020000040000fa
:04003c00c8010000f7
:020000040000fa
:04004000c8010000f3
:020000040000fa
:04004400c8010000ef
:020000040000fa
:04004800c8010000eb
:020000040000fa
:04004c00c8010000e7
:020000040000fa
:04005000c8010000e3
:020000040000fa
:04005400c8010000df
:020000040000fa
:04005800c8010000db
:020000040000fa
:04005c00c8010000d7
:020000040000fa
:04006000c8010000d3
:020000040000fa
:04006400c8010000cf
:020000040000fa
:04006800c8010000cb
:020000040000fa
:04006c00c8010000c7
:020000040000fa
:04007000c8010000c3
:020000040000fa
:04007400c8010000bf
:020000040000fa
:04007800c8010000bb
:020000040000fa
:04007c00c8010000b7
:020000040000fa
:04008000c8010000b3
:020000040000fa
:04008400c8010000af
:020000040000fa
:04008800c8010000ab
:020000040000fa
:04008c00c8010000a7
:020000040000fa
:04009000c8010000a3
:020000040000fa
:04009400c80100009f
:020000040000fa
:04009800c80100009b
:020000040000fa
:04009c00c801000097
:020000040000fa
:0400a000c801000093
:020000040000fa
:0400a400c80100008f
:020000040000fa
:0400a800c80100008b
:020000040000fa
:0400ac00c801000087
:020000040000fa
:0400b000c801000083
:020000040000fa
:0400b400c80100007f
:020000040000fa
:0400b800c80100007b
:020000040000fa
:0400bc00c801000077
:020000040000fa
:0400c000c801000073
:020000040000fa
:0400c400c80100006f
:020000040000fa
:0400c800c80100006b
:020000040000fa
:0400cc00c801000067
:020000040000fa
:0400d000c801000063
:020000040000fa
:0400d400c80100005f
:020000040000fa
:0400d800c80100005b
:020000040000fa
:04010800c80100002a
:020000040000fa
:04010c00c801000026
:020000040000fa
:04011000c801000022
:020000040000fa
:04011400c80100001e
:020000040000fa
:04011800c80100001a
:020000040000fa
:04011c00c801000016
:020000040000fa
:04012000c801000012
:020000040000fa
:04012400c80100000e
:020000040000fa
:04012800c80100000a
:020000040000fa
:04012c00c801000006
:020000040000fa
:04013000c801000002
:020000040000fa
:04013400c8010000fe
:020000040000fa
:04013800c8010000fa
:020000040000fa
:04013c00c8010000f6
:020000040000fa
:04014000c8010000f2
:020000040000fa
:04014400c8010000ee
:020000040000fa
:04014800c8010000ea
:020000040000fa
:04014c00c8010000e6
:020000040000fa
:04015000c8010000e2
:020000040000fa
:04015400c8010000de
:020000040000fa
:04015800c8010000da
:020000040000fa
:04015c00c8010000d6
:020000040000fa
:04016000c8010000d2
:020000040000fa
:04016400c8010000ce
:020000040000fa
:04016800c8010000ca
:020000040000fa
:04016c00c8010000c6
:020000040000fa
:04017000c8010000c2
:020000040000fa
:04017400c8010000be
:020000040000fa
:04017800c8010000ba
:020000040000fa
:04017c00c8010000b6
:020000040000fa
:04018000c8010000b2
:020000040000fa
:04018400c8010000ae
:020000040000fa
:04018800c8010000aa
:020000040000fa
:04018c00c8010000a6
:020000040000fa
:04019000c8010000a2
:020000040000fa
:04019400c80100009e
:020000040000fa
:04019800c80100009a
:020000040000fa
:04019c00c801000096
:020000040000fa
:0401a000c801000092
:020000040000fa
:0401a400c80100008e
:020000040000fa
:0401a800c80100008a
:020000040000fa
:0401ac00c801000086
:020000040000fa
:0401b000c801000082
:020000040000fa
:0401b400c80100007e
:020000040000fa
:0401b800c80100007a
:020000040000fa
:0401bc00c801000076
:020000040000fa
:0401c000c801000072
:020000040000fa
:0401c400c80100006e
:020000040000fa
:0401c800c80100006a
:020000040000fa
:0401cc00c801000066
:020000040000fa
:0401d000c801000062
:020000040000fa
:0401d400c80100005e
:020000040000fa
:0401d800c80100005a
:020000040000fa
:100200000f8020000eff20000e018800000000007b
:10021000000020000000e000020032000001200089
:100220002002880014000700620007000000e000c0
:1002300003003a0000002000010020000200370007
:100240000000200001002000810f7000010032003a
:1002500014000700000020000000e000020032004f
:100260000000020000000000e201020000000000a7
:100270000040da000000fe004440a90060002000b9
:100280000000e0000300320000002000a001880010
:100290004440a800000006008a1f78008b1f7800e9
:1002a0000000060091018800800478000000eb0047
:1002b0001a003700e284440032a0b4009905ba0065
:1002c000e284440032a0b4009906ba00e2844400fb
:1002d00032a0b4000006eb00476fde00fd07b2005d
:1002e000636ce10003003a00ebff07000000eb0045
:1002f0000a003700606ce10004003a00005deb008a
:100300008b05e900fdff3e00040037006168e10055
:10031000010032000086eb000b00070019c7ba008d
:100320001905ba000e04e00003003a000a00e000dc
:10033000e0ff3a0000000600fe07b2009e018800c0
:100340008a047800f5ff3700395dba008b05e900b3
:100350000c003200295dba008b05e900080032006c
:100360000c00e00003003a00e284440032a0b40034
:10037000f5ff370019ddba008b05e900faff3a00f6
:100380008904e800e184440032a0b40000000600c3
:100390000040da000000fe00800178000200370013
:1003a000b15978000201e9000200e000fcff3a00c8
:0803b00000000600000005003a
:020000040000fa
:0c03b800686f00006c6100006100000034
:020000040000fa
:1003c4001e00fa000080eb0040158800c722a90037
:1003d400c742a900c762a900c782a900d262a900c6
:1003e400d242a90062002000c11d28000e0078003e
:1003f400e8ff07006b0007003c00070011c0b300d2
:1004040010c0b300400007000e007800a1000700f0
:10041400803e200001002000bf00070033000700d9
:1004240011c0b30010c0b300370007000e007800fd
:1004340098000700f9ff37000200fa00004f780027
:100444001e00fb0061006000004078000004e00032
:1004540002003200cb22a80001003700cb22a90001
:100464001e00fb00620060000000e0000200320099
:10047400cb42a80001003700cb42a9001e00fb00bc
:10048400640060000000e00002003200cb62a800bb
:1004940001003700cb62a9001e00fb006800600069
:1004a4000000e00002003200cb82a8000100370007
:1004b400cb82a9000080fa00000006000200fa00c6
:1004c400004f7800d662a9001e407800daff0700ca
:1004d400d642a80040002000010020008e00070042
:1004e400d642a9000080fa00000006000000fa00cd
:1004f4000040eb00f1ff070010c0b300efff07005e
:100504000080fa00000006000600fa004047980048
:10051400514798004e409000e14f50000e003a00c1
:100524005e409000f047b000004f78001e00fb00d2
:100534004480de00104798009e4078006fc0600041
:10054400204798001e409000dcff07002e409000da
:10055400daff0700110037004e409000e24f5000d0
:100564000e003a00de409000f0cbb30000c0400023
:10057400004f78001e00fb004480de001047980006
:100584009e4078006fc06000204798001e40900095
:10059400caff07002e409000c8ff07000080fa0041
:1005a400000006000000fa000040eb00a2ff070074
:1005b40040012000010020005700070030c0b300b4
:1005c400beff070050002000010020005200070079
:1005d40030c0b300b9ff0700b000200001002000c4
:1005e4004d00070030c0b300b4ff070020c0b300c3
:1005f400b2ff070020c0b300b0ff070080c0b30003
:10060400aeff07000040eb00acff0700c0c0b30022
:10061400aaff07000040eb00a8ff070060c0b3007a
:10062400a6ff07000080fa00000006000400fa009c
:10063400204798002e4090006f4f6000ae4090001d
:1006440000cfb30000c0600010479800d662a80035
:100654001e4090000000fb004480de000040780053
:1006640075ff0700d642a800800220004b00070057
:10067400d642a9001e4078006fff0700d642a800aa
:100684008002200045000700d642a9000080fa003d
:10069400000006000400fa00100798000000eb00b8
:1006a400000f7800060037001e0078009e009000be
:1006b4000080400010407800dcff07001e0fe800b7
:1006c4001e0078009e0090000080400010407800da
:1006d4000004e000f4ff3a000080fa000000060085
:1006e4000000fa0010c0b30074ff0700c0c0b300dc
:1006f40072ff07000080fa00000006000000fa0004
:1007040010c0b3006dff070080c0b3006bff07008b
:100714000080fa00000006000400fa00008fbe000a
:100724009e00900080bb20000088b9000001780082
:100734001e0078006000b90000007800000141004c
:100744009e00780080bb20000008b8000101410031
:1007540082007800008fbe00008fbe000000000001
:100764001e0090001e00700000f0a7000000ea00c8
:100774000000ea004f00de00004078000081eb003a
:100784008081eb001e0f41005e9749000004e000e9
:10079400f3ff3a000080fa00000006000200fa00ad
:1007a400000f78001e0078007e00b9000000780079
:1007b4004200de00000f7800000000001e007800f8
:1007c40000f0a7000000ea000000ea004f00de008d
:1007d400004078001e0fe9000004e000f7ff3a0033
:0807e4000080fa00000006008d
:020000040000fa
:0200000401f009
:040000000387000072
:020000040000fa
:0200000401f009
:040004003f000000b9
:00000001FF
