:020000040000fa
:080000000001040000000000f3
:020000040000fa
:04000800d40100001f
:020000040000fa
:04000c00d40100001b
:020000040000fa
:04001000d401000017
:020000040000fa
:04001400d401000013
:020000040000fa
:04001800d40100000f
:020000040000fa
:04001c00d40100000b
:020000040000fa
:04002000d401000007
:020000040000fa
:04002400d401000003
:020000040000fa
:04002800d4010000ff
:020000040000fa
:04002c00d4010000fb
:020000040000fa
:04003000d4010000f7
:020000040000fa
:04003400d4010000f3
:020000040000fa
:04003800d4010000ef
:020000040000fa
:04003c00d4010000eb
:020000040000fa
:04004000d4010000e7
:020000040000fa
:04004400d4010000e3
:020000040000fa
:04004800d4010000df
:020000040000fa
:04004c00d4010000db
:020000040000fa
:04005000d4010000d7
:020000040000fa
:04005400d4010000d3
:020000040000fa
:04005800d4010000cf
:020000040000fa
:04005c00d4010000cb
:020000040000fa
:04006000d4010000c7
:020000040000fa
:04006400d4010000c3
:020000040000fa
:04006800d4010000bf
:020000040000fa
:04006c00d4010000bb
:020000040000fa
:04007000d4010000b7
:020000040000fa
:04007400d4010000b3
:020000040000fa
:04007800d4010000af
:020000040000fa
:04007c00d4010000ab
:020000040000fa
:04008000d4010000a7
:020000040000fa
:04008400d4010000a3
:020000040000fa
:04008800d40100009f
:020000040000fa
:04008c00d40100009b
:020000040000fa
:04009000d401000097
:020000040000fa
:04009400d401000093
:020000040000fa
:04009800d40100008f
:020000040000fa
:04009c00d40100008b
:020000040000fa
:0400a000d401000087
:020000040000fa
:0400a400d401000083
:020000040000fa
:0400a800d40100007f
:020000040000fa
:0400ac00d40100007b
:020000040000fa
:0400b000d401000077
:020000040000fa
:0400b400d401000073
:020000040000fa
:0400b800d40100006f
:020000040000fa
:0400bc00d40100006b
:020000040000fa
:0400c000d401000067
:020000040000fa
:0400c400d401000063
:020000040000fa
:0400c800d40100005f
:020000040000fa
:0400cc00d40100005b
:020000040000fa
:0400d000d401000057
:020000040000fa
:0400d400d401000053
:020000040000fa
:0400d800d40100004f
:020000040000fa
:04010800d40100001e
:020000040000fa
:04010c00d40100001a
:020000040000fa
:04011000d401000016
:020000040000fa
:04011400d401000012
:020000040000fa
:04011800d40100000e
:020000040000fa
:04011c00d40100000a
:020000040000fa
:04012000d401000006
:020000040000fa
:04012400d401000002
:020000040000fa
:04012800d4010000fe
:020000040000fa
:04012c00d4010000fa
:020000040000fa
:04013000d4010000f6
:020000040000fa
:04013400d4010000f2
:020000040000fa
:04013800d4010000ee
:020000040000fa
:04013c00d4010000ea
:020000040000fa
:04014000d4010000e6
:020000040000fa
:04014400d4010000e2
:020000040000fa
:04014800d4010000de
:020000040000fa
:04014c00d4010000da
:020000040000fa
:04015000d4010000d6
:020000040000fa
:04015400d4010000d2
:020000040000fa
:04015800d4010000ce
:020000040000fa
:04015c00d4010000ca
:020000040000fa
:04016000d4010000c6
:020000040000fa
:04016400d4010000c2
:020000040000fa
:04016800d4010000be
:020000040000fa
:04016c00d4010000ba
:020000040000fa
:04017000d4010000b6
:020000040000fa
:04017400d4010000b2
:020000040000fa
:04017800d4010000ae
:020000040000fa
:04017c00d4010000aa
:020000040000fa
:04018000d4010000a6
:020000040000fa
:04018400d4010000a2
:020000040000fa
:04018800d40100009e
:020000040000fa
:04018c00d40100009a
:020000040000fa
:04019000d401000096
:020000040000fa
:04019400d401000092
:020000040000fa
:04019800d40100008e
:020000040000fa
:04019c00d40100008a
:020000040000fa
:0401a000d401000086
:020000040000fa
:0401a400d401000082
:020000040000fa
:0401a800d40100007e
:020000040000fa
:0401ac00d40100007a
:020000040000fa
:0401b000d401000076
:020000040000fa
:0401b400d401000072
:020000040000fa
:0401b800d40100006e
:020000040000fa
:0401bc00d40100006a
:020000040000fa
:0401c000d401000066
:020000040000fa
:0401c400d401000062
:020000040000fa
:0401c800d40100005e
:020000040000fa
:0401cc00d40100005a
:020000040000fa
:0401d000d401000056
:020000040000fa
:0401d400d401000052
:020000040000fa
:0401d800d40100004e
:020000040000fa
:10020000af9520000eff20000e01880000000000c6
:10021000000020000000e000020032000001200089
:100220002002880014000700ee0007000000e00034
:1002300003003a0080a821000100200002003700de
:100240000000200001002000810f7000010032003a
:1002500014000700000020000000e000020032004f
:1002600000000200000000005e1902000000000013
:100270000040da000000fe004440a90040052000d4
:100280000000e0000300320000002000a001880010
:100290004440a800000006008a1f78008b1f7800e9
:1002a0000000060091018800800478000000eb0047
:1002b0001a003700e284440032a0b4009905ba0065
:1002c000e284440032a0b4009906ba00e2844400fb
:1002d00032a0b4000006eb00476fde00fd07b2005d
:1002e000636ce10003003a00ebff07000000eb0045
:1002f0000a003700606ce10004003a00005deb008a
:100300008b05e900fdff3e00040037006168e10055
:10031000010032000086eb000b00070019c7ba008d
:100320001905ba000e04e00003003a000a00e000dc
:10033000e0ff3a0000000600fe07b2009e018800c0
:100340008a047800f5ff3700395dba008b05e900b3
:100350000c003200295dba008b05e900080032006c
:100360000c00e00003003a00e284440032a0b40034
:10037000f5ff370019ddba008b05e900faff3a00f6
:100380008904e800e184440032a0b40000000600c3
:10039000000000000000000000000000000000005d
:1003a00000000000000000000040da000000fe0035
:1003b0000a00fa0011002000b1bf9f00c0bf9f00db
:1003c0006a805700cf0807004fb897000080fa00f6
:1003d000000006000a00fa00e20f500034003e0060
:1003e000b04a8000e10f500003003200e20f5000dd
:1003f00011003a000c003700c32020000300e00089
:1004000001003a000040da000c02e2000200350070
:100410001422ef000de2a8000f42ab000d003a00dd
:100420000f42a8000b003700632120000300e0000a
:1004300001003a000040da001602e2000200350036
:100440001e22ef0017e2a8001942ab0001003a009b
:100450001942a800820178000b0037003102fb002e
:10046000e10f500004003a000f22ab00feff3a00fb
:1004700084108800030037001922ab00feff3a0009
:10048000d41088008301e9000300e000f3ff3a0084
:10049000e10f500003003a000f02ab00feff3200f4
:1004a0000b0037001902ab00feff320008003700d6
:1004b00033002000b3bf9f00c0bf9f00d1bf9f008b
:1004c000e2bf9f006a805700900807006fb997004d
:1004d000020078000080fa00000006000a00fa001e
:1004e00051002000b1bf9f00c0bf9f006a8057002d
:1004f000880807005fb897000080fa000000060037
:10050000889fbe0080047800c04a80000000e000a0
:1005100004003a00190007000084eb000000e0002e
:1005200008003500c84a80000900e00005003200dc
:1005300009004400110007000000e00001003d0038
:100540000084eb00080078004f04be0000000600a5
:10055000000178001001e200020035001061a800df
:1005600011e1a80030088000410880000200e0008e
:10057000010032000089be00000006008000780003
:100580000100e00003003a0000002000c04a88009b
:10059000000005000080eb0002002000828f500068
:1005a00002003e00c14a88000000eb000000060087
:1005b0004400f800040f2000240288000000e90035
:1005c0001201c30000800800020000003102780020
:1005d000b20278001201c0000000cd004400f90012
:1005e000000006000000050003f0a200889fbe0086
:1005f0008a9fbe008c1f78008200070089003300ac
:100600006450e1004f0032006420e10052003200eb
:1006100003826c0007003b000905d0000306d000f0
:10062000820f54000c065d00020039000200320007
:1006300089017800030678008582550004003d009a
:100640000003fd008103fd008502ea008b85420066
:10065000840f720002003b0060001000e080180070
:100660006011b8000005eb007a28e1000a003900ab
:1006700006007800c75ddd00f707b20087807500cf
:100680002d003700828171000a0178006105600049
:100690008180d1000080d3008502e900f9ff3b0092
:1006a000060440008784480002003b0060041400f8
:1006b000e0841c000988a300070032008a817100d1
:1006c00082817100610164008904d1000884d30033
:1006d0008b05e800170037000978a30013003a00e3
:1006e0000b00e000130034008b05e900080444000f
:1006f00089844c000a4474000978a3000d003a0074
:100700000b00e000070034008b05e90008044400fa
:1007100089844c0001003a000b0020000978a300f6
:10072000f7ff32000001eb00020037008281710008
:100730000a0178000d0007000cf0a70001f0a000ee
:10074000410037006420e10002003a00838f6c0012
:10075000410033000801be000200be003a0037002d
:100760004f89de008201780072003700810020008e
:10077000618055000b003d000b00200061fe2f0042
:100780000100e1001d0034008281710061016400fc
:100790008904d1000884d3000000e800faff3a0081
:1007a000710020006100640003007000020060001e
:1007b0000900320061044400e0844c000988a5006f
:1007c000050032008b05e8006808e10002003a00ed
:1007d0008904d1000884d300f20f20000258e10000
:1007e00005003d00c75ddd00f907b2008980750096
:1007f00008007800000006000bf827008b00780046
:10080000000005000004be00890007000003be00d0
:100810000405be000200be0085000700844f75007d
:10082000000006000200be006450e1000500360032
:100830006420e100020036000968a30001003a00cc
:100840000800be000160a0004f0678004f05be0002
:100850004f04be0000000600f0ff2f00f1ff27004c
:10086000f9ff3700889fbe008a9fbe008c1f78006a
:10087000e4ff0700ebff330003866c006450e100e7
:10088000240032006420e100270032006150e100c2
:10089000220032006120e100210032008b854200fd
:1008a000eb07b1000134b800003ab8000804420078
:1008b00089844a00013ab8000030b80088804000be
:1008c00009014a0004003300000040008180480014
:1008d000020149008b05e900c909dd0083017000b0
:1008e0000100320013002000c814de004814dd00af
:1008f0004709de001200b200c808de00088470005c
:100900009aff070001f0a1000cf0a70001f0a00081
:10091000cdff37006120e100cfff32000801be00ab
:100920000200be00f7ff37006150e100fcff3a0013
:10093000c9ff3700881f7800030478000300e00037
:1009400007003d0060001000e08018006001190001
:10095000e081190002003b0001f02d000300370088
:100960000400070008f0a70001f0a0004f04780081
:1009700000000600889fbe008a9fbe0000827000b3
:100980000402710004827100260032000004be00df
:100990000200be006011b8006b0920009502200023
:1009a0000182cf000a0039000541b1000082cf006a
:1009b000070039000541b1000982cf000400390069
:1009c0000541b1000882cf00010039000541b100a6
:1009d00005425200120032000a003b008281710081
:1009e000610164008100d1000080d3008984d300bc
:1009f0000884d3008b05e8000442e800f7ff3a00c2
:100a0000070037000804440089844c0000004800b7
:100a1000818048008b05e9000442e900f9ff3a00b3
:100a200052ff07004f05be004f04be000000060045
:100a3000c70ade00f107b200f50fb200080032006d
:100a4000e1cf4200020032000170a0002400050046
:100a5000810f700001003200040805004400050009
:100a6000810f700002003a00140005008502e900c1
:100a70000000400081c04800fcff3b000170a00066
:100a8000240005000000eb00b1fe3700a187200024
:100a90006a000700800078000080eb000100e000a1
:100aa00004003500a1872000a000200002000700fc
:100ab0004f80de0000000600889fbe008a1f78007d
:100ac0000004be00c900900069009000808f5000b3
:100ad0000500390009007800b70007008080eb00ae
:100ae0000000e0001600350008457800490090003d
:100af00008587800c00498001900780000b8a300d6
:100b000004003a0000a8a30007003200ea4f540096
:100b100005003a00090078000d0007008080eb0016
:100b20000000e00006003a0000c02000190060004c
:100b30000200320049009000e00498008a80fb0027
:100b4000010078004f0578004f04be000000060049
:100b5000889fbe008a1f7800000478000800e0002b
:100b60000d003a00888c2000700544008004eb00e2
:100b7000580078000000e00004003200f4ff070095
:100b80000000e00001003d008084eb008a0f54006b
:100b9000f7ff3a002500370000002200180060002f
:100ba0008004eb0021003200a80490000f00370001
:100bb00009015100384090000000fb0089007800d6
:100bc00004fe07000000e00007003c002800900041
:100bd0004004980060049800500c98001890a00001
:100be0008084eb00110037008084440048019000ad
:100bf000828f5400eeff39002800900040049800d6
:100c00009800780002c020000281600001003a00d4
:100c10003800900001e8a300020032006004980050
:100c200001003700500c98008004eb0009007800a8
:100c30004f0578004f04be0000000600889fbe00ec
:100c40008a9fbe0080047800010478002c003700e1
:100c5000c800900068009000808f500004003900a8
:100c600008007800540007000000e000370035005d
:100c7000004020001800600009003200a1002000a0
:100c80000900780042000700800578000b00e000b2
:100c900003003200618514000a8545000400370016
:100ca0000900780034000700000578008005eb009b
:100cb00048009000e8009000808050008a8f50002b
:100cc00002003100010578008005eb000a01780080
:100cd0008900780021000700480090000a004000c9
:100ce000400498000b00e000040032000800780087
:100cf00097ff07000000e00014003a008a844400d7
:100d00001904e000d2ff3a000080200018006000c3
:100d100006003200080078008dff07008000780090
:100d20000080eb000100e00009003a0001c0200053
:100d3000988060000000eb00050032004800900041
:100d4000600498000000eb00010037000080eb0019
:100d50004f05be004f04be00000006008001780071
:100d600002003700b15978000201e9000200e000fa
:100d7000fcff3a00000006008000780001017800c6
:100d80003104e000fdff3a000000510000000600c1
:100d90000001eb0000027800b041780081cf5100e3
:100da00001003a00040178000304e000f9ff3a0072
:100db0000200780000000600889fbe008a1f7800ad
:100dc00000047800c8009000680190000000eb006b
:100dd000828f50003c003900180078002200290062
:100de00002016000e20f51000700320001202400e0
:100df0000000e00001003d0001202000008c700098
:100e00000080eb0030003700020026000200600086
:100e1000820f500009003a0038009000808f500087
:100e2000060039000800780049ff070080007800bc
:100e30000080eb000100e00023003a001805780074
:100e400000c020000000650018003a00a8049000cf
:100e50006002200008004000808f540013003a0018
:100e600000202000a9040700200498000000e000f2
:100e700005003a0029049800490498008904e80014
:100e800039049800080037000a60a0000a0c7800b6
:100e90004004980001202000808040003104980028
:100ea000400c9800500c98000c000700280090009f
:100eb000500498003800900060049800000026005c
:100ec000180c70000000eb004f0578004f04be00c6
:100ed000000006000081200061003700881f7800b4
:100ee000089520001804e00003003a00f9ff07000d
:100ef00020c0b300004c78004f04780000000600ca
:100f0000889fbe00000478000800780010ff0700ea
:100f10008004780000042000180060000200320005
:100f200028009000ab0307000000eb0020049800ad
:100f3000384090000004e000050035000000fb0090
:100f40001bfd07000000e000010032008084eb0080
:100f5000181090000000e000080032005ffd07005c
:100f60000000e000010032008084eb0018109000c7
:100f7000980307000000eb00101498000008200000
:100f800018006000150032000001eb006000b8009e
:100f9000a38c20000202d00063027a00880f520066
:100fa00005003a00000040008180480000804100b8
:100fb0000008eb000600370061004000e0804800b8
:100fc0000201e800e80f5000e08f5800f0ff3a00ff
:100fd000080078007f0307000e003700000c78003f
:100fe00000c0eb0030449800600220000800400080
:100ff000200498004004980050049800400c980089
:1010000060049800500c980070049800760044002a
:10101000000c9800090078004f04be000000060094
:10102000881f78000004eb006140b800e2ff2f0049
:10103000f3ff2f0048070700828d20006200780030
:101040000000e00001003200adff07000804e800e6
:10105000e80f5400f4ff3a004f0478000000060047
:10106000010020000100e0000800320001008000c3
:101070000100e000050032008100e9000100880065
:101080008100d0000200800000b17800000006005e
:10109000889fbe0000047800010078008204780078
:1010a0008801780009017800110020007b03070007
:1010b000890f5000010032000004eb0008007800a6
:1010c0004f04be00000006000000fa00e88157004f
:1010d0004fb99700a18720008084200002000700fc
:1010e0000080fa00000006006200fa00889fbe003f
:1010f0008a1f7800000578008104780002047800d7
:101100008300780080f92f000f0040002f050700b2
:101110009a979f00a9979f000000eb00b09f9f0047
:101120001885fb008a04fb000a05ea004f55de0023
:1011300050022000808f54000d003200e10f550056
:101140000b003a000a017800880078002f90970081
:101150009f91970003000100a0979f000000e0000e
:101160008e0032003f9897000000e800b09f9f007b
:101170000a04440050022000808f54000400320012
:101180000900e000e6ff3a003f989700840037002e
:101190000000eb00909f9f00809f9f00f0979f00b2
:1011a000e0979f00d0979f00c0979f0007003700ef
:1011b000619420000100500000004000a193200035
:1011c00061007800df98970001007000d09f9f00b9
:1011d0008804780009047800384578008a00fb000c
:1011e00060942000fd0307000000e000f0ff3a00db
:1011f000a1c2b300814f55000e003a00cf8897007e
:101200000180e900c08f9f0010007800c09f9f0000
:101210000000e00005003d000000ea00c09f9f00c4
:101220005f9897000020a000d09f9f000904e8006d
:101230000f003700c09f9f000000eb000500370043
:10124000f2ff2700820f5000020032006a01b9004d
:10125000028040000904780088047800b900fb008f
:101260000103b100e98f5000f5ff3600c09f9f00d9
:10127000e0c2b300984f1000020032000080eb0083
:1012800019003700a0c2b300d84f100007003a0081
:10129000cf8897000180e900c08f9f001000780080
:1012a000a09f9f000804e800100037000000eb003a
:1012b000a09f9f008800780005003700f3ff2700fb
:1012c000830f5000020032006a02b900040041009e
:1012d00001047800880078003101fb000203b100ae
:1012e000e90f5100f5ff3600a09f9f009844780059
:1012f0008900fb0020932000b80307000000e000f5
:10130000020032000804e800010037008044eb00ce
:10131000c97f9f0080c6b30080cf540004003a000c
:1013200098cf14000a003a006640500006003700cb
:10133000c0c6b30080cf540005003a0098cf140017
:1013400003003a0065404000c07f9f000804e800a9
:101350001801fb00e3fb2f008f81410081f92f0072
:101360008f804000a0f92f000f0040001000070000
:101370000000e00009003a00e1fb2f008f804000f0
:10138000a0f92f000f004000d40307000000e00088
:10139000020035000804e80061ff37000080eb0020
:1013a0004f0578004f04be000080fa0000000600e0
:1013b000889fbe008a1f780000047800824478006d
:1013c0000305780070c4b30080cf54000a003c00cd
:1013d00000c0e90080cf54000f003d0050c2b300b0
:1013e00080cf5400350032007c40400080cf540054
:1013f00035003a000800370010c6b30080cf540013
:101400000500320030003500b0c9b30000c0440010
:10141000e24f50002c003e0028619000c0c4b30091
:10142000804f510006003a00110178006800510019
:10143000800878005001be004000be000500370063
:101440001101780064005100800878001000be008f
:101450006a050700009cbe000294be00b800900020
:10146000780090000100e00002003d00d1c2b3000e
:1014700008003700881090000118a3000200320015
:10148000b1c2b300030037000108a300040032001a
:1014900001c2b300017578000000e80070049800f4
:1014a00078009000000545006a0498008900fb0060
:1014b00008007800100007000b003700780090004b
:1014c0000975780006003700780090000005450097
:1014d0000904e00001003a0059c2b300094d780048
:1014e0000000e800700498000000eb004f05780051
:1014f0004f04be00000006002f04b000889fbe000d
:101500008a9fbe008c9fbe008e1f78000007780067
:1015100081f79f003e04be002e05be005e089000cd
:101520000000e00002003d0060002000500f980025
:101530008e00780020fb2f000f0040003d030700c5
:10154000e20f50000a003a0030002000100f98000f
:10155000b1c9b3000ff0970081404000e08d20003a
:10156000e1cf50000d003e00a08d20000b003700a1
:101570000000e0000f00340030002000100f980041
:10158000b1c9b3000ff1970081404100608e200087
:10159000e1cf500001003e00208e2000ee009000c0
:1015a000b0487800b068780010407800904098000b
:1015b000f30037000000e00005003a0022fb2f0096
:1015c0000f014100001978008001eb00e7003700af
:1015d0006022b8006033b8000800be000a01be00f7
:1015e0004e0407000000e00001003d000bf0a200e7
:1015f000705927009f9897000088b900026a280058
:1016000013002000a9040700640650009c9f9f005f
:1016100013003b0063061600c0ff2f0000066600a3
:101620008c01ea00939f9f00ad8e20000800be0051
:101630000a01be00070037000c08a30003003200b7
:101640003d02be002d03be003b0507000c86d10005
:10165000e88646000c00e000f7ff3c001800370069
:101660000c00e00018003200c0ff2f0000066600ea
:101670009c9f9f00ad8e20006000b80002002000fb
:1016800003ff2300070037000c08a300030032000b
:101690003d02be002d03be00270507000c86d100c9
:1016a000e88646000c00e000f7ff3c000002be00a8
:1016b0000203be000800be000a01be0021040700ac
:1016c0000004be000205be00de08900060c6b30044
:1016d0000ff29700804f520004003200600020009b
:1016e00062c4b300824f520002003a009f9a9700f2
:1016f0006a80420081004000f1b79f00010378003a
:10170000f30f53000200340037012000f7b79f00a9
:1017100000c3b300c0779f0056fb2f000f034300a8
:101720000e007800a0b79f00060778003d00370044
:101730000800be000a01be00cf0407000006be007c
:101740007fb1970068015100f2b79f004240a900a5
:101750000c003400f40407000002be000203be00c7
:101760000800be000a01be00690507006022b8003b
:1017700046782d0077192400ef0407000004be000e
:101780000205be00e80047008e0020000802be00ef
:101790000a03be00b4b79f00c5b79f00d6b79f002d
:1017a000e7b79f000c01be00010478000c00370071
:1017b000a400200005002000c0fd2f000f00400005
:1017c0000a0207006fa89700ffa897000fb19700c3
:1017d0009fb1970005c3b300056441000001be003e
:1017e000e00f5100e08f5900030034000e07e900bc
:1017f000e10f4700eeff3a00880078003fb4970001
:10180000cfb497005fb59700efb59700020037009f
:1018100000c3b300806078000e07e900fcff3b00c6
:10182000688740007fb397000600e000070034009f
:101830006022b8006033b8000800be000a01be0094
:10184000bb0307000000e000b9ff3c000e03780076
:101850002fb7970051fb2f008f80400001035300ea
:101860009f9b970067804300909f9f000200370076
:101870000603e9000000e900010178008200780019
:1018800003c3b300b1cf1100f9ff3200909f9f0056
:10189000de09900061c6b3000ff29700814f52003d
:1018a0000300320061c4b300814f520002003a00cd
:1018b0000000e8000a0037001000200051c6b30005
:1018c0008ff2970081cf520005003200054078006a
:1018d00050c4b2000080fb000000e9004f00de00b1
:1018e00083014000868f510001003400860178009a
:1018f0000300e0001d00350000c3b300868f5100d7
:1019000006003d0062c279006940400041c3b30057
:10191000814f520001003c00694050008300e90003
:101920008100410001003700840178000302e900d2
:1019300001037800a142780080cf5200faff320004
:1019400091c3b300814f500001003a00054be800fd
:101950000400e00005003d000201e9008301e80009
:101960001f9b97000603e800969f9f008ff3970048
:101970008700fb001f9a97000e0078000600070002
:101980004f0778004f06be004f05be004f04be0053
:101990002f04b10000000600f0874700889fbe00ba
:1019a0008a9fbe008c9fbe008e1f780000047800c6
:1019b000814478000205be00040678000b00e000b8
:1019c00002003c001b0020002a95200060c6b300e6
:1019d00080cf54000e00320060c4b30080cf5400aa
:1019e0000b00320070c6b30080cf540003003200f9
:1019f00070c4b30080cf540081003a00e40f460069
:101a00007f00350058089000800f56007c003d0094
:101a10000c06e80060c6b30080cf5400100032000e
:101a200060c4b30080cf54000d0032000810900055
:101a30000038a30004003a0058089000808f550039
:101a400001003d005b0c9800580890000c0050000d
:101a5000500c980002003b000000eb00500c980076
:101a600018089000e80090000c00e00026003c0000
:101a700002c3b300827078000000e800100c9800e8
:101a8000d80890000100e00003003c00881090009e
:101a90000138a30005003200e8009000e2c2b30064
:101aa000827078000000e800100c98005808900040
:101ab0008c00ea00810f500001003d000006ea00a2
:101ac0008c00ea00210c9800000646005c0c98008f
:101ad0008b0f5600010034000b0678003c0c980078
:101ae000e800900018089000008040000c01780089
:101af0008a00780099fc0700580890000c065000f6
:101b00004c0c9800900037008c8f550018003d0059
:101b1000008040000b0178008a0078008ffc0700ed
:101b20001808900000804500100c98008b055600a6
:101b30002b0c9800d80890000100e00003003c0046
:101b4000881090000138a30006003200e8009000e1
:101b5000e2c2b30082707800380890000000e8000c
:101b6000300c980058089000400c98007600370020
:101b7000008040000c0178008a00780077fc0700a4
:101b80001808900000004600100c98008c85550045
:101b9000d80890000100e00003003c00881090008d
:101ba0000138a30005003200e8009000e2c2b30053
:101bb000827078000000e800100c9800580890002f
:101bc000808f55000100340080057800e800900007
:101bd00018089000008040008c0045000b01780040
:101be0005efc0700180890000b004000100c9800e5
:101bf000580890008b0550002b0c980052003700bd
:101c000018089000e80090009a7078000000e80042
:101c1000100c9800d80890000100e00003003c0080
:101c2000881090000138a30005003200e800900001
:101c3000e2c2b300827078000000e800100c980047
:101c4000580890000000e000100034008b05e90007
:101c5000808f55000100340080057800e800900076
:101c600018089000008040008a00e8000b0178000e
:101c70003afc0700180890000b004000100c980078
:101c8000580890008b0550002b0c9800e80090003d
:101c90001808900000804000095878000007e8000c
:101ca0000c00e00004003500b1c2b3000148780028
:101cb0008e04780004003700d1c2b30001487800d8
:101cc0008e0478000c06ea007d8557008006eb0044
:101cd00009003700a20020008c00780072805700b5
:101ce000310007007fb097008fb89700016d780032
:101cf000000678008d06e8000c00e000f5ff3c00cf
:101d00000d00e00009003a008e04780000c3b30023
:101d1000805c7800050037008d06e900fc805700e4
:101d200061c07e0002c3b300825c40000d00e00091
:101d3000f9ff3c00e8009000180890000080400087
:101d400080845400390c98000810900074006000e2
:101d5000f00f50000e003a009808900078009000b4
:101d600000804000a808900001004000b8089000e2
:101d700001004000c808900001004000f8089000f1
:101d8000810f500002003d0000805000000c9800c0
:101d90004f0778004f06be004f05be004f04be003f
:101da0000f01b100000006008002780001037800f6
:101db000110009000203d80080017800830a78002e
:101dc0000299b900020153009202980005007800c0
:101dd000000006000000e0002f003200c001780083
:101de000e38f51002c0036000308a3002a003a00bc
:101df000714a80000100e00002003200810f5000b3
:101e00000400310011009800704a88001600370065
:101e100082007800110190000200e0000200320010
:101e2000800f5100faff39001102780084824000cf
:101e3000850f500018003900808f520003003a00cf
:101e40008308420001007800070037000200e0002c
:101e50000300320083014000830f51000e0039005f
:101e60001200980090009800900090000100e0009f
:101e70000900320010014000828f500006003a0035
:101e8000c29420000009eb00100178001108410005
:101e9000910090001100980000000600889fbe008d
:101ea0008a9fbe008c9fbe008e1f780000067800bf
:101eb0000104780002007800830478000881b900ea
:101ec000020778000200e000420032000800e00053
:101ed0004100320082057800c9009000690090003e
:101ee000808f50000400390009007800b2fb070021
:101ef0000000e000290035000040200019006000cb
:101f00000a0032000b017800a10020000c007800cc
:101f1000a8000700800678000d00e00006003200ef
:101f2000610516000a854600040037000b0578009d
:101f30008006eb00010037000b0578004900900097
:101f4000e9009000808050008a8f5000020031002c
:101f5000010578008006eb000a0178008c0078000b
:101f60007efb07008a855500490090000a0040006a
:101f7000c00498000d00e000040032000900780061
:101f8000f3fa07000000e00004003a000b00e00054
:101f9000020032000a064600cfff37000080200012
:101fa000190060000200320009007800e8fa07001a
:101fb00000c02000190060000200320049009000bb
:101fc000e00498008b055700110009008885d800af
:101fd000010037000000eb004f0778004f06be00fd
:101fe0004f05be004f04be0000000600881f7800a9
:101ff0008a9fbe008c9fbe00000478000205be00d0
:102000000406be000401be000a00be00270207004d
:10201000008cbe000c01be004f03070000055500f8
:1020200081855d002a0498003b0498000800780030
:102030004f06be004f05be004f04780000000600aa
:10204000889fbe0000047800614a80000100e00023
:1020500002003200010078000d003700714a800054
:10206000e094200004003700910f54002500360052
:102070000180e800910090000100e000faff3a00c2
:1020800010003700920f54001e0036000280e80056
:10209000100178000200e000faff3a001101780018
:1020a000714a8000e094200004003700910f540032
:1020b000140036000180e80091009000828f5000eb
:1020c000faff3a00a94a8000888f540001003100cd
:1020d00088047800090078004c0007000000e00048
:1020e00004003a00888f5400050032008904d100b2
:1020f000f5ff37000918780036ff0700d2ff3700d8
:102100000000eb004f04be0000000600881f7800ae
:10211000630440000800a1008000eb00800f540021
:1021200021003600e30f540001003e00480020006b
:1021300008007800c2ff07008000eb000000e0000c
:1021400019003200900078009101780064815100fc
:10215000880f51000300310011019000020878003f
:1021600007003700088140000208780091019000c4
:1021700013019800100178001109140088087800f4
:10218000100178000000eb000200e00004003200c3
:10219000920190000300e000010032000280e8009c
:1021a000604a88008180e800010078004f047800d0
:1021b0000000060003003700b0cf10000500320019
:1021c0000201e900800178000200e000faff3a0015
:1021d0000000050003007800000006000200370040
:1021e0000304e000060032000001780002007800dd
:1021f000b041780081cf5100f9ff3a00010037006b
:102200000001eb000200780000000600800078006a
:102210000000eb000100e000050034000100780040
:10222000b7f80700e10f400001003a000000eb00a2
:1022300000000600889fbe0000047800e68440008d
:102240001900d0004500de00f27f2000820f500010
:1022500010003a00000ceb00990478006f816400d4
:10226000200020001b003a00210190000200e00045
:1022700018003a00110190000200e00015003a0039
:10228000100020001100e0001200320020002000a9
:10229000100037000000e00004003a000100780060
:1022a000cc0007000000e00008003c00f20028001d
:1022b0001901610001fe2300810c710021c02f0073
:1022c000010c40000080eb0002003700000ceb0026
:1022d0000000eb004f04be00000006000400fa00fe
:1022e000889fbe008a9fbe008c1f78000004780083
:1022f00001067800f80d9000780090008085550068
:1023000008089000808555001808900080855500c9
:102310002808900080855500380890008085550079
:1023200048089000808555000002220090bf9f0061
:1023300000032300a0bf9f00081090000028a30006
:1023400015003a000b00e000130034000b05780084
:102350008a047800e20f55000100360029002000b1
:10236000c801900009017800ee80570058009000e5
:1023700003000100500498000000e0008c003200cf
:102380006808900009004000600c9800090555009d
:102390004240a900eeff3c00780190000200e000fe
:1023a0000c003400c80190008c00780058009000a8
:1023b00003000100500498008080eb000000e00062
:1023c0007c003200e8089000780090000080400017
:1023d000600c9800880c90000900e00011003400a7
:1023e00009057800e28f5400010036002a00200021
:1023f000c80190000a017800ec8057005800900056
:1024000003000100500498000000e0006800320062
:10241000680890000a004000600c98008a8454000c
:10242000edff3700180990000200e0000c003400b6
:10243000c8019000e80090005800900003000100df
:10244000500498008080eb000000e000590032004a
:10245000e80890001808900000804000600c980088
:10246000a80c90000900e000110034000905780074
:10247000e28f5400010036002a002000c8019000bd
:102480000a017800ec80570058009000030001001a
:10249000500498000000e0004500320068089000f9
:1024a0000a004000600c98008a845400edff370059
:1024b000380990000200e0000e003400e8009000af
:1024c0001808900080804000c801900058009000db
:1024d00003000100500498008080eb000000e00041
:1024e00034003200e8089000380890000080400076
:1024f000600c9800c80c90000900e0001100340046
:1025000009057800e28f5400010036002a002000ff
:10251000c80190000a017800ec8057005800900034
:1025200003000100500498000000e0002000320089
:10253000680890000a004000600c98008a845400eb
:10254000edff3700081090008000eb000028a3008a
:10255000180032000b00e000160034008b047800f5
:1025600009057800e28f5400010036002a0020009f
:10257000c80190000a017800ee80570058009000d2
:1025800003000100500498000000e0000800320041
:10259000680890000a004000600c98008a8454008b
:1025a0004240a900eeff3c008000eb000100370034
:1025b0008080eb00010078004f0678004f05be00d8
:1025c0004f04be000080fa000000060001087800f9
:1025d00000000600e6004000110178000500280018
:1025e000850261006f0161008208780002003200fc
:1025f0001200200011003700a001900012002000fe
:102600000300e0000d003a00900190000300e0009c
:102610000a003a001000e00008003a0036003700d7
:10262000640340009608780080017800530b78001e
:1026300090097800040878007001510011027800b8
:102640000400e000f6ff320013003700640240008f
:10265000140378004f33de00838141008308730048
:1026600080017800d3037800cf3bde0014037800ac
:1026700006034300068a7300130278000402420036
:10268000100378004f33de00860972009001780055
:10269000038841000201e90091017800ef8f5100a9
:1026a000eaff3600100037008001780053037800fd
:1026b0004f33dd001002d1000408730064024000b3
:1026c00094037800cf3bdd001303d10086897300ab
:1026d000110378004f33dd009401d100030a730029
:1026e0009108d1000201e80091017800ff8f5100ac
:1026f000edff3e00ef8861009188720002007800d3
:102700000000060000c0da000000060000c0da0089
:102710000000060000c0da00000006008f1fd10094
:10272000110207008f87e9000000e00000000600aa
:10273000809feb000c0207008f87e9000000e0009b
:10274000000006002800fa00889fbe008a9fbe0095
:102750008c9fbe0003866b008f0007006400e100c1
:10276000440032006408e1004a0032006100e100e8
:10277000460032006108e10049003200ec064700e3
:102780006000b8003d02be003d03be00f486570065
:102790006011b8003d04be003d05be007d03200071
:1027a0000b0037000000a0008d06e9001300320086
:1027b0000402420085824a0006034b0087834b00d7
:1027c00000004000818048000201490083814900e7
:1027d0000802520089825a000a035b008b835b0067
:1027e000f0ff3b000802420089824a000a034b00c6
:1027f0008b834b008d06e900edff3a008482720066
:1028000086827200f707b2008782720001003200f0
:10281000150020001e0490003e0b9000060354009b
:10282000e63fb0000368a300070032000000a700e5
:102830000500a0008301d1000281d3008180d30074
:102840000080d3000603e8008301d1000281d30099
:102850008180d3000080d3000002eb000482d2000c
:102860002100070003f0a1000cf0a70003f0a00076
:102870005d003700640247006408e1005700320041
:102880003400be003401be00f6ff37006108e100ed
:10289000520032006011b8006000b800f1ff37004c
:1028a00003ff270002002000fbff3700839f680022
:1028b0000100e00002003d0060001000e080180010
:1028c0000300e00002003d0060011100e0811900fa
:1028d000110107004f00e00002003b006000100003
:1028e000e0801800000006001800200057002000bb
:1028f000080453000d003d000600200097fc2f0047
:102900000740e1001e003400848272006102600012
:102910008301d1000281d3008180d3000080d300e5
:102920000804e800f8ff3a00470020006104600056
:1029300005047400040464000d00320061004000ce
:10294000e080480060014900e081490003b8a5002b
:10295000070032000603e8006538e10004003a0091
:102960008301d1000281d3008180d3000080d30095
:10297000f87f20000830e1000300350008037800ec
:102980006000b8006011b8004433dd00f300b2000d
:102990008301730000000600680447000294be0033
:1029a0000094be00fc0447008694be008494be00e0
:1029b00009007800b501070008007800b30107009e
:1029c00099007800814f70000b003b000800be00aa
:1029d0008e0107004f00b10003003700f3ff27000e
:1029e000f2ff2f006110b9004f06be004f05be0078
:1029f0004f04be000080fa0000000600810378004a
:102a00000bf807000001be006000b8000478a300c6
:102a100013003a006220e10015003e000d0039006d
:102a20008301d1000281d3008180d3008301d100d2
:102a30000281d3008180d3008301d1000281d300c1
:102a40008180d3000538b000c42add00f300b20055
:102a50008381720007f0a70003f0a00000000600c9
:102a6000f3ff2700f2ff2f006110b900fbff3700d2
:102a700003ff2700f7ff37001400fa00889fbe000d
:102a80008a9fbe008c9fbe000004be000205be00ef
:102a9000680047000a90be000890be007b01070056
:102aa0000070a7000bf0a100304320009e029000b0
:102ab00080825200b0fe2f000028e10011003d008e
:102ac000b0fc2f000028e100150034001e09900022
:102ad0008e0890007e0090000501b0000201d10038
:102ae0008180d3000080d3008502e800fbff3a001c
:102af0000b00e000bcff3b0060001000e08018000d
:102b0000b9ff3700f0ff2f00f1ff27000b00e000b6
:102b1000b5ff3b000100280000002000b2ff370095
:102b20006000b800b0ff37004f89de0082017800f6
:102b30007d013700000000002800fa00889fbe00d9
:102b40008a9fbe008c9fbe0003866b0092ff070029
:102b50000028a30064003a000128a30067003a009f
:102b60000008a30062003a000108a30065003a00d3
:102b70001e009000be08900081064000ed3fb100ad
:102b8000f4805700ee019000111ab8008e099000f1
:102b9000311bb8009e099000311cb800511db800cf
:102ba000f485570046000700fe0190003a00070038
:102bb0008b85e8003e0007008e099000400007006a
:102bc000ee019000340007008b85e8003800070014
:102bd0008e099000400007009e0990001b18b80065
:102be000890440000a854800fe0190003400070077
:102bf0008b85e80038000700ee01900030000700e8
:102c00008e0990001b18b800890440000a8548000e
:102c10000a98a30008003a000402420085824a0094
:102c200006034b0087834b0008044c0089844c004a
:102c30000a054d008d06e90084827200850273004a
:102c40004c3add00850272000100320015002000c0
:102c5000443ade001400b2004538de00cb45dd000a
:102c60000b007000c540de00cb4ddd008b80700096
:102c70004549de00cb55dd000b017100c551de007a
:102c80000d03780018ff070003f0a1000cf0a70067
:102c900003f0a00054ff37001b18b8008502400065
:102ca00006834800e0834b0060044c0007003700b7
:102cb0001b18b8000603400087834800faff37005e
:102cc0001b18b8008703400008844800e0844c00cb
:102cd00060054d00000006001b18b8000804400005
:102ce00089844800faff37000108a3003bff3a003f
:102cf0005800be005801be00e3ff37000008a300e3
:102d000036ff3a0009047800f9ff370000000000a0
:102d100007f0a200160037006022b800060220006b
:102d20000000d0008180d2000482d2008582d200cf
:102d30000000a0000202520083825a00030031000a
:102d40000202420083824a000000a1000603e9005b
:102d5000f3ff3a0000000600020ab900001bb900a8
:102d60000200b8008100420081004300000006001c
:102d70002800fa00889fbe008a9fbe008c9fbe007c
:102d800007067800878669000c003b000304780082
:102d90008704780008f0a10009f0a100840f50001a
:102da000858f5800860f5900890f5c00030033009f
:102db0000cf0a20001003a000cf0a100f6fe0700a2
:102dc0006400e1005f003200780147006408e10020
:102dd000610032006c014700748557003200be006c
:102de0001201be003a04be001a05be001e03900088
:102df000be0a90008503530006003d000004fd005c
:102e00008104fd000205fd008305fd008703ea0043
:102e1000050378000df8a3000400320060041400dc
:102e2000e0841c0060051d00e0851d006022b800e4
:102e30007d0320000d38e1008006eb000b00390017
:102e40004433dd00f300b200830173003900370022
:102e5000848272000d027800e10664008b85d10047
:102e60000a85d3008984d3000884d3008703e9004e
:102e7000f7ff3b0008004000898048000a01490034
:102e80008b81490004003b0060001000e0801800c6
:102e900060011900e08119000358a3000900320005
:102ea0008d82720084827200610260008301d10011
:102eb0000281d3008180d3000080d3000603e800a4
:102ec0001b0037000348a30017003a000600e0008b
:102ed000170034000603e9000d00a30000004800bd
:102ee0008180480002014900838149000348a30012
:102ef0000f003a000600e000090034000603e90074
:102f0000000040008180480002014900838149009f
:102f100001003a000003eb000348a300f5ff320074
:102f20006022b8000200370084827200618266006d
:102f30006dfe070003f0a1000cf0a70003f0a00055
:102f4000a9fe3700640147006408e10002003a006e
:102f50000df8a300a1fe3a003200be001201be002f
:102f6000a1fe370000000000889fbe008a9fbe00bf
:102f70008c9fbe000404be000605be00809fbe00fc
:102f8000829fbe002f000700040678000800be00e4
:102f90000a01be002b000700840678004f03be0024
:102fa0004f02be008d4f76007fb0970013003300b4
:102fb000f0ff2f008b8f6b0006003b000d066600b4
:102fc0000c00a7000a00370007f0a6001000200040
:102fd0000a003700880f5200898f5a008a0f5b0061
:102fe0008b8f5b00030039001000200001003e00c1
:102ff0000000200007f0a7000000ea004f06be0016
:103000004f05be004f04be0000000600e4824000f1
:103010001078a30007003200640240001178a3007a
:103020003400be001401be00040032000330a700cb
:10303000000006003500be001501be000330a000f0
:103040000000060005ff270005826100070032002e
:103050000428e100010032002400050006000700fa
:1030600001003a00440005000408050002000700c2
:10307000f9ff3a00140005006f82610081027000c0
:103080008502710085027200000006008000780051
:103090005002be005003be004439de00f700b2000b
:1030a000f37f200003016100090032000218e100f3
:1030b00016003a008501720083017300838173005a
:1030c0000008200015003a004000200013003700df
:1030d00085017200830173008381730005003a004b
:1030e00004a8be0006a8be00100020000b00370098
:1030f0000201e9000402420085824a0006034b00f7
:1031000087834b000748a300f9ff32000740a00067
:1031100004a8be0006a8be00200020008000980081
:103120009200980000000600881f780003047800d1
:103130000300e00007003d0060001000e080180080
:1031400060011900e081190002003b0001f02d0030
:10315000030037000400070008f0a70003f0a000f8
:103160004f04780000000600889fbe0000827000b7
:1031700004027100048271002400320036432000f2
:10318000c50020008383cf000a0039000541b1004b
:103190008283cf00070039000541b1008183cf0051
:1031a000040039000541b1008083cf0001003900df
:1031b0000541b10085c353006022b80012003200ff
:1031c0000a003b0084827200610260008301d1002a
:1031d0000281d3008180d3000080d3000603e80081
:1031e0008743e800f7ff3a0007003700000040007f
:1031f0008180480002014900838149000603e900fb
:103200008743e900f9ff3a00b7fd07004f04be000d
:0432100000000600b4
:020000040000fa
:103214000909000009090000204300004f4e000086
:103224002044000053500000200a00000a0a000055
:10323400000a00000a230000205400004359000043
:10324400206300006f6e0000204400005350000013
:103254003a200000252e0000316600000d0a00000f
:10326400000900000909000009200000434f000084
:103274004e200000464c00004f4100005420000046
:103284000a0a00000a000000232000005443000042
:1032940059200000636f00006e200000666c00007f
:1032a4006f610000743a0000202500002e310000f8
:0832b400660d00000a00000095
:020000040000fa
:1032bc000800fa00a0902900f1f50700eef50700d0
:1032cc0030428800414288000000eb00000f78007b
:1032dc001200370082822000218320005000200041
:1032ec00b0f407002042880020428000000040001b
:1032fc002042880090418000a0418800c04180009d
:10330c00d0418800b0418000c04188003628ef00d1
:10331c0020428000904188001e0fe8001e007800bb
:10332c00f30f5000ebff3400d3f507005042880038
:10333c00614288005242800063428000304280002b
:10334c0041428000000051008180590001f50700c6
:10335c000200200083192400a0f4070070428800aa
:10336c00814288007042800081428000809fbe00b4
:10337c00b0912900801f780050f70700e6875700ae
:10338c000000eb00100798000000eb00000f780025
:10339c006000b8002007980031079800309329008e
:1033ac00b7f50700b4f507003042880041428800a9
:1033bc00380037001e007800c200dd0000802000bd
:1033cc00008040001002be001e007800c200dd002c
:1033dc0040812000008040001000be000001be00b3
:1033ec000400be001cf507000001be002e0090007a
:1033fc00be0090007af4070020079800310798006f
:10340c001e0fe8001e007800e40f5000e9ff3400a6
:10341c000000eb00000f78002e009000be00900022
:10342c000001be006ef407002007980031079800d9
:10343c00a0408000b1408000c0408800d14088008e
:10344c0000418000114180002041880031418800fa
:10345c00e0408000f140800000418800114188006c
:10346c006000b800e0408800f14088002e01900018
:10347c00be019000a2408800b34088001e0090005e
:10348c000000e800100798006000b80020079800c2
:10349c00310798001e009000f30f5000d9ff340044
:1034ac0075f5070050428800614288005242800046
:1034bc006342800030428000414280000000510095
:1034cc0081805900a3f40700020020008319240016
:1034dc0042f40700704288008142880070428000ec
:1034ec0081428000809fbe0060942900801f78007c
:1034fc00f2f60700e68757000000eb000080fa00a8
:04350c0000000600b5
:020000040000fa
:103510003c08000016000000000000000008000049
:103520003c0000000200000071acf3003f0000000e
:1035300080bfe9003ddf39009f445f003ae93d006c
:10354000df39000000000000000000000000000063
:10355000803f0000000000000000000000d579005e
:1035600000c00700000e000007000000000000007f
:10357000ff7f0000000000005208000088000000eb
:1035800002000000010000000078080079087800bf
:103590000878080078087800086808000000000033
:1035a000000000000000000000000000000000001b
:1035b0000000000000000000000208000101a0005f
:1035c00008a10800a008a00008a00800a00890001a
:1035d00008000000000000000000000000000000e3
:1035e00000000000000000000000000000000200d9
:1035f00008020200c808c90008c80800c808c800b6
:1036000008c80800b8080000000000000000000022
:1036100000000000000000000000000000000000aa
:103620000000000052087a0008a208000000000014
:103630000000000000000000000000005009000031
:103640000200000000000000320900001a00000023
:1036500002000000686a6c00747a4c0000000100ef
:10366000000200000400080000100000000020001c
:103670002b2d230030000000da0800005800000065
:10368000020000006e616e00004e41004e006900b5
:103690006e660000494e4600000000000000000079
:1036a000002440000000000000000000594000001d
:1036b000000000000088c3004000000000008400fb
:1036c000d79741000080e0003779c30041431700dd
:1036d0006e05b500b5b8930046f5f9003fe9030063
:1036e0004f384d00321d3000f9487700825a3c00b7
:1036f000bf737f00dd4f1500750000005209000008
:103700000200000002000000300000005409000028
:103710000200000002000000040000004c0900004c
:103720000400000000000000560900000200000034
:103730000200000001000000580900000200000023
:08374000000000000000000081
:020000040000fa
:0200000401f009
:04000000078700006e
:020000040000fa
:0200000401f009
:040004003f000000b9
:020000040000fa
:0200000401f009
:04000800b0870000bd
:020000040000fa
:0200000401f009
:04001400ffff0000ea
:00000001FF
